:020000040800F2
:10000000A8040020ED010008FB1600080D120008EE
:10001000F916000825030008A724000800000000C6
:10002000000000000000000000000000131A00089B
:100030002703000800000000FD160008851A0008CC
:10004000070200080702000807020008070200086C
:10005000070200080702000807020008070200085C
:10006000070200080702000807020008070200084C
:10007000070200080702000807020008070200083C
:10008000070200080000000007020008070200083D
:10009000070200080702000807020008070200081C
:1000A000070200080702000807020008070200080C
:1000B00007020008070200080702000807020008FC
:1000C00007020008070200080702000807020008EC
:1000D00007020008070200080702000807020008DC
:1000E00007020008070200080702000807020008CC
:1000F00007020008070200080702000800000000CD
:1001000000000000070200080000000007020008CD
:1001100007020008000000000702000807020008AC
:10012000070200080702000807020008070200088B
:10013000070200080000000000000000070200089D
:10014000070200080702000800000000000000008D
:10015000000000000000000000000000000000009F
:10016000000000000000000000000000070200087E
:10017000070200080000000000000000000000006E
:10018000000000000702000800000000000000005E
:10019000000000000000000000000000000000005F
:1001A000000000000000000007020008070200082D
:1001B000070200080702000807020008000000000C
:1001C000000000000702000800000000000000001E
:1001D0000702000807020008DFF80CD000F090F8D2
:1001E000004800476F260008A80400200648804702
:1001F00006480047FEE7FEE7FEE7FEE7FEE7FEE70C
:10020000FEE7FEE7FEE7FEE7F51A0008D901000861
:100210002DE9F05F0546002092469B46884606463B
:10022000814640241BE0284641464746224600F0CE
:1002300057F853465A46C01A914110D311461846F2
:10024000224600F03EF82D1A67EB01084F46224681
:100250000120002100F035F817EB00094E41201E67
:10026000A4F10104DFDC484631462A464346BDE896
:10027000F09FD2B201E000F8012B491EFBD270477B
:100280000022F6E710B513460A4604461946FFF762
:10029000F0FF204610BD30B50B460146002020225D
:1002A000012409E021FA02F59D4205D303FA02F583
:1002B000491B04FA02F52844151EA2F10102F1DCE3
:1002C00030BD202A04DB203A00FA02F100207047FA
:1002D0009140C2F1200320FA03F319439040704784
:1002E000202A04DB203A21FA02F00021704721FA8B
:1002F00002F3D040C2F120029140084319467047F2
:10030000064C074D06E0E06840F0010394E8070062
:1003100098471034AC42F6D3FFF762FF8C380008E0
:10032000AC380008FEE77047002240F6B83306E01C
:100330000021491C89B29942FBD3521C92B28242DD
:10034000F6D370477047000070B5044600F0F8F827
:100350000546601C02D004484068044400F0F0F8F0
:10036000401BA042FAD370BD080000202DE9FC4FCD
:10037000DFF8A0A1002301250AF1040B03244FF0AC
:100380000F0C0BF1040EBDE005FA03F632406FD0FE
:100390004F68012F05D0022F03D0112F01D0122F4B
:1003A00017D1D0F808905F0004FA07F829EA080985
:1003B0000097D1F80C8008FA07F848EA0908C0F855
:1003C00008804768B7430E79C6F300169E403E4347
:1003D0004660C6684FEA430804FA08F7BE4301972F
:1003E0008F6807FA08F73743C7604E68022E01D0BE
:1003F000122E13D1DE0800EB86060096366A5F07E0
:10040000FF0E0CFA07F926EA0906D1F8109009FA4E
:1004100007F949EA0609009EC6F820900668019F80
:10042000BE430F7907F0030707FA08F73743076061
:100430004E68F60065D5384E376E47F001073766CF
:10044000366E23F0030706F001060096334E3E4455
:10045000B146B6689F074FEA17780CFA08F7BE4313
:10046000B0F1904F05D02E4FB84204D1012717E0CC
:1004700047E0002714E02B4FB84201D102270FE0DC
:10048000294FB84201D103270AE0284FB84201D1D1
:10049000042705E0264FB84201D1052700E00627D2
:1004A00007FA08F73743C9F80870DAF800605746CA
:1004B000D1F8048096435FEAC83800D516433E6001
:1004C000DBF800605F46D1F8048096435FEA883825
:1004D00000D516433E60DEF800607746D1F8048010
:1004E00096435FEAC82800D516433E60094F0C3793
:1004F0003E68D1F8048096435FEA882800D5164309
:100500003E605B1C0A6832FA03F67FF43DAFBDE83B
:10051000FC8F000000040140001002400000014078
:100520000004004800080048000C00480010004883
:10053000001400480AB18161704781627047000071
:100540000148806870470000080000200248816868
:1005500042681144816070470800002010B50024F3
:10056000032000F069F8002000F008F808B1012429
:1005700001E000F025F8204610BD000070B50E4ED9
:1005800005460024706898B14FF47A71B1FBF0F021
:100590000A490968B1FBF0F000F052FD40B9102D96
:1005A00006D200222946501E00F026F8356000E0F1
:1005B0000124204670BD0000080000201400002027
:1005C0000B4808B5016E41F001010166016E01F0B2
:1005D00001010091816D41F080518165806D00F0D5
:1005E000805000900348816841F48041816008BDDB
:1005F0000010024000700040F0B40E4B1B680C4627
:10060000C3F30223C3F10705042D00D90425191DE6
:10061000072901D2002300E0DB1E012606FA05F1BE
:10062000491E214099409E40761E16403143F0BC41
:1006300001F04EBF0CED00E0064900F0070208682B
:100640004FF6FF03184040EA0220034A10430860B7
:10065000704700000CED00E00000FA052B492C4B20
:100660000A6832214A432B4940B1B0F5007F08683F
:1006700029D020F4C06040F480602CE00868C0F30A
:100680004120022804D051F8800F20F4807022E02D
:10069000D1F8800020F48070C1F88000086820F450
:1006A000C06040F400700860B2FBF3F0401C00E052
:1006B000401E4A69520501D50028F9D14869400514
:1006C0000AD503207047C0F34120022806D051F814
:1006D000800F40F48070086000207047D1F88000DF
:1006E00040F48070C1F88000086820F4C06040F4D5
:1006F00000700860B2FBF3F0401C00E0401E4A6945
:100700005205DBD50028F9D1D8E7000014000020FD
:1007100040420F00007000402DE9F8430446006895
:1007200000269D4D00035ED5A86D0027C00008D4AB
:10073000A86D40F08050A865A86D012700F080509A
:100740000090DFF85892D9F8001041F48071C9F890
:100750000010FFF7F5FE804606E000BFFFF7F0FE51
:10076000A0EB080002282BD8D9F80000C005F5D569
:10077000D5F8900010F4407014D0216C814211D053
:10078000D5F89000D5F8901020F4407041F48031F5
:10079000C5F89010D5F8901021F48031C5F890106C
:1007A000C5F89000C00711D0FFF7CAFE804641F29D
:1007B000883907E0FFF7C4FEA0EB0801494501D9DD
:1007C00003260BE0D5F890008007F3D5D5F890000C
:1007D000216C20F440700843C5F890001FB1A86D4B
:1007E00020F08050A8652078C00707D0D5F8880091
:1007F000616820F003000843C5F88800207880076E
:1008000007D5D5F88800A16820F00C000843C5F88A
:1008100088002078400707D5D5F88800E16820F0E7
:1008200030000843C5F888002078000707D5D5F8C0
:100830008800216920F0C0000843C5F888002078AE
:10084000800607D5D5F88800616920F44060084328
:10085000C5F888002078400607D5D5F88800A1693A
:1008600020F440500843C5F888002078000607D5DA
:10087000D5F88800E16920F440400843C5F88800B5
:100880002088C00507D5D5F88800216A20F44030BB
:100890000843C5F888002088800507D5D5F888006A
:1008A000616A20F440200843C5F88800208840058C
:1008B0000FD5D5F88800A16A20F440100843C5F888
:1008C0008800A06AB0F5801F03D1E86840F480106A
:1008D000E860208800050FD5D5F88800E16A20F48B
:1008E00040000843C5F88800E06AB0F5800F03D1E6
:1008F000E86840F48010E8602088C0040FD5D5F87F
:100900008800216B20F040700843C5F88800206BF8
:10091000B0F1807F03D1E86840F48010E86020885F
:100920004FF0006180040ED5D5F88800626B20F08E
:1009300040601043C5F88800606B884203D1E868C6
:1009400040F48010E860208840040ED5D5F8880077
:10095000A26B20F040601043C5F88800A06B88426D
:1009600003D1E86840F48010E860208800040FD5C7
:10097000D5F88800E16B20F040500843C5F88800A6
:10098000E06BB0F1805F03D1E86840F48030E8604C
:100990003046BDE8F88300000010024000700040BF
:1009A0002DE9F0470E4605004FF0000725D0DFF88F
:1009B000AC81D8F8000000F00F00B0420CD2D8F89B
:1009C000001021F00F013143C8F80010D8F80000E2
:1009D00000F00F00B04210D12968614CC80741F205
:1009E000883A5AD06868DFF87C91032808D002283A
:1009F00020682DD0400500282CDB0120BDE8F087C1
:100A000020688001F9D5E06800F00302E068C0F3D7
:100A10000310401C032A19D0534A00BFB2FBF0F068
:100A2000E268C2F306225043E268C2F34162521CFC
:100A30005200B0FBF2F0484517D9A06810F0F00F53
:100A40000CD0880711D5A86840B10EE0474AE5E709
:100A50008003D0E700F0B6F8484506D9A06820F03A
:100A6000F00040F08000A0608027A068696820F056
:100A700003000843A060FFF763FD814606E000BF66
:100A8000FFF75EFDA0EB090151453AD8A0686968FF
:100A900000F00C00B0EB810FF2D12868810714D56B
:100AA000400703D5A06840F4E060A0602878000704
:100AB00005D5A06820F4605040F4E060A060A06814
:100AC000A96820F0F000084304E0802F03D1A0685B
:100AD00020F0F000A060D8F80010404601F00F01AF
:100AE000B14216D9016821F00F0131430160FFF7CF
:100AF00027FD074607E000BFFFF722FDC11B514558
:100B000001D903207AE7D8F8000000F00F00B042C6
:100B1000F2D12878400705D5A068E96820F4E060A4
:100B20000843A0602878000706D5A068296920F44A
:100B3000605040EAC100A06000F044F8A1680C4A8F
:100B4000C1F30311515C01F01F01C840094908605D
:100B500009480068BDE8F047FFF710BD00200240DB
:100B60000010024000B4C4040024F40000366E01FA
:100B700072380008140000200800002005480649CB
:100B800000688968054AC1F30221515C01F01F0128
:100B9000C84070471400002000100240823800084E
:100BA0000548064900688968054AC1F3C221515CBD
:100BB00001F01F01C84070471400002000100240DF
:100BC00082380008184910B58868C0F381021748B8
:100BD000012A0BD08A68164BC2F38102022A06D082
:100BE0008A68C2F38102032A03D0002010BD184690
:100BF00010BDCA6802F00304CA68C2F30312521C93
:100C0000032C02D0B0FBF2F001E0B3FBF2F0CA68B3
:100C1000C968C2F306225043C1F34161491C49002F
:100C2000B0FBF1F010BD0000001002400024F40001
:100C300000366E012DE9F84304007AD02078FA4D91
:100C4000C00747D0A868E96800F00C0001F0030174
:100C50000C2802D0082817D001E0032914D06068BE
:100C6000B0F5803F17D0B0F5A02F286817D020F43A
:100C700080302860286820F4802028606068E0B117
:100C8000FFF75EFC064614E02868800322D5606802
:100C90000028D2D01EE0286840F48030EDE740F410
:100CA00080202860F7E700BFFFF74AFC801B64281C
:100CB00070D828688003F7D50CE0FFF741FC0646A2
:100CC00005E000BFFFF73CFC801B6428F0D82868D3
:100CD0008003F7D4207880074CD5A868E96800F035
:100CE0000C0001F003010C2802D004280DD001E013
:100CF00002290AD0E068002828682BD040F48070D0
:100D00002860FFF71DFC064619E02868400502D55B
:100D1000E068002891D06868217C20F0FE4040EA1D
:100D200001606860C1480068FFF728FC002800D116
:100D300020E076E1FFF704FC801B0228B8D8286881
:100D40004005F7D56868217C20F0FE4040EA01604C
:100D500068600FE020F480702860FFF7F1FB064622
:100D600005E000BFFFF7ECFB801B0228A0D8286835
:100D70004005F7D42078000729D560690028D5F808
:100D8000940013D040F00100C5F89400FFF7D8FBA1
:100D9000064606E090E000BFFFF7D2FB801B02286A
:100DA00086D8D5F894008007F6D510E020F0010031
:100DB000C5F89400FFF7C4FB064604E0FFF7C0FB4C
:100DC000801B022878D8D5F894008007F6D42078C4
:100DD000400761D5A86D0026C00008D4A86D40F07A
:100DE0008050A865A86D012600F0805000909048C2
:100DF0000168C90511D40168804641F48071016021
:100E0000FFF79EFB074604E0FFF79AFBC01B022892
:100E100052D8D8F80000C005F6D5A068012815D032
:100E20000528D5F8900016D020F00100C5F89000F4
:100E3000D5F8900020F00400C5F89000A06841F2B9
:100E40008838B8B1FFF77CFB07460EE0D5F8900074
:100E500040F00100F0E740F00400C5F89000F5E72D
:100E6000FFF76EFBC11B414526D8D5F890008007DF
:100E7000F6D50CE0FFF764FB074604E0FFF760FBE4
:100E8000C11B414518D8D5F890008007F6D41EB193
:100E9000A86D20F08050A8652078800629D5A0692B
:100EA0000028D5F8980013D040F00100C5F898004C
:100EB000FFF746FB064606E077E000BFFFF740FB82
:100EC000801B022877D8D5F898008007F6D510E067
:100ED00020F00100C5F89800FFF732FB064604E059
:100EE000FFF72EFB801B022865D8D5F898008007F5
:100EF000F6D4E069F0B3A968C1F38101032961D098
:100F00000228286820F0807028600BD0E86820F064
:100F10000300E860E86847490840E860FFF710FB15
:100F200004464BE0FFF70CFB064604E0FFF708FB26
:100F3000801B02283FD828688001F7D4F4E9080113
:100F40006FF00F0202EB01110843218A5204490895
:100F500002EB4151A26841EA02210843217D4FF092
:100F60007E42490802EB41610843217B40EAC160AF
:100F7000E96800E062E0304A11400843E860286810
:100F800040F080702860E86840F08070E860FFF70B
:100F9000D7FA044605E000BFFFF7D2FA001B02288B
:100FA00009D828688001F7D548E004E0FFF7C8FABF
:100FB000001B022802D90320BDE8F88328688001BD
:100FC000F4D43BE00128F7D0E868226A00F003017E
:100FD000914226D1616A00F0F00209011039914274
:100FE0001FD1A26A00F4FE41B1EB022F19D194F88F
:100FF0002C2000F07841B1EBC26F12D1218E00F4A9
:10100000C00249084905A1F50011914209D194F89F
:10101000341000F0C06049084906A1F10071814216
:101020000CD00120C8E7000000100240080000209A
:1010300000700040FFFFEEFE0C809F010020BBE728
:1010400010B5401EB0F1807F01D3012010BD4FF0DC
:10105000E02460610F21601701F03AFA0020A061DE
:1010600007202061002010BD90F87C10012918D0C5
:10107000012180F87C102421C0F8801050F8601BFA
:101080000A680B6823F001030B6022F00051002274
:10109000426050F8603C19602021016202771046DE
:1010A00070470220704770B5044690F87C00012814
:1010B0001DD0012084F87C002420C4F88000206822
:1010C0000568026822F0010202602068826822F04E
:1010D00060620A438260204600F01AFD20680560C5
:1010E0002020C4F88000002084F87C0070BD02201D
:1010F00070BD70B5044690F87C0001281DD0012019
:1011000084F87C002420C4F8800020680568026808
:1011100022F0010202602068826822F060420A43E5
:101120008260204600F0F4FC206805602020C4F8AE
:101130008000002084F87C0070BD022070BD10B5D6
:10114000040003D0D4F8800010B107E0012010BDE6
:10115000002084F87C00204600F026F82420C4F803
:1011600080002068016821F001010160204600F044
:1011700095FD0128EBD0A06A10B1204600F0FAFCE2
:101180002068416821F4904141602068816821F025
:101190002A0181602068016841F001010160204658
:1011A000BDE8104000F04ABD10B586B004461421D9
:1011B0006846FFF765F81349206888421FD1124836
:1011C000016E41F480410166016E01F48041059198
:1011D000C16C41F00101C164C06C694600F00100BE
:1011E00005904FF4C0600090022001900020029012
:1011F0000390072004904FF09040FFF7B7F806B037
:1012000010BD00000038014000100240FEE7000061
:1012100000B585B014216846FFF732F84FF6FF702D
:10122000009000200321CDE90201019069460248A7
:10123000FFF79CF805B000BD0008004800B585B078
:1012400014216846FFF71CF84FF6FF70009001204C
:101250000190032003900020029069460248FFF7A6
:1012600085F805B000BD00000008004870B50024F6
:1012700006462146204600F003F900F041F94FF4FC
:101280009635304600F010F9641CAC42F9D370BDBD
:1012900030B587B014216846FEF7F2FF1E48C16CD6
:1012A00041F00401C164C16C01F004010591C16CFD
:1012B00041F00101C164C16C01F001010591C16CF3
:1012C00041F00201C164C06C012500F002000590EC
:1012D0004FF44870CDE90005002403946946029458
:1012E0000E48FFF743F8280203940090CDE901541B
:1012F0004FF0904469462046FFF738F8FFF79EFF0D
:10130000A06940F48070A06104481830016841F47D
:101310000871016007B030BD0010024000040048B1
:10132000203AD2B2034B02EB420203EB021200F06E
:1013300019B80000A2260008F0B50E4607460025A1
:1013400040F23F1407E021463846FFF7E9FF103C22
:101350006D1CA4B2761C3278002A01D0142DF2D371
:10136000F0BD00002DE9F04791468A46002604466C
:1013700000F086F8DFF84080012700BF00F0C0F8D9
:101380005FF0000539F8160007FA05F108424046FB
:1013900001D1408800E0008800F086F86D1C102D17
:1013A000F0D3641CE4B25146204600F069F8761C84
:1013B000182EE3D3BDE8F0870000002010B5FFF73A
:1013C00067FF002000F014F8084CA080A088A0F56A
:1013D0000241303906D000F01BFA002000F008F876
:1013E000A08010BD00F08BF9F7E70000000000209E
:1013F00070B51D490A6842F400720A600A6842F436
:1014000080720A60184C103C226842F02002226070
:10141000164A1060086840F02000086000BF00BF56
:1014200000BF206840F020002060206840F48070F9
:101430002060FFF7EDFE4FF09041886A40F4807025
:10144000886200BF00BF00BF0848001F006885B267
:10145000886940F480708861FFF7F0FE206840F4EE
:1014600000702060284670BD280400481408004819
:1014700001B5BDF800000149488008BD000000200A
:1014800010B50C460146202000F068F82146BDE862
:101490001040212000F062B801B5BDF800000149FC
:1014A000088008BD00000020134A116841F4007153
:1014B0001160114910390B6843F480730B600B689D
:1014C00043F020030B600D4B1860106840F02000C3
:1014D000106000BF00BF00BF086840F02000086037
:1014E000086840F48070086000BF00BF00BF086853
:1014F00040F4007008607047280400481408004851
:101500001449086840F400700860086840F480706E
:10151000086010481038026842F0200202600E4B4A
:1015200022221A600A6842F020020A6000BF00BF4F
:1015300000BF016841F020010160016841F4807141
:10154000016000BF00BF00BF016841F4007101608D
:10155000704700002804004814080048184B10B5D4
:101560001A6842F400721A601A6842F480721A60B3
:10157000134A103A146844F020041460114C20609F
:10158000186840F02000186000BF00BF00BF10685E
:1015900040F020001060106840F4807010602160FE
:1015A000186840F02000186000BF00BF00BF10683E
:1015B00040F020001060106840F48070106010BD92
:1015C0002804004814080048F0B587B01421684684
:1015D000FEF756FE2A48C16C41F00401C164C16C9B
:1015E00001F004010591C16C41F02001C164C16C9E
:1015F00001F020010591C16C41F00201C164C16C90
:1016000001F002010591C16C41F00101C164C16C9E
:1016100001F001010591C16C41F00801C164C06C89
:10162000184E00F008004FF47F4405900022214638
:101630003046FEF77FFF144F002207213846FEF7A1
:1016400079FF0125CDE90045002402946946304622
:101650000394FEF78BFE07200090CDE90154694604
:1016600038460394FEF782FE042000900320CDE963
:10167000010469460548FEF779FE07B0F0BD000099
:10168000001002400008004800040048000C004818
:10169000184810B5164901604FF4165141600021F9
:1016A00081600C22C160C0E904128161C1610162E4
:1016B00041628162FFF743FD08B1FEF743FE00215E
:1016C0000C48FFF716FD08B1FEF73CFE0021094863
:1016D000FFF7E9FC08B1FEF735FE0648FFF7C4FC4A
:1016E000002803D0BDE81040FEF72CBE10BD00005E
:1016F0000038014018000020FEE77047704730B501
:1017000001210020FFF72AFF4FF47A70FEF70CFE4C
:1017100000210120FFF722FF41F290711020FFF716
:101720001DFF4FF41C516020FFF718FF01216120BD
:10173000FFF714FF02214620FFF710FF48F21001C7
:101740001320FFF70BFF48F2FE011220FFF706FF00
:101750004FF4A0610220FFF701FF41F230010320A6
:10176000FFF7FCFE40F2033421463020FFF7F6FE7F
:1017700021463120FFF7F2FE21463220FFF7EEFE30
:10178000E51E29463320FFF7E9FE03213420FFF749
:10179000E5FE21463520FFF7E1FE14213620FFF754
:1017A000DDFE21463720FFF7D9FE21463820FFF71E
:1017B000D5FE21463920FFF7D1FE29463A20FFF712
:1017C000CDFE03213B20FFF7C9FE21463C20FFF759
:1017D000C5FE4FF4A0513D20FFF7C0FE4FF400714D
:1017E0009220FFF7BBFE21469320FFF7B7FE40F69D
:1017F0000D019020FFF7B2FE41F218010320FFF720
:10180000ADFEBDE8304040F273110720FFF7A6BEE1
:1018100010B543F20801E320FFF7A0FE1221E720F4
:10182000FFF79CFE41F23121EF20FFF797FE0021E8
:101830000120FFF793FE4FF4E0610220FFF78EFED8
:1018400041F230010320FFF789FE00210420FFF759
:1018500085FE40F207210820FFF780FE00210920C5
:10186000FFF77CFE00210A20FFF778FE00210C2004
:10187000FFF774FE00210D20FFF770FE00210F20FE
:10188000FFF76CFE00211020FFF768FE07211120F2
:10189000FFF764FE00211220FFF760FE00211320F5
:1018A000FFF75CFEC820FEF74FFD41F2906110206B
:1018B000FFF754FE40F227211120FFF74FFE3220A0
:1018C000FEF742FD1D211220FFF748FE3220FEF7F1
:1018D0003BFD4FF400611320FFF740FE1421292047
:1018E000FFF73CFE0B212B20FFF738FE3220FEF7DE
:1018F0002BFD00212020FFF731FE00212120FFF7E2
:101900002DFE07213020FFF729FE40F2077131201C
:10191000FFF724FE06213220FFF720FE40F204717B
:101920003520FFF71BFE41F604713620FFF716FE47
:1019300004213720FFF712FE00213820FFF70EFEAA
:1019400040F206713920FFF709FE40F201713C2098
:10195000FFF704FE0F213D20FFF700FE002150207D
:10196000FFF7FCFDEF215120FFF7F8FD0021522089
:10197000FFF7F4FD40F23F115320FFF7EFFD4FF466
:101980001C516020FFF7EAFD01216120FFF7E6FD11
:1019900000216A20FFF7E2FD00218020FFF7DEFD35
:1019A00000218120FFF7DAFD00218220FFF7D6FD1C
:1019B00000218320FFF7D2FD00218420FFF7CEFD18
:1019C00000218520FFF7CAFD10219020FFF7C6FDFA
:1019D00000219220FFF7C2FD03219320FFF7BEFDF7
:1019E0004FF488719520FFF7B9FD00219720FFF78C
:1019F000B5FD00219820FFF7B1FD41F21801032049
:101A0000FFF7ACFDBDE8104040F273110720FFF76F
:101A1000A5BD704770B50C46054690B016460AA1A4
:101A20001820FFF789FC2A460DA1684600F03CFD0E
:101A300022460EA105A800F037FD32460EA10AA8E5
:101A400000F032FD10B070BD20202020202020505A
:101A500053442020202020202020202000000000AF
:101A60002020202042313A25640000002020202040
:101A700042323A25640000002020202042333A25DB
:101A800064000000FEF762BD30B5A5B0382168469D
:101A9000FEF7F6FB14211FA8FEF7F2FB44210EA867
:101AA000FEF7EEFB4FF40070FEF7D8FD0125280489
:101AB000CDE9005002200324CDE907041421CDE92B
:101AC0000A100C900D9009946846FFF7B3F80F20A8
:101AD000CDE91F0400242194229403211FA82394FC
:101AE000FEF75EFFCDE90E540EA8FEF715FE25B0F9
:101AF00030BD00000548016841F4700101600349F0
:101B00004FF00060803908607047000088ED00E009
:101B10003FB514A1D1E90021CDE9002113A2D2E9FA
:101B20000012CDE90212416EB9B102689168926863
:101B3000C1F34261520F1DF80240E50002ACA25C05
:101B4000B5FBF2F2A0F86A201DF80120615CD2001A
:101B5000B2FBF1F1A0F868103FBD0121A0F86A10B6
:101B6000F8E7000001010103070100000804020476
:101B70000801010190F82810C90706D001684A68D9
:101B8000C36A22F400321A434A6090F82810890789
:101B900006D501684A68036B22F480321A434A6012
:101BA00090F82810490706D501684A68436B22F46B
:101BB00080221A434A6090F82810090706D5016868
:101BC0004A68836B22F400421A434A6090F8281056
:101BD000C90606D501688A68C36B22F480521A438D
:101BE0008A6090F82810890606D501688A68036C17
:101BF00022F400521A438A6090F82810490611D541
:101C000001684A68436C22F480121A434A60416CAE
:101C1000B1F5801F06D101684A68836C22F4C002C6
:101C20001A434A6090F82810090606D501684A68E8
:101C3000C06C22F4002202434A607047F8B50026C7
:101C40000446C0F88860FEF77BFC05462068006803
:101C50006FF07E47000708D52B4600224FF4001195
:101C60002046009700F0EDFB60B92068006840074F
:101C70000AD52B4600224FF480012046009700F041
:101C8000E0FB08B10320F8BD2020C4F88000C4F8B0
:101C9000840084F87C600020F8BD00002DE9F05F2E
:101CA0000446016880682369E56918436369002771
:101CB0002B431843636EFA4A03430868F94D2840E2
:101CC0001843086020684168E36821F440511943D3
:101CD00041602168A069914201D0236A18438B6852
:101CE000F14D2B4003438B602068C16A636A21F089
:101CF0000F011943C162ED4B2068ED4998420DD1A7
:101D0000D1F8881011F0030106D001295AD0022918
:101D100056D003293FD157E001253DE0E54B9842DD
:101D20000BD1D1F8881011F00C0147D0042949D00B
:101D3000082945D00C292ED146E0DF4B98420BD123
:101D4000D1F8881011F0300138D010293AD020296C
:101D500036D030291FD137E0D84B98420BD1D1F87B
:101D6000881011F0C00129D040292BD0802927D01C
:101D7000C02910D128E090420DD1D1F8881011F47B
:101D800040611BD0B1F5806F1CD0B1F5006F17D04A
:101D9000B1F5406F18D01025DFF824A34FF48076FA
:101DA0004FF000094FF4004B90426ED175B1022DF7
:101DB00029D0042D59D0082D68D176E00025EBE715
:101DC0000225E9E70425E7E70825E5E7FEF7D6FE63
:101DD0004DE0012851D0022851D0032851D00428C9
:101DE00051D0052853D0062853D0072853D00828AF
:101DF00053D0092853D00A2853D00B2853D03AE0A7
:101E0000B1FBF0F06CE0606AA8B1012817D002289D
:101E100017D0032817D0042817D0052817D0062874
:101E200017D0072817D0082817D0092817D00A2854
:101E300017D00B2817D00120BAFBF0F050E0022099
:101E4000FAE70420F8E70620F6E70820F4E70A207E
:101E5000F2E70C20F0E71020EEE72020ECE740202E
:101E6000EAE78020E8E73046E6E7FEF7ABFE01460A
:101E7000606A0028ADD10120C2E70220C0E704203B
:101E8000BEE70620BCE70820BAE761E14AE00A2085
:101E9000B6E70C20B4E71020B2E72020B0E74020DE
:101EA000AEE78020ACE73046AAE7606AA8B1012817
:101EB00022D0022822D0032822D0042822D00528AC
:101EC00022D0062822D0072822D0082822D009288C
:101ED00022D00A2822D00B2822D00120BBFBF0F010
:101EE000002820D06168884601EB4101814219D861
:101EF000B0EB083F16D817E00220EFE70420EDE72B
:101F00000620EBE70820E9E70A20E7E70C20E5E7F1
:101F10001020E3E72020E1E74020DFE78020DDE735
:101F20003046DBE7012739E27DB3022D61D0042D75
:101F30007DD0082DF6D1606AA8B1012878D002289A
:101F400077D0032876D0042875D0052874D00628C9
:101F500073D0072872D0082871D0092870D00A28B9
:101F60006FD00B2800D0012632464D46002358463C
:101F70000021FEF74DF9090241EA106102024FEA21
:101F8000580010186941424670E0FFE7FEF7F6FD81
:101F90000146606AA8B1012817D0022817D003288B
:101FA00017D0042817D0052817D0062817D00728DF
:101FB00017D0082817D0092817D00A2817D00B28BF
:101FC00000D0012632464D468CE00226FAE7042670
:101FD000F8E70626F6E70826F4E70A26F2E70C26D5
:101FE000F0E71026EEE72026ECE74026EAE7802619
:101FF000E8E7606AA8B1012824D0022824D0032889
:1020000024D0042824D0052824D0062824D007284A
:1020100024D0082824D0092824D00A2824D00B282A
:1020200000D0012632464D4600235046A0E726E068
:102030007AE07BE07CE07DE07EE07FE080E081E0B4
:1020400082E083E00226EDE70426EBE70626E9E7D7
:102050000826E7E70A26E5E70C26E3E71026E1E78E
:102060002026DFE74026DDE78026DBE70023FEF7BA
:10207000CFF8144AA0F54071914271D952E7FEF7AA
:10208000A1FD0146606A50B3012839D0022839D039
:10209000032839D0042839D0052839D0062813E080
:1020A00000800040F369FFCFFFF4FF1100380140CA
:1020B000001002400044004000480040004C004036
:1020C0000024F400FFFC0F0024D0072824D00828A7
:1020D00024D0092824D00A2824D00B2800D0012697
:1020E0004D463246002308461946FEF791F809028C
:1020F000626841EA10610302500818186941B5E7A7
:102100000226EDE70426EBE70626E9E70826E7E7DF
:102110000A26E5E70C26E3E71026E1E72026DFE7BD
:102120004026DDE78026DBE702261DE704261BE7C5
:10213000062619E7082617E70A2615E70C2613E7EF
:10214000102611E720260FE740260DE780260BE733
:10215000E0694FF6EF78584570D1092D8ED200E036
:102160001AE1DFE805F006093C0580050505830056
:10217000D8E6FEF703FD01E0FEF712FD0146606AB6
:10218000A8B1012815D0022815D0032815D004289D
:1021900015D0052815D0062815D0072815D00828F1
:1021A00015D0092815D00A2815D00B2814D00126DF
:1021B00012E0022610E004260EE006260CE00826B7
:1021C0000AE00A2608E00C2606E0102604E0202695
:1021D00002E0402600E08026B1FBF6F01AE0606ADB
:1021E000A8B101282BD002282BD003282BD00428FB
:1021F0002BD005282BD006282BD007282BD0082839
:102200002BD009282BD00A282BD00B2800D0012650
:10221000BAFBF6F04100606801EB5001B1FBF0F051
:1022200080B2A0F110014145A2D84FF6F0710140F3
:10223000C0F3420001432068C160AFE046E00226DF
:10224000E6E70426E4E70626E2E70826E0E70A26B2
:10225000DEE70C26DCE71026DAE72026D8E7402662
:10226000D6E78026D4E7FEF7ADFC87E7606AA8B121
:10227000012817D0022817D0032817D0042817D018
:10228000052817D0062817D0072817D0082817D0F8
:10229000092817D00A2817D00B2800D00126BBFB2D
:1022A000F6F0B7E70226FAE70426F8E70626F6E78F
:1022B0000826F4E70A26F2E70C26F0E71026EEE7F8
:1022C0002026ECE74026EAE78026E8E7092DBFF460
:1022D000D5AEDFE805F006093C0583050505860057
:1022E00020E6FEF74BFC01E0FEF75AFC0146606A6F
:1022F000A8B1012815D0022815D0032815D004282C
:1023000015D0052815D0062815D0072815D008287F
:1023100015D0092815D00A2815D00B2814D001266D
:1023200012E0022610E004260EE006260CE0082645
:102330000AE00A2608E00C2606E0102604E0202623
:1023400002E0402600E08026B1FBF6F11AE0606A68
:10235000A8B101282ED002282ED003282ED0042880
:102360002ED005282ED006282ED007282ED00828BB
:102370002ED009282ED00A282ED00B2800D00126D6
:10238000BAFBF6F1606801EB5001B1FBF0F080B2EE
:10239000A0F110014145A3D82168C8600120A4F82C
:1023A0006A0024F8680F3846C4F80490C4F808900E
:1023B000BDE8F09F0226E3E70426E1E70626DFE713
:1023C0000826DDE70A26DBE70C26D9E71026D7E743
:1023D0002026D5E74026D3E78026D1E7FEF7F2FB9B
:1023E00084E7606AA8B1012817D0022817D0032813
:1023F00017D0042817D0052817D0062817D007288B
:1024000017D0082817D0092817D00A2817D00B286A
:1024100000D00126BBFBF6F1B4E70226FAE704265A
:10242000F8E70626F6E70826F4E70A26F2E70C2680
:10243000F0E71026EEE72026ECE74026EAE78026C4
:10244000E8E72DE9F041984617460E460446069DFA
:1024500008E0681C06D0FEF773F8A0EB0800A8425D
:102460000BD855B12068C06936EA000019D00020A9
:10247000B842EED00020BDE8F0812068016821F468
:10248000D07101602068816821F001018160202005
:10249000C4F88000C4F88400002084F87C00032085
:1024A000E9E70120E4E7FEE70FB4084B10B504A903
:1024B00002AA039800F02CF8044602A9002000F0BC
:1024C000D1F8204610BC5DF814FB0000652600081A
:1024D0000907090E002804DB00F1E02080F8001451
:1024E000704700F00F0000F1E02080F8141D7047E5
:1024F00002E008C8121F08C1002AFAD170477047CD
:10250000002001E001C1121F002AFBD1704700002A
:102510002DE9FF4F89B09B460446002506E025289B
:102520000BD05A460B999047641C6D1C20780028EC
:10253000F5D10DB02846BDE8F08F0027B84601223E
:10254000474900E0074314F8013F203B02FA03F03B
:102550000842F7D120782E2819D114F8010F47F03E
:1025600004072A280ED06FF02F022078A0F1300146
:1025700009290CD808EB880102EB410100EB0108A6
:10258000641CF2E70A98641C50F8048B0A902078C7
:102590000028CED0642808D0692806D075281ED01F
:1025A0005A460B9990476D1C58E00A994FF00A095A
:1025B00001C90A91002802DA40422D2102E03905C2
:1025C00004D52B218DF82010012103E0F90704D058
:1025D0002021F7E78A4608AE0DE00021FAE70A99C4
:1025E0004FF00A0901C90A91F7E74946FDF753FE82
:1025F000303106F8011D0028F7D1ADEB060000F1DF
:102600002009780701D44FF00108C84502DDA8EB86
:10261000090000E000208046002706E008A85A468E
:10262000C05D0B9990476D1C7F1C5745F6DB04E09D
:1026300030205A460B9990476D1CB8F10001A8F163
:102640000108F5DC05E016F8010B5A460B99904796
:102650006D1CB9F10001A9F10109F4DC641C65E706
:10266000092801000A68531C0B6010707047FDF7C1
:1026700075FFFFF709FAFEF7A7FFFFF709F8FEF766
:102680009DFE0020FEF7F2FD4FF6FF70FEF704FFFF
:102690000020FEF7EDFE032202210120FFF7BAF928
:1026A000FEE7000000000000000000000000000045
:1026B000000000000000000000000000000000001A
:1026C000000000000000000000000000000000000A
:1026D00000000000800180018001800180018001F4
:1026E0008001800180018001800180018001000063
:1026F00000008001800100000000000000000000D8
:10270000000000000000CC00CC00CC00CC00CC00CD
:10271000CC000000000000000000000000000000ED
:1027200000000000000000000000000000000000A9
:102730000000000000000000000000000000600C2D
:10274000600C600C30063006FE1FFE1F3006380796
:102750001803FE1FFE1F180318038C018C018C0147
:10276000000000008000E003F80F9C0E8C1C8C1809
:102770008C009800F801E007800E801C8C188C18E3
:102780009C18B80CF00FE0038000800000000000EF
:1027900000000000000000000E181B0C110C1106B8
:1027A0001106110311039B018E01C038C06C6044F7
:1027B0006044304430441844186C0C380000000069
:1027C00000000000E001F003380718061806300387
:1027D000F001F000F8009C310E33061E061C061CAA
:1027E000063FFC73F0210000000000000000000024
:1027F0000000000000000C000C000C000C000C009D
:102800000C000000000000000000000000000000BC
:1028100000000000000000000000000000000000B8
:1028200000000000000200038001C000C000600042
:1028300060003000300030003000300030003000E8
:10284000300060006000C000C00080010003000292
:102850000000000020006000C00080018001000333
:10286000000300060006000600060006000600063B
:1028700000060003000380018001C000600020000A
:102880000000000000000000000000000000C00088
:10289000C000D806F807E001300338070000000048
:1028A0000000000000000000000000000000000028
:1028B0000000000000000000000000000000800197
:1028C0008001800180018001FC3FFC3F800180018C
:1028D0008001800180010000000000000000000075
:1028E00000000000000000000000000000000000E8
:1028F00000000000000000000000000000000000D8
:102900000000000080018001000100018000000043
:1029100000000000000000000000000000000000B7
:1029200000000000000000000000E007E0070000D9
:102930000000000000000000000000000000000097
:102940000000000000000000000000000000000087
:102950000000000000000000000000000000000077
:1029600000000000C000C0000000000000000000E7
:1029700000000000000C000C00060006000600032A
:10298000000300038003800180018001C000C000BB
:10299000C0006000600000000000000000000000B7
:1029A00000000000E003F007380E180C0C180C189B
:1029B0000C180C180C180C180C180C180C18180CF7
:1029C000380EF007E00300000000000000000000E7
:1029D0000000000000018001C001F00198018801A1
:1029E00080018001800180018001800180018001DF
:1029F0008001800180010000000000000000000054
:102A000000000000E003F80F180C0C180C18001858
:102A10000018000C000600038001C00060003000B8
:102A20001800FC1FFC1F0000000000000000000058
:102A300000000000E001F807180E0C0C0C0C000C54
:102A40000006C003C007000C001800180C180C1872
:102A5000180CF807E0030000000000000000000070
:102A600000000000000C000E000F000F800DC00CD5
:102A7000600C600C300C180C0C0CFC3FFC3F000C84
:102A8000000C000C000C0000000000000000000022
:102A900000000000F80FF80F180018000C00EC03FD
:102AA000FC071C0E001C0018001800180C181C0C49
:102AB000180EF807E003000000000000000000000E
:102AC00000000000C007F00F381C181818000C0098
:102AD000CC03EC0F3C0E1C1C0C180C180C18181C0A
:102AE000380EF007E00300000000000000000000C6
:102AF00000000000FC1FFC1F000C00060006000385
:102B000080038001C001C000E00060006000700030
:102B10003000300030000000000000000000000025
:102B200000000000E003F007380E180C180C180C19
:102B30003806F007F007180C0C180C180C180C18B5
:102B4000380CF80FE0030000000000000000000057
:102B500000000000E003F007380E1C0C0C180C18E5
:102B60000C181C1C381EF81BE0190018000C000C77
:102B70001C0EF807F001000000000000000000003B
:102B800000000000000000000000000000008001C4
:102B900080010000000000000000000000000000B4
:102BA0000000800180010000000000000000000023
:102BB0000000000000000000000000000000800194
:102BC0008001000000000000000000000000000084
:102BD0000000800180010001000180000000000071
:102BE00000000000000000000000000000000000E5
:102BF00000000010001C800FE003F8001800F8002F
:102C0000E003800F001C0010000000000000000026
:102C100000000000000000000000000000000000B4
:102C20000000F81F000000000000F81F0000000076
:102C30000000000000000000000000000000000094
:102C40000000000000000000000000000000000084
:102C5000000008003800F001C007001F0018001F26
:102C6000C007F0013800080000000000000000006C
:102C700000000000E003F80F180C0C180C180018E6
:102C8000000C000600038001C000C000C00000006E
:102C90000000C000C00000000000000000000000B4
:102CA000000000000000E00718180420C229224A92
:102CB000114409440944094409221113E20C024059
:102CC00004201818E00700000000000000000000C9
:102CD0000000000080038003C006C006C006600C30
:102CE000600C301830183018F83FF83F1C700C603A
:102CF0000C6006C006C000000000000000000000DC
:102D000000000000FC03FC0F0C0C0C180C180C1835
:102D10000C0CFC07FC0F0C180C300C300C300C3079
:102D20000C18FC1FFC070000000000000000000061
:102D300000000000C007F01F38381C300C7006601F
:102D400006000600060006000600060006600C707D
:102D50001C30F01FE0070000000000000000000031
:102D600000000000FE03FE0F060E061806180630CF
:102D700006300630063006300630063006180618D3
:102D8000060EFE0FFE030000000000000000000021
:102D900000000000FC3FFC3F0C000C000C000C008D
:102DA0000C00FC1FFC1F0C000C000C000C000C00A5
:102DB0000C00FC3FFC3F0000000000000000000091
:102DC00000000000F83FF83F180018001800180035
:102DD0001800F81FF81F1800180018001800180035
:102DE000180018001800000000000000000000009B
:102DF00000000000E00FF83F3C780E6006E007C0DE
:102E00000300030003FE03FE03C007C006C00EC09C
:102E10003CF0F83FE00F0000000000000000000060
:102E2000000000000C300C300C300C300C300C303A
:102E30000C30FC3FFC3F0C300C300C300C300C30B4
:102E40000C300C300C3000000000000000000000CE
:102E5000000000008001800180018001800180016C
:102E6000800180018001800180018001800180015A
:102E700080018001800100000000000000000000CF
:102E8000000000000006000600060006000600061E
:102E900000060006000600060006000618061806D2
:102EA0003807F003E001000000000000000000000F
:102EB0000000000006300618060C06060603860110
:102EC000C60066007600DE008E0106030606060CCC
:102ED0000618063006600000000000000000000038
:102EE0000000000018001800180018001800180052
:102EF0001800180018001800180018001800180012
:102F00001800F81FF81F000000000000000000007B
:102F1000000000000EE01EF01EF01EF036D836D87D
:102F200036D836D866CC66CC66CCC6C6C6C6C6C64B
:102F3000C6C686C386C30000000000000000000073
:102F4000000000000C301C303C303C306C306C30E9
:102F5000CC30CC308C310C330C330C360C360C3C72
:102F60000C3C0C380C300000000000000000000099
:102F700000000000E007F81F1C380E70066003C058
:102F800003C003C003C003C003C003C006600E70CB
:102F90001C38F81FE00700000000000000000000DF
:102FA00000000000FC0FFC1F0C380C300C300C3003
:102FB0000C300C18FC1FFC070C000C000C000C0063
:102FC0000C000C000C0000000000000000000000DD
:102FD00000000000E007F81F1C380E70066003E0D8
:102FE00003C003C003C003C003C007E006630E3F75
:102FF0001C3CF83FE0F700C00000000000000000AB
:1030000000000000FE0FFE1F0638063006300630B6
:103010000638FE1FFE0706030606060C06180618ED
:1030200006300630066000000000000000000000CE
:1030300000000000E003F80F1C0C0C180C180C002A
:103040001C00F803E00F001E0038063006300E307A
:103050001C1CF80FE007000000000000000000004A
:1030600000000000FE7FFE7F800180018001800162
:103070008001800180018001800180018001800148
:1030800080018001800100000000000000000000BD
:10309000000000000C300C300C300C300C300C30C8
:1030A0000C300C300C300C300C300C300C300C3040
:1030B0001818F81FE00700000000000000000000E2
:1030C0000000000003600630063006300C180C18B3
:1030D0000C18180C180C380E3006300670076003F8
:1030E0006003C001C00100000000000000000000FB
:1030F000000000000360C361C361C36166336633CF
:1031000066336633663366336C1B6C1B6C1B2C1A80
:103110003C1E380E380E00000000000000000000C9
:10312000000000000FE00C7018303018700C600EBA
:10313000C00780038003C003E006700C301C181821
:103140000C300E6007E000000000000000000000EE
:103150000000000003C006600C301C383818300C2A
:103160006006E007C00380018001800180018001CA
:1031700080018001800100000000000000000000CC
:1031800000000000FC7FFC7F006000300018000C95
:10319000000600038001C0006000300018000C0031
:1031A0000600FE7FFE7F000000000000000000001F
:1031B00000000000E003E0036000600060006000C9
:1031C00060006000600060006000600060006000FF
:1031D000600060006000600060006000E003E003E9
:1031E0000000000030003000600060006000C0009F
:1031F000C000C000C0018001800180010003000305
:1032000000030006000600000000000000000000AF
:1032100000000000E003E0030003000300030003DC
:103220000003000300030003000300030003000386
:10323000000300030003000300030003E003E003B6
:10324000000000000000C001C001600360036003D3
:1032500030063006180C180C0000000000000000BA
:10326000000000000000000000000000000000005E
:10327000000000000000000000000000000000004E
:10328000000000000000000000000000000000003E
:1032900000000000FFFFFFFF000000000000000032
:1032A000000000000C000C000C000C000C000C00D6
:1032B000000000000000000000000000000000000E
:1032C00000000000000000000000000000000000FE
:1032D0000000000000000000000000000000F003FB
:1032E000F8071C0C0C0C000FF00FF80C0C0C0C0C5D
:1032F0001C0FF80FF0180000000000000000000094
:103300000000000018001800180018001800D8036A
:10331000F80F380C18181818181818181818181842
:10332000380CF80FD8030000000000000000000077
:103330000000000000000000000000000000C003CA
:10334000F007300E180C1800180018001800180CA0
:10335000300EF007C0030000000000000000000075
:103360000000000000180018001800180018C01B0A
:10337000F01F301C181818181818181818181818D2
:10338000301CF01FC01B0000000000000000000007
:103390000000000000000000000000000000C0036A
:1033A000F00F300C1818F81FF81F18001800381804
:1033B000301CF00FC00700000000000000000000FB
:1033C00000000000800FC00FC000C000C000F00768
:1033D000F007C000C000C000C000C000C000C000B6
:1033E000C000C000C000000000000000000000009D
:1033F0000000000000000000000000000000E00DE0
:10340000F80F180E0C0C0C0C0C0C0C0C0C0C0C0CFF
:10341000180EF80FE00D000C0C0C1C06F807F0015C
:103420000000000018001800180018001800D80745
:10343000F80F381C18181818181818181818181811
:1034400018181818181800000000000000000000EC
:1034500000000000C000C000000000000000C0002C
:10346000C000C000C000C000C000C000C000C0005C
:10347000C000C000C000000000000000000000000C
:1034800000000000C000C000000000000000C000FC
:10349000C000C000C000C000C000C000C000C0002C
:1034A000C000C000C000C000C000C000F80078002C
:1034B000000000000C000C000C000C000C000C0CB8
:1034C0000C060C038C01CC006C00FC009C018C03EE
:1034D0000C030C060C0C00000000000000000000B3
:1034E00000000000C000C000C000C000C000C0005C
:1034F000C000C000C000C000C000C000C000C000CC
:10350000C000C000C000000000000000000000007B
:1035100000000000000000000000000000007C3CF3
:10352000FF7EC7E383C183C183C183C183C183C1DC
:1035300083C183C183C100000000000000000000BF
:1035400000000000000000000000000000009807DC
:10355000F80F381C181818181818181818181818F0
:1035600018181818181800000000000000000000CB
:103570000000000000000000000000000000C00388
:10358000F00F300C181818181818181818181818E0
:10359000300CF00FC003000000000000000000002D
:1035A0000000000000000000000000000000D80340
:1035B000F80F380C181818181818181818181818A0
:1035C000380CF80FD803180018001800180018005D
:1035D0000000000000000000000000000000C01B10
:1035E000F01F301C18181818181818181818181860
:1035F000301CF01FC01B001800180018001800181D
:103600000000000000000000000000000000B00703
:10361000F003700030003000300030003000300027
:10362000300030003000000000000000000000000A
:103630000000000000000000000000000000E003A7
:10364000F003380E180C3800F003C007000C180CFB
:10365000380EF007E003000000000000000000004A
:103660000000000000008000C000C000C000F007A3
:10367000F007C000C000C000C000C000C000C00013
:10368000C000C0078007000000000000000000002C
:1036900000000000000000000000000000001818FA
:1036A000181818181818181818181818181818189A
:1036B000381CF01FE01900000000000000000000AE
:1036C00000000000000000000000000000000C18D6
:1036D000180C180C180C3006300630066003600316
:1036E0006003C001C00100000000000000000000F5
:1036F0000000000000000000000000000000C141C8
:10370000C141C361636363636363363636363636FD
:103710001C1C1C1C1C1C0000000000000000000001
:1037200000000000000000000000000000001C3845
:10373000381C300C600660036003600360036006A1
:10374000300C381C1C380000000000000000000095
:103750000000000000000000000000000000183021
:10376000301830187018600C600CE00CC006C006F1
:1037700080038003800380018001C001F00070009D
:103780000000000000000000000000000000FC1F1E
:10379000FC1F000C000600038001C0006000300028
:1037A0001800FC1FFC1F00000000000000000000CB
:1037B0000000000000038001C000C000C000C00085
:1037C000C000C00060006000300060004000C00029
:1037D000C000C000C000C000C000800100030000A5
:1037E00000000000800180018001800180018001D3
:1037F00080018001800180018001800180018001C1
:1038000080018001800180018001800180018001B0
:10381000000000006000C000C00180018001800144
:103820008001800100030003000600030001800105
:1038300080018001800180018001C00060000000E3
:103840000000000000000000000000000000000078
:103850000000F010F81F080F00000000000000003A
:103860000000000000000000000000000000000058
:103870000000000000000000000001020304060731
:10388000080900000000010203040000AC38000831
:103890000000002018000000F0240008C4380008D0
:1038A0001800002090040000002500080000FFFF21
:1038B00000000000100000000100000000000000F7
:0438C0000024F400EC
:04000005080001D915
:00000001FF
