:020000040800F2
:1000000010040020ED010008930600085D020008BE
:100010009106000859020008A5070008000000002A
:10002000000000000000000000000000970600082B
:100030005B02000800000000950600089906000811
:10004000070200080702000807020008070200086C
:10005000070200080702000807020008070200085C
:10006000070200080702000807020008070200084C
:10007000070200080702000807020008070200083C
:10008000070200080000000007020008070200083D
:10009000070200080702000807020008070200081C
:1000A000070200080702000807020008070200080C
:1000B00007020008070200080702000807020008FC
:1000C00007020008070200080702000807020008EC
:1000D00007020008070200080702000807020008DC
:1000E00007020008070200080702000807020008CC
:1000F00007020008070200080702000800000000CD
:1001000000000000070200080000000007020008CD
:1001100007020008000000000702000807020008AC
:10012000070200080702000807020008070200088B
:10013000070200080000000000000000070200089D
:10014000070200080702000800000000000000008D
:10015000000000000000000000000000000000009F
:10016000000000000000000000000000070200087E
:10017000070200080000000000000000000000006E
:10018000000000000702000800000000000000005E
:10019000000000000000000000000000000000005F
:1001A000000000000000000007020008070200082D
:1001B000070200080702000807020008000000000C
:1001C000000000000702000800000000000000001E
:1001D0000702000807020008DFF80CD000F02AF838
:1001E00000480047C5070008100400200648804763
:1001F00006480047FEE7FEE7FEE7FEE7FEE7FEE70C
:10020000FEE7FEE7FEE7FEE789070008D9010008E0
:10021000D2B201E000F8012B491EFBD27047002248
:10022000F6E710B513460A4604461946FFF7F0FFF5
:10023000204610BD064C074D06E0E06840F0010383
:1002400094E8070098471034AC42F6D3FFF7C8FF94
:1002500088080008A8080008FEE77047FEE70000CD
:100260002DE9F047424CDFF80C81012520784FF052
:10027000904940B3002601284BD0022821D101210A
:10028000404600F01EF9002868D0002702214046B1
:1002900000F017F9002863D00020074304214046EE
:1002A00000F00FF900285DD00020074301214846E7
:1002B00000F007F9E8B30020074357D060680A3020
:1002C0006060BDE8F0870121404600F0FAF8C0B157
:1002D00000260221404600F0F4F8A0B100200643B9
:1002E0000421404600F0EDF878B1002006430121DA
:1002F000484600F0E6F850B100200643E1D02570F2
:10030000DFE70126E5E70120E9E70120EEE701202C
:10031000F3E7022727700121404600F0D2F890B1A0
:1003200002214546404600F0CCF870B10421284631
:1003300000E019E000F0C5F848B10121484600F09E
:10034000C0F830B108E06570BBE76770B9E703201B
:1003500000E004206070B4E72670B2E7012795E75B
:1003600001209AE70120A0E70120A5E7A570F3E7A7
:100370000000002000040048044908B5CA6C02438C
:10038000CA64C96C0140009108BD00000010024021
:10039000F0B50A68032492FAA2F2B2FA82F30F25AA
:1003A0007BE0324601269E40324075D0D1F804E011
:1003B000066892FAA2F7B7FA87F74FEA470C04FAF1
:1003C0000CF7BE4392FAA2F7B7FA87F77F000EFA4E
:1003D00007FE46EA0E0606604E68012E01D0022E88
:1003E00015D1D1F808E0866892FAA2F7B7FA87F734
:1003F0004FEA470C04FA0CF7BE4392FAA2F7B7FA99
:1004000087F77F000EFA07FE46EA0E068660D1F8EF
:1004100010C0C66892FAA2F7B7FA87F77F0004FA0D
:1004200007FE92FAA2F7B7FA87F77F0026EA0E06D0
:100430000CFA07FC46EA0C06C6604E68022E2BD169
:10044000FF2A14D84E69076A92FAA2FCBCFA8CFC07
:100450004FEA8C0C05FA0CFC92FAA2F2B2FA82F284
:10046000920027EA0C0796403743076214E04F6971
:10047000466A120A92FAA2FCBCFA8CFC4FEA8C0C77
:1004800005FA0CFC92FAA2F2B2FA82F2920026EA83
:100490000C0697403E4346625B1C0A681646DA40EB
:1004A0007FF47FAF4A68012A01D0022A07D1CB68C6
:1004B00041683246914306FB03F21143416000203C
:1004C000F0BD0069814301D00020704701207047D2
:1004D0004FF47A71B0FBF1F14FF0E020491E416119
:1004E00000218161052101617047000003498A688C
:1004F00022F0F00202438A607047000000100240C0
:1005000001490860704700000C0000202DE9F04F01
:1005100087B018216846FFF782FE0420FFF72CFF02
:100520002020FFF729FF0120FFF726FF0220FFF719
:1005300023FF0820FFF720FF524E4FF40050B06217
:100540004700B7624FF40048C6F828804110B162F6
:100550004111B1610111B1614FF48069C6F8189081
:100560004FF4006AC6F818A0DFF81CB10421CBF8DC
:100570001810464A08219161009001250024CDE918
:1005800001540394694630460494FFF701FF009735
:10059000CDE901540394694630460494FFF7F8FE10
:1005A000CDF80080CDE901540394694630460494A7
:1005B000FFF7EEFECDE9005469464FF090400495F8
:1005C000FFF7E6FECDE90054694630480495FFF791
:1005D000DFFE0220CDE90004694604952B48FFF7B1
:1005E000D7FE0427CDE90074694628480495FFF733
:1005F000CFFE28020090CDE90154039469463046AD
:100600000494FFF7C5FE68020090CDE901540394FD
:10061000694630460494FFF7BBFECDF80090CDE963
:1006200001540394694630460494FFF7B1FECDF8B7
:1006300000A0CDE901540394694630460494FFF7C5
:10064000A7FE28030090CDE9015403946946304683
:100650000494FFF79DFE0097CDE901540394694689
:1006600058460494FFF794FE08200090CDE9015409
:100670000394694605480494FFF78AFE07B0BDE875
:10068000F08F000000080048000C004800040048FB
:10069000FEE770477047704705480178491CC9B2AA
:1006A00001700A2903D100210170FFF7D9BD7047FD
:1006B000080000202D4810B5016821F00F0141F01D
:1006C0000701016000682A4850F8801F21F48071FA
:1006D0000160284C206840F4803020602068C0F31E
:1006E00040400028FAD0E16842F62300224A114037
:1006F0000843E060E06840F08070E060206840F00F
:10070000807020602068C0F340600028FAD0A068A4
:1007100040F00300A0608020FFF7E8FEA06800F032
:100720000C000C28FAD11548016841F08071016075
:100730001348016841F001010160002141604168F6
:100740006429FCD30020FFF7D1FEA06820F4E0600C
:10075000A060A06820F46050A0600A4C2046FFF71B
:10076000B7FE2046BDE81040FFF7CABE0020024099
:1007700000700040001002400C80FFF9FCED00E02A
:10078000001000E0006889090548016841F4700123
:10079000016003494FF00060803908607047000035
:1007A00088ED00E0FEE702E008C8121F08C1002A39
:1007B000FAD170477047002001E001C1121F002AE2
:1007C000FBD17047294808B5016E41F0010101666F
:1007D000016E01F001010091816D41F08051816550
:1007E000806D234900F08050009008684FF6FF02AA
:1007F0001040204A40F44070104308601E48816851
:1008000041F480418160FFF755FFFFF77FFE4FF015
:10081000E020016941F002010161184C184B1948B0
:100820004FF4807281780029FCD04178012906D0EC
:1008300002290DD003290ED004290ED010E0416802
:10084000B1F57A7F01D89A620AE00821A16207E037
:100850000821A16104E09A6102E04FF4806199628D
:100860000021817014214160DCE70000001002408B
:100870000CED00E00000FA050070004000040048A4
:100880000008004800000020A80800080000002020
:1008900010000000A6070008B8080008100000209B
:1008A00000040000B607000800000000140000006B
:0808B000000000000024F40028
:04000005080001D915
:00000001FF
