:020000040800F2
:10000000B8070020ED0100087B2F0008CD2600086E
:10001000792F000869080008A543000800000000C7
:100020000000000000000000000000009332000803
:10003000330A0008000000007D2F0008C5330008C7
:10004000070200080702000807020008070200086C
:10005000070200080702000807020008070200085C
:1000600007020008070200080702000879090008D3
:1000700085090008070200080702000807020008B7
:10008000070200080000000007020008070200083D
:10009000070200080702000807020008070200081C
:1000A000070200080702000807020008070200080C
:1000B00007020008070200080702000807020008FC
:1000C00007020008070200080702000807020008EC
:1000D0000702000899430008070200080702000809
:1000E00007020008070200080702000807020008CC
:1000F00007020008070200080702000800000000CD
:1001000000000000070200080000000007020008CD
:1001100007020008000000000702000807020008AC
:10012000070200080702000807020008070200088B
:10013000070200080000000000000000070200089D
:10014000070200080702000800000000000000008D
:10015000000000000000000000000000000000009F
:10016000000000000000000000000000070200087E
:10017000070200080000000000000000000000006E
:10018000000000000702000800000000000000005E
:10019000000000000000000000000000000000005F
:1001A000000000000000000007020008070200082D
:1001B000070200080702000807020008000000000C
:1001C000000000000702000800000000000000001E
:1001D0000702000807020008DFF80CD000F032FB2D
:1001E00000480047CD4C0008B8070020064880476B
:1001F00006480047FEE7FEE7FEE7FEE7FEE7FEE70C
:10020000FEE7FEE7FEE7FEE759340008D9010008E3
:100210002DE9F05F0546002092469B46884606463B
:10022000814640241BE0284641464746224600F0CE
:10023000CCF953465A46C01A914110D3114618467C
:10024000224600F0B3F92D1A67EB01084F4622460B
:100250000120002100F0AAF917EB00094E41201EF1
:10026000A4F10104DFDC484631462A464346BDE896
:10027000F09FD2B201E000F8012B491EFBD270477B
:100280000022F6E710B513460A4604461946FFF762
:10029000F0FF204610BD421C10F8011B0029FBD1C5
:1002A000801A70472DE9FE4F804681EA0300C00F97
:1002B0000C46009021F0004123F00045B8EB02000D
:1002C000A94105D24046214690461C460B460246AF
:1002D00023F00040104347D0270DC7F30A00C3F3B3
:1002E0000A510290401A019040286BDAC3F31300C0
:1002F00040F4801B0098924620B10023D2EB030A01
:1003000063EB0B0B01985946C0F14002504600F0D8
:100310004DF906460D4650465946019A00F065F9DA
:1003200010EB08006141002487EA115284EAE77368
:100330001A4340D0009A62B3019A012A4FEA075249
:1003400015DC001B61EB02014FF0004202EA07528C
:10035000CDE90042001C41F5801132462B4600F0E9
:100360009CF903B0BDE8F08F40462146F9E7001B39
:1003700061EB0201001C41F5801300185B4120185D
:10038000A2F5001747EB030140EAD570B6196D419D
:1003900011E06D084FEA360645EAC0754FEA07528C
:1003A000001B61EB0201001C41F5801149084FEA76
:1003B00030000019514132462B4603B0BDE8F04FE2
:1003C00000F05CB90098012240000023D0EB02024B
:1003D00063EBE073009821464FEAE074B8EB00004D
:1003E00061EB0401E9E783F000435BE781F0004142
:1003F00058E72DE9FE4F81EA030404F0004421F0A0
:10040000004100944FF0000B23F0004350EA010438
:100410005ED052EA03045BD0C3F30A54C1F30A5519
:100420002C44A4F2F3340194A0FB0254C1F3130151
:1004300041F48011C3F3130343F4801301FB02441E
:1004400000FB034E840A970A44EA815447EA835723
:10045000A4FB076802958D0A05FB07854FEA932CDC
:1004600004FB0C542705029D4FEA065847EA16374D
:10047000B5EB08056EEB070C870E920E47EA811765
:1004800042EA8312A7FB0201B6EB0B0164EB000406
:100490002B0D43EA0C335E1844EB1C50DA465146F0
:1004A000E7FB0201C5F313044FEA0B3343EA14538D
:1004B0004FEA0432019C43EA0603A4F10C040294BF
:1004C000009CCDE900B400F0E8F803B0BDE8F08F7F
:1004D00000200146F9E70EB540F2334102910021B8
:1004E000CDE900110A460B4600F0D7F803B000BD75
:1004F00000F0004230F000400AD0C10D01F56071FB
:10050000C0F3160042EA0151C20840071143704788
:10051000002001467047000030B5041E71F1000450
:1005200004DB4FF00044404264EB0101141E73F100
:10053000000405DB1C464FF00043524263EB04030A
:10054000994208BF904230BD01F0004330B421F021
:10055000004150EA010206D00A0DA2F56072C1F313
:100560001301002A02DC30BC00207047440F44EA2B
:10057000C104C100E01830BC00EBC25000F047B825
:1005800030B50B46014600202022012409E021FA63
:1005900002F59D4205D303FA02F5491B04FA02F560
:1005A0002844151EA2F10102F1DC30BD202A04DB33
:1005B000203A00FA02F1002070479140C2F1200376
:1005C00020FA03F3194390407047202A04DB203AB5
:1005D00021FA02F00021704721FA02F3D040C2F163
:1005E00020029140084319467047202A06DBCB17AA
:1005F000203A41FA02F043EAE07306E041FA02F3DE
:10060000D040C2F1200291400843194670470029AA
:10061000A8BF7047401C490008BF20F00100704788
:1006200010B4B0FA80FC00FA0CF050EA010404BFE8
:1006300010BC704749B1CCF1200421FA04F411FA3E
:100640000CF118BF012121430843A3EB0C01CB1D82
:100650004FEA00614FEA102042BF002010BC7047F3
:1006600000EBC35010440029A4BF10BC7047401CCD
:10067000490008BF20F0010010BC704710B5141EDF
:1006800073F1000408DA401C41F1000192185B414B
:100690001A4301D120F0010010BD2DE9F04D924622
:1006A0009B4611B1B1FA81F202E0B0FA80F2203239
:1006B0009046FFF77BFF04460F4640EA0A0041EAF6
:1006C0000B0153465A46084313D0114653EA010022
:1006D00019D0C8F140025046FFF777FF05460E4695
:1006E000504659464246FFF761FF084305D00120B6
:1006F00004E020463946BDE8F08D0020054346EA77
:10070000E0762C4337430A986305E40AA0EB08001F
:100710000022FD0A44EA47540A3002D5002001466F
:10072000E9E7010510196941DDE90845001969414A
:10073000BDE8F04DA2E72DE9F04D81EA030404F095
:10074000004B21F0004514464FF0000A23F0004111
:1007500050EA050220D054EA01021DD0C5F30A5721
:100760000246C5F31303C1F31300C1F30A5640F464
:10077000801543F48013A7EB0608101BD64608F239
:10078000FD3873EB050002D308F1010801E092186F
:100790005B41B8F1000F03DA00200146BDE8F08D9F
:1007A00000204FF48011064684460EE0171B73EBC1
:1007B000050705D3121B63EB050306434CEA010C46
:1007C00049084FEA300092185B4150EA0107EDD129
:1007D00052EA030012D082EA040083EA05010843CA
:1007E00005D0101BAB4106D20122002306E00022F7
:1007F0004FF0004302E06FF0010253101AEB0600C5
:100800004CEB085110EB0A0041EB0B01BDE8F04D39
:10081000FFF734BFC1F30A52C1F3130140F2FF33B3
:1008200041F480119A4202DA00200146704740F2FA
:1008300033439A42A2F2334202DC5242FFF7C5BE72
:10084000FFF7B4BE064C074D06E0E06840F0010338
:1008500094E8070098471034AC42F6D3FFF7C0FC89
:100860000C6000082C600008FEE7000070B50E4622
:1008700000250446294602F051FDA07CE27C303878
:1008800000EB80006FF02F0101EB400002441148A3
:1008900006EB860300EB8300437C9A420CDC0CD110
:1008A000227D637DA2F1300202EB820201EB420164
:1008B000827C1944914200DD0125217C627C303923
:1008C00001EB8101007C02EB4101081A2844303819
:1008D000C0B270BD0401002030B501460F4A0020AF
:1008E00000EB800312F82340012C11D102EB8303AB
:1008F0004C799D79AC420BD18C79DD79AC4207D132
:10090000CC791D7AAC4203D10C7A5B7A9C4203D03D
:10091000401C0828E4DB082030BD00000401002052
:1009200010B501224FF47F41074800F0EAFB074C65
:1009300001220421204600F0E4FB20460022BDE80D
:100940001040042100F0DDBB00080048000C004806
:1009500000B5084A002100BF01EB810312F82330E3
:1009600023B1491C0829F7DB002000BD02F0D6FCAA
:10097000012000BD04010020014800F0C3B90000BF
:10098000F8020020014800F0BDB900005803002023
:100990000D4902688A4201D20C4901E00B4920311D
:1009A000D2B21423083AB2FBF3F2436C02F01F02F6
:1009B00023F003031944816404498031C164012197
:1009C00091400165704700000804024000080240A1
:1009D0000179074A02EB81024265054A4432491E09
:1009E000826501F01F0201219140C165704700003E
:1009F000FC08024030B5D0E913456560446D14B180
:100A0000D0E91645656090F8444004F01F050124C4
:100A1000AC40056C6C60046863608368102B0368ED
:100A200003D099600068C26030BD9A600068C16000
:100A300030BD7047002240F6B83306E00021491C63
:100A400089B29942FBD3521C92B28242F6D37047CC
:100A500010B580B200F042F8BDE8104000F008B8D0
:100A600010B500F089F8BDE8104000F001B80000B2
:100A700010B51949002001F0E9FF17491820143179
:100A800001F0E4FF14493020283101F0DFFF124962
:100A900048203C3101F0DAFF0F496020503101F06D
:100AA000D5FF0D497820643101F0D0FF0A4990202C
:100AB000783101F0CBFF0849A8208C3101F0C6FF46
:100AC0000549C020A03101F0C1FF0349BDE8104035
:100AD000B431D82001F0BABF3C00002070B50C46FC
:100AE000054616460BA1114803F05EFC0F482A4646
:100AF0000FA1283003F058FC0C48224612A15030B8
:100B000003F052FC3246BDE87040084814A178302A
:100B100003F04ABC20202020202020446174612062
:100B20002020202020202020000000005000002055
:100B3000202020434E42523A2564202020202020AD
:100B40002020202000000000202020564E42523A53
:100B500025642020202020202020202000000000CC
:100B600020202049444C453A256420202020202084
:100B7000202020200000000010B52DED028BB0EEEB
:100B8000608AF0EE408A13A1184803F00DFC18EEBD
:100B9000900AFFF7ADFC41EC100B144853EC102BFE
:100BA00013A1283003F000FC18EE100AFFF7A0FC98
:100BB00041EC100B0D4853EC102B13A1503003F0F7
:100BC000F3FBBDEC028B16A10848BDE8104078305D
:100BD00003F0EABB202020202020205061726120F9
:100BE0002020202020202020000000005000002095
:100BF000202020434E42523A252E326620202020CB
:100C00002020202000000000202020564E42523A92
:100C1000252E3266202020202020202000000000E9
:100C200020202020202020202020202020202020C4
:100C300020202020000000007047427A00213A2A3C
:100C40000FD102793A2A0CD101210A2200E0521C6C
:100C5000835C303B092B01D8152AF8DD162A11D107
:100C6000491C0278562A01D0432A09D142784E2ADB
:100C700006D18278422A03D1C078522800D1491C7B
:100C8000032901D0002070470120704770B590F80B
:100C90002520002401212346022A07D00422C26312
:100CA00080F8251080F82430012429E002681568B6
:100CB00025F00E0515600268156825F00105156020
:100CC000826C156825F48075156090F84420056CD9
:100CD00002F01F0201FA02F26A60D0E913255560A2
:100CE000426D32B1156825F480751560D0E916257E
:100CF000556080F8251080F82430816B01B1884759
:100D0000204670BDF0B4016C0C6801680D6890F865
:100D1000442002F01F06042202FA06F3234211D0F7
:100D20006B070FD50B689B0603D40B6823F00403F5
:100D30000B6090F8441001F01F018A40016C4A607A
:100D4000016B1DE0022303FA06F727424FF0000C67
:100D50004FF0010218D0AF0716D50C68A40605D4D1
:100D60000C6824F00A040C6080F8252090F84410E8
:100D700001F01F018B40016C4B6080F824C0C16AF8
:100D800000291AD0F0BC08470823B340234214D0EE
:100D90002B0712D50B6823F00E030B6090F844105C
:100DA000036C01F01F0102FA01F15960C26380F87F
:100DB000252080F824C0416BE2E7F0BC70470000BA
:100DC00070B504000CD02B4A21681420914209D23E
:100DD000294A0A44B2FBF0F08000606427480AE028
:100DE000012070BD234A52420A44B2FBF0F0800059
:100DF0006064204808382064022084F825000A68CE
:100E000047F6F0708243D4E902031843D4E904356D
:100E10002B431843A3691843E3691843236A184313
:100E2000104308602046FFF7B3FDA0680025B0F529
:100E3000804F00D16560A16C20790860D4E913016E
:100E400041606068401E032808D82046FFF7C0FDB7
:100E5000606D0560D4E91601416002E06565A56535
:100E6000E565E563012084F8250084F8245000201E
:100E700070BD000008040240F8FFFDBF0000024002
:100E800070B5044690F82400002501280CD00120FC
:100E900084F8240094F825600020012E06D084F800
:100EA00024000225284670BD022070BD022684F869
:100EB0002560E0632068066826F00106066020468B
:100EC000FFF798FD206B00282068016802D041F0F0
:100ED0000E0106E021F0040101602068016841F084
:100EE0000A010160A06C0168C90303D5016841F4DF
:100EF00080710160606D18B1016841F4807101601A
:100F00002068016841F001010160CBE770B504463B
:100F100000F0FCF80546601C02D004484068044418
:100F200000F0F4F8401BA042FAD370BD2C00002062
:100F30002DE9FC4FDFF8A0A1002301250AF1040BE5
:100F400003244FF00F0C0BF1040EBDE005FA03F67D
:100F500032406FD04F68012F05D0022F03D0112FE0
:100F600001D0122F17D1D0F808905F0004FA07F8CB
:100F700029EA08090097D1F80C8008FA07F848EA2E
:100F80000908C0F808804768B7430E79C6F3001611
:100F90009E403E434660C6684FEA430804FA08F79D
:100FA000BE4301978F6807FA08F73743C7604E685A
:100FB000022E01D0122E13D1DE0800EB8606009619
:100FC000366A5F07FF0E0CFA07F926EA0906D1F820
:100FD000109009FA07F949EA0609009EC6F8209020
:100FE0000668019FBE430F7907F0030707FA08F769
:100FF000374307604E68F60065D5384E376E47F0C8
:1010000001073766366E23F0030706F001060096E7
:10101000334E3E44B146B6689F074FEA17780CFA44
:1010200008F7BE43B0F1904F05D02E4FB84204D11F
:10103000012717E047E0002714E02B4FB84201D109
:1010400002270FE0294FB84201D103270AE0284FB9
:10105000B84201D1042705E0264FB84201D1052747
:1010600000E0062707FA08F73743C9F80870DAF8EE
:1010700000605746D1F8048096435FEAC83800D52F
:1010800016433E60DBF800605F46D1F8048096436B
:101090005FEA883800D516433E60DEF80060774688
:1010A000D1F8048096435FEAC82800D516433E6015
:1010B000094F0C373E68D1F8048096435FEA8828D0
:1010C00000D516433E605B1C0A6832FA03F67FF4D3
:1010D0003DAFBDE8FC8F000000040140001002405D
:1010E000000001400004004800080048000C0048CF
:1010F00000100048001400480069084000D001209A
:1011000070470AB181617047816270470148806809
:10111000704700002C00002002488168426811449A
:10112000816070472C00002010B50024032000F0DF
:1011300077F8002000F008F808B1012401E000F081
:1011400025F8204610BD000070B50E4E054600245F
:10115000706898B14FF47A71B1FBF0F00A490968F0
:10116000B1FBF0F000F060FD40B9102D06D2002276
:101170002946501E00F034F8356000E00124204676
:1011800070BD00002C000020380000200B4808B57E
:10119000016E41F001010166016E01F00101009153
:1011A000816D41F080518165806D00F0805000902C
:1011B0000348816841F48041816008BD001002400D
:1011C00000700040002809DB00F01F02012191405F
:1011D0004009800000F1E020C0F8001170470000D5
:1011E000F0B40E4B1B680C46C3F30223C3F1070592
:1011F000042D00D90425191D072901D2002300E080
:10120000DB1E012606FA05F1491E214099409E4049
:10121000761E16403143F0BC03F0DAB80CED00E066
:10122000064900F0070208684FF6FF03184040EA3D
:101230000220034A10430860704700000CED00E0F4
:101240000000FA052B492C4B0A6832214A432B49EE
:1012500040B1B0F5007F086829D020F4C06040F4A8
:1012600080602CE00868C0F34120022804D051F8C7
:10127000800F20F4807022E0D1F8800020F480708C
:10128000C1F88000086820F4C06040F40070086075
:10129000B2FBF3F0401C00E0401E4A69520501D544
:1012A0000028F9D1486940050AD503207047C0F3EA
:1012B0004120022806D051F8800F40F48070086069
:1012C00000207047D1F8800040F48070C1F88000A1
:1012D000086820F4C06040F400700860B2FBF3F0CE
:1012E000401C00E0401E4A695205DBD50028F9D1B8
:1012F000D8E700003800002040420F000070004096
:101300002DE9F8430446006800269D4D00035ED594
:10131000A86D0027C00008D4A86D40F08050A865D3
:10132000A86D012700F080500090DFF85892D9F89E
:10133000001041F48071C9F80010FFF7E7FE804605
:1013400006E000BFFFF7E2FEA0EB080002282BD862
:10135000D9F80000C005F5D5D5F8900010F440701C
:1013600014D0216C814211D0D5F89000D5F890109E
:1013700020F4407041F48031C5F89010D5F89010F9
:1013800021F48031C5F89010C5F89000C00711D045
:10139000FFF7BCFE804641F2883907E0FFF7B6FE52
:1013A000A0EB0801494501D903260BE0D5F89000D0
:1013B0008007F3D5D5F89000216C20F440700843E5
:1013C000C5F890001FB1A86D20F08050A865207866
:1013D000C00707D0D5F88800616820F003000843F3
:1013E000C5F888002078800707D5D5F88800A1685F
:1013F00020F00C000843C5F888002078400707D586
:10140000D5F88800E16820F030000843C5F888006E
:101410002078000707D5D5F88800216920F0C000A2
:101420000843C5F888002078800607D5D5F88800DD
:10143000616920F440600843C5F8880020784006C0
:1014400007D5D5F88800A16920F440500843C5F8B5
:1014500088002078000607D5D5F88800E16920F4D7
:1014600040400843C5F888002088C00507D5D5F856
:101470008800216A20F440300843C5F8880020889D
:10148000800507D5D5F88800616A20F4402008431C
:10149000C5F88800208840050FD5D5F88800A16AD6
:1014A00020F440100843C5F88800A06AB0F5801FFA
:1014B00003D1E86840F48010E860208800050FD56B
:1014C000D5F88800E16A20F440000843C5F8880098
:1014D000E06AB0F5800F03D1E86840F48010E8605E
:1014E0002088C0040FD5D5F88800216B20F040700B
:1014F0000843C5F88800206BB0F1807F03D1E8680D
:1015000040F48010E86020884FF0006180040ED520
:10151000D5F88800626B20F040601043C5F8880061
:10152000606B884203D1E86840F48010E86020884E
:1015300040040ED5D5F88800A26B20F0406010431F
:10154000C5F88800A06B884203D1E86840F4801099
:10155000E860208800040FD5D5F88800E16B20F002
:1015600040500843C5F88800E06BB0F1805F03D1BC
:10157000E86840F48030E8603046BDE8F883000059
:1015800000100240007000402DE9F0470E460500B3
:101590004FF0000725D0DFF8AC81D8F8000000F04C
:1015A0000F00B0420CD2D8F8001021F00F013143E7
:1015B000C8F80010D8F8000000F00F00B04210D1B9
:1015C0002968614CC80741F2883A5AD06868DFF848
:1015D0007C91032808D0022820682DD040050028DF
:1015E0002CDB0120BDE8F08720688001F9D5E06898
:1015F00000F00302E068C0F30310401C032A19D076
:10160000534A00BFB2FBF0F0E268C2F30622504337
:10161000E268C2F34162521C5200B0FBF2F048454E
:1016200017D9A06810F0F00F0CD0880711D5A86862
:1016300040B10EE0474AE5E78003D0E700F0B6F896
:10164000484506D9A06820F0F00040F08000A06076
:101650008027A068696820F003000843A060FFF7B6
:1016600055FD814606E000BFFFF750FDA0EB0901E4
:1016700051453AD8A068696800F00C00B0EB810FC2
:10168000F2D12868810714D5400703D5A06840F43B
:10169000E060A0602878000705D5A06820F46050BD
:1016A00040F4E060A060A068A96820F0F000084362
:1016B00004E0802F03D1A06820F0F000A060D8F8EB
:1016C0000010404601F00F01B14216D9016821F027
:1016D0000F0131430160FFF719FD074607E000BF26
:1016E000FFF714FDC11B514501D903207AE7D8F853
:1016F000000000F00F00B042F2D12878400705D575
:10170000A068E96820F4E0600843A060287800073A
:1017100006D5A068296920F4605040EAC100A060A5
:1017200000F044F8A1680C4AC1F30311515C01F0C8
:101730001F01C8400949086009480068BDE8F04732
:10174000FFF702BD002002400010024000B4C404B4
:101750000024F40000366E01F45F00083800002019
:101760002C0000200548064900688968054AC1F335
:101770000221515C01F01F01C84070473800002071
:1017800000100240046000080548064900688968A6
:10179000054AC1F3C221515C01F01F01C8407047E6
:1017A000380000200010024004600008184910B5FD
:1017B0008868C0F381021748012A0BD08A68164B4B
:1017C000C2F38102022A06D08A68C2F38102032A88
:1017D00003D0002010BD184610BDCA6802F00304F3
:1017E000CA68C2F30312521C032C02D0B0FBF2F001
:1017F00001E0B3FBF2F0CA68C968C2F306225043A5
:10180000C1F34161491C4900B0FBF1F010BD00007B
:10181000001002400024F40000366E012DE9F84368
:1018200004007AD02078FA4DC00747D0A868E9684C
:1018300000F00C0001F003010C2802D0082817D09A
:1018400001E0032914D06068B0F5803F17D0B0F5EF
:10185000A02F286817D020F480302860286820F452
:10186000802028606068E0B1FFF750FC064614E075
:101870002868800322D560680028D2D01EE028683E
:1018800040F48030EDE740F480202860F7E700BFA7
:10189000FFF73CFC801B642870D828688003F7D5CC
:1018A0000CE0FFF733FC064605E000BFFFF72EFC17
:1018B000801B6428F0D828688003F7D4207880073C
:1018C0004CD5A868E96800F00C0001F003010C2871
:1018D00002D004280DD001E002290AD0E0680028D7
:1018E00028682BD040F480702860FFF70FFC064674
:1018F00019E02868400502D5E068002891D06868A2
:10190000217C20F0FE4040EA01606860C148006828
:10191000FFF71AFC002800D120E076E1FFF7F6FB84
:10192000801B0228B8D828684005F7D56868217C54
:1019300020F0FE4040EA016068600FE020F4807013
:101940002860FFF7E3FB064605E000BFFFF7DEFB7C
:10195000801B0228A0D828684005F7D4207800070B
:1019600029D560690028D5F8940013D040F0010013
:10197000C5F89400FFF7CAFB064606E090E000BFFA
:10198000FFF7C4FB801B022886D8D5F89400800797
:10199000F6D510E020F00100C5F89400FFF7B6FB83
:1019A000064604E0FFF7B2FB801B022878D8D5F882
:1019B00094008007F6D42078400761D5A86D0026F2
:1019C000C00008D4A86D40F08050A865A86D01261D
:1019D00000F08050009090480168C90511D401685A
:1019E000804641F480710160FFF790FB074604E0F8
:1019F000FFF78CFBC01B022852D8D8F80000C005A6
:101A0000F6D5A068012815D00528D5F8900016D085
:101A100020F00100C5F89000D5F8900020F00400F7
:101A2000C5F89000A06841F28838B8B1FFF76EFBA6
:101A300007460EE0D5F8900040F00100F0E740F0D6
:101A40000400C5F89000F5E7FFF760FBC11B4145B6
:101A500026D8D5F890008007F6D50CE0FFF756FBA6
:101A6000074604E0FFF752FBC11B414518D8D5F8E3
:101A700090008007F6D41EB1A86D20F08050A865B4
:101A80002078800629D5A0690028D5F8980013D0C1
:101A900040F00100C5F89800FFF738FB064606E065
:101AA00077E000BFFFF732FB801B022877D8D5F81C
:101AB00098008007F6D510E020F00100C5F89800E6
:101AC000FFF724FB064604E0FFF720FB801B0228FB
:101AD00065D8D5F898008007F6D4E069F0B3A96816
:101AE000C1F38101032961D00228286820F08070A9
:101AF00028600BD0E86820F00300E860E8684749F8
:101B00000840E860FFF702FB04464BE0FFF7FEFAEF
:101B1000064604E0FFF7FAFA801B02283FD828683F
:101B20008001F7D4F4E908016FF00F0202EB011114
:101B30000843218A5204490802EB4151A26841EA54
:101B400002210843217D4FF07E42490802EB4161AA
:101B50000843217B40EAC160E96800E062E0304A66
:101B600011400843E860286840F080702860E86809
:101B700040F08070E860FFF7C9FA044605E000BF56
:101B8000FFF7C4FA001B022809D828688001F7D59E
:101B900048E004E0FFF7BAFA001B022802D903204C
:101BA000BDE8F88328688001F4D43BE00128F7D031
:101BB000E868226A00F00301914226D1616A00F0D0
:101BC000F0020901103991421FD1A26A00F4FE41CE
:101BD000B1EB022F19D194F82C2000F07841B1EB31
:101BE000C26F12D1218E00F4C00249084905A1F547
:101BF0000011914209D194F8341000F0C0604908F6
:101C00004906A1F1007181420CD00120C8E7000013
:101C1000001002402C00002000700040FFFFEEFE8C
:101C20000C809F010020BBE710B5401EB0F1807F03
:101C300001D3012010BD4FF0E02460610F21601737
:101C400002F0C6FB0020A06107202061002010BD2B
:101C5000F0B590F83C20012A3AD0012580F83C509C
:101C6000022280F83D2003685A689C68194E1A4F7A
:101C7000B34201D0BB4204D122F4700C4A6842EA5C
:101C80000C02DFF858C002EA0C02D1F800C04CEA9E
:101C9000020CC3F804C00268B2420DD0B2F1804F0A
:101CA0000AD00F4B9A4207D00E4B9A4204D0BA4248
:101CB00002D00D4B9A4204D1896824F08003194365
:101CC000916080F83D50002180F83C100846F0BD3E
:101CD0000220F0BD002C0140003401408FFFFFFDC9
:101CE00000040040000800400040014010B504001E
:101CF00003D094F83D0010B107E0012010BD002092
:101D000084F83C00204600F023F8022084F83D00CF
:101D1000211D206801F0AEFB012084F8480084F802
:101D20003E0084F83F0084F8400084F8410084F8C5
:101D3000420084F8430084F8440084F8450084F8A5
:101D4000460084F8470084F83D00002010BD0000E4
:101D500008B500680649884208D10648816D41F0FF
:101D600002018165806D00F00200009008BD000056
:101D7000000400400010024070B5044690F83C009A
:101D8000012815D0012584F83C50022084F83D003C
:101D900022689068354B184020F47F4090600868B6
:101DA000B0F5805F50D010DC10F00F0F03D04BE087
:101DB0004FF0020070BD4FEA2012082A44D2DFE83B
:101DC00002F05151515149323A1B294BC21A9842E3
:101DD00048D00ADCB0F5005F19D0B0F1101F41D037
:101DE000A0F5801120392FD13CE0102A3AD0302ABA
:101DF00038D0402A28D135E0CB68D1E901212068CC
:101E000001F09DFB2068816841F0770109E0CB6813
:101E1000D1E90121206801F092FB2068816841F43A
:101E20008041816010E0CA684968206801F032FD95
:101E30005021206806E0CA684968206801F03BFD2F
:101E40006021206801F086FB84F83D50002084F872
:101E50003C0070BDCA684968206801F01BFD402144
:101E60002068EFE7226801461046EBE788FFCEFFC7
:101E70003000100010B586B0044614216846FEF705
:101E8000FFF90E492068884215D10D48C16C41F018
:101E90000101C164C06C002100F0010005908020A8
:101EA00000900220CDE90101CDE9031069464FF011
:101EB0009040FFF73DF806B010BD00000004004060
:101EC0000010024070B5044690F83C000D46012811
:101ED0000BD0012084F83C000C2A45D007DC5AB115
:101EE000042A1BD0082A78D12CE0022070BD102AC9
:101EF0004ED0142A71D15DE0206801F035FB2068D6
:101F0000816941F0080181612068816921F0040143
:101F10008161206881692A69114311E0206801F01C
:101F200071FB2068816941F40061816120688169E9
:101F300021F480618161206881692A6941EA022176
:101F400081614AE0206801F0A5FB2068C16941F089
:101F50000801C1612068C16921F00401C1612068E4
:101F6000C1692A69114311E0206801F0DBFB206898
:101F7000C16941F40061C1612068C16921F48061D7
:101F8000C1612068C1692A6941EA0221C16124E076
:101F9000206801F00FFC2068016D41F00801016527
:101FA0002068016D21F0040101652068016D2A6936
:101FB000114311E0206801F035FC2068016D41F407
:101FC000006101652068016D21F480610165206870
:101FD000016D2A6941EA02210165002084F83C0074
:101FE00070BD10B5040003D094F83D0010B107E0B7
:101FF000012010BD002084F83C00204600F022F8AB
:10200000022084F83D00211D206801F033FA0120F0
:1020100084F8480084F83E0084F83F0084F84000CB
:1020200084F8410084F8420084F8430084F84400B6
:1020300084F8450084F8460084F8470084F83D00A1
:10204000002010BD7047000010B50446022269B19F
:10205000042912D0082917D00C291CD0102921D00E
:1020600094F84300012824D0012010BD94F83E00CC
:102070000128F9D184F83E201DE094F83F000128A2
:10208000F2D184F83F2016E094F840000128EBD10B
:1020900084F840200FE094F841000128E4D184F84E
:1020A000412008E094F842000128DDD184F8422064
:1020B00001E084F843200122206801F033FA11493D
:1020C000206888420BD01049884208D00F498842C6
:1020D00005D00F49884202D00E49884203D1416C95
:1020E00041F400414164206881680B4A114006298F
:1020F00006D0B1F5803F03D0016841F001010160D5
:10210000002010BD002C014000340140004001407F
:1021100000440140004801400700010090F87C1095
:10212000012918D0012180F87C102421C0F88010EA
:1021300050F8601B0A680B6823F001030B6022F063
:1021400000510022426050F8603C19602021016279
:1021500002771046704702207047704770B50446FA
:1021600090F87C0001281DD0012084F87C002420F8
:10217000C4F8800020680568026822F0010202604D
:102180002068826822F060620A438260204601F083
:10219000A5FB206805602020C4F88000002084F89A
:1021A0007C0070BD022070BD70B5044690F87C00C4
:1021B00001281DD0012084F87C002420C4F8800070
:1021C00020680568026822F00102026020688268C7
:1021D00022F060420A438260204601F07FFB2068C3
:1021E00005602020C4F88000002084F87C0070BDC9
:1021F000022070BD70477047704700002DE9F04124
:1022000003680446D8691A68996810F00F0F4FF0F8
:10221000000569D05E4E02F490770E4037437DD0C2
:10222000C70709D0D70507D501271F62D4F8883022
:1022300043F00103C4F8883083070AD5CB0708D0E0
:10224000276802233B62D4F8883043F00403C4F8C3
:10225000883043070AD5CB0708D0276804233B62A0
:10226000D4F8883043F00203C4F8883003070CD553
:1022700002F02003334308D0266808233362D4F8E1
:10228000883043F00803C4F88830D4F88830002B35
:102290003CD0800609D502F0200001F080510843AF
:1022A00003D0E16E09B120468847D4F88800216840
:1022B0008968490601D400072AD5204601F046FC6A
:1022C0002068816849061ED5816821F0400181603F
:1022D000A06FC0B12F498163A06FFEF7D7FC002823
:1022E00014D0A06F816B0AE0860617D502F0200695
:1022F00001F080573E4311D0E16E24E02046BDE856
:10230000F04108470AE02046FFF776FFBDE8F0817C
:102310002046FFF771FFC4F88850F7E7C60209D5D9
:102320004E0207D54FF4801018622046BDE8F041F8
:10233000FFF761BF060609D502F0800601F400012F
:102340000E4303D0216F0029D8D1DFE741060DD518
:1023500051060BD51968204621F040011960202153
:10236000C4F88010256700F0AFF9CFE7010206D569
:10237000510004D52046BDE8F041FFF73BBFC00146
:10238000C4D5002AC2DA2046BDE8F041FFF7E5BE19
:1023900001000010673A000810B5040003D0D4F81B
:1023A000800010B107E0012010BD002084F87C00FF
:1023B000204600F027F82420C4F880002068016837
:1023C00021F001010160204601F0E0FB0128EBD083
:1023D000A06A10B1204601F0B3FA2068416821F4E8
:1023E000904141602068816821F02A018160206865
:1023F000016841F0010101602046BDE8104001F094
:1024000003BB0000F0B587B0064614216846FDF70F
:1024100037FF2D493068884254D12C48016E41F471
:1024200080410166016E01F480410591C16C41F06B
:102430000101C164C06C002400F0010005904FF45C
:10244000C06000900220CDE901040720CDE90340DF
:1024500069464FF09040FEF76BFD1E4D1C488027EB
:1024600028601820C5E90104C5E903476C61AC6127
:10247000EC6128462C62FEF7A3FC08B1FEF7DCFBFA
:10248000B567AE62134D12486035143028601920CC
:10249000686005F10801102081E891006C61AC6171
:1024A000EC6128462C62FEF78BFC08B1FEF7C4FBFA
:1024B0007567002211462520AE62FEF791FE2520A9
:1024C000FEF780FE07B0F0BD00380140001002406A
:1024D00008000240F802002070B50446D0F88400DD
:1024E000202842D161B35AB394F87C0001283CD033
:1024F000012084F87C00A165A4F85C200025C4F8C4
:1025000088502220C4F88400A06FD8B11849C16255
:10251000A16F184813460863A16F17484863A06F5E
:102520008563A66D216832462431A06FFEF7A8FCB2
:1025300040B11020C4F8880004F87C5F202060605F
:10254000012070BD84F87C502068016841F48071DE
:1025500001602068816841F0010181602068816824
:1025600041F040018160002070BD022070BD00007C
:10257000CB3A0008093B00087B3A000810B5162248
:102580002DED028B24492548FFF7A6FF2248FEF7D0
:1025900054FB234C80B12048FEF79EF9C1B21E487F
:1025A000E170082905D0FEF761F9E17800F072FECC
:1025B00007E0FEF7CDF904E00B221AA1174800F05E
:1025C00037F8207850B9E188A288C1F10800801A54
:1025D00082B21148A038C07BFEF73AFA2078012871
:1025E00017D194ED040B51EC100BFDF7ADFF94EDFA
:1025F000020B08EE100A51EC100BFDF7A5FFF0EEF0
:10260000480ABDEC028B00EE100ABDE81040FEF750
:1026100027BABDEC028B10BDA40100206C02002083
:10262000100000204572726F720D0A0070470000A2
:1026300070B50446D0F8800020283DD171B36AB34C
:1026400094F87C00012837D0012084F87C002165B3
:10265000A4F85420A4F856200025C4F8885021205E
:10266000C4F88000606FD8B11449C162616F14482A
:1026700013460863616F13484863606F856326687B
:10268000216D06F12802606FFEF7FAFB40B11020C1
:10269000C4F8880004F87C5F20206060012070BDD1
:1026A00021684020086284F87C502068816841F0ED
:1026B00080018160002070BD022070BD133B0008C6
:1026C000433B00087B3A000870477047FEE7000074
:1026D00000200549024600BF00EB8003401C01F8C2
:1026E00023200828F8DB70470401002010B53E487D
:1026F0003E4C2DED068B01780020012916D0224694
:102700009FED3B8B92ED049B022917D0032933D018
:10271000042908D1A17871B300223749A270096851
:1027200002B164208863BDEC068B10BD2178491C82
:10273000C9B221700229F6D12070F4E794ED020BA2
:1027400053EC182B51EC100BFDF7ACFD41EC1A0BC0
:1027500053EC182B84ED02AB51EC190BFDF7A2FDE5
:1027600041EC100B84ED040BFDF7EEFE08EE100AB1
:1027700051EC1A0B29E034E09FED200B51EC190BC2
:1027800053EC102BFDF7C8FE13D294ED020B53EC63
:10279000182B51EC100BFDF726FEC4E9020194ED55
:1027A000040B53EC182B51EC100BFDF71CFEC4E985
:1027B000040194ED040B51EC100BFDF7C5FE94EDF4
:1027C000020B08EE100A51EC100BFDF7BDFEF0EE07
:1027D000480ABDEC068B00EE100ABDE81040FEF77B
:1027E0003FB9012299E700000800002010000020F6
:1027F000000000000000E03F200200200000000078
:10280000000000000F48002102780F48012A0FD075
:10281000022A0CD0032A0AD0042A08D182787AB17D
:10282000002282700948006802B164218163704708
:102830000278521CD2B20270022AF8D1017070479D
:102840000122EEE7080000201000002020020020F6
:102850002DE9F047314CDFF8C880012520784FF092
:102860009049D0B1002601282FD002282BD1012178
:102870004046FEF741FCE8B302214046FEF73CFC2F
:10288000C0B304214046FEF737FC98B30121484607
:10289000FEF732FC70B3657030E001214046FEF770
:1028A0002BFC78B102214046FEF726FC50B10421F2
:1028B0004046FEF721FC28B101214846FEF71CFCEA
:1028C000002800D12570BDE8F0870227277001217C
:1028D0004046FEF711FC98B1022145464046FEF7FE
:1028E0000BFC78B104212846FEF706FC60B10121FB
:1028F000484600E00DE0FEF7FFFB38B12670E2E746
:10290000A570E0E7A770DEE7032000E00420A070D8
:10291000D9E7A0880A30A080D5E700000600002093
:102920000004004800B585B014216846FDF7A8FCF6
:102930004FF6FF70009000200321CDE902010190C5
:1029400069460248FEF7F4FA05B000BD00080048E9
:1029500000B585B014216846FDF792FC4FF6FF7074
:10296000009001200190032003900020029069460E
:102970000248FEF7DDFA05B000BD0000000800487F
:1029800070B5002406462146204600F003F900F009
:1029900041F94FF49635304600F010F9641CAC4212
:1029A000F9D370BD30B587B014216846FDF768FCD7
:1029B0001E48C16C41F00401C164C16C01F0040106
:1029C0000591C16C41F00101C164C16C01F00101CC
:1029D0000591C16C41F00201C164C06C012500F099
:1029E000020005904FF44870CDE9000500240394DF
:1029F000694602940E48FEF79BFA28020394009061
:102A0000CDE901544FF0904469462046FEF790FA14
:102A1000FFF79EFFA06940F48070A0610448183061
:102A2000016841F40871016007B030BD0010024038
:102A300000040048203AD2B2034B02EB420203EBFF
:102A4000021200F019B80000244E0008F0B50E463E
:102A50000746002540F23F1407E021463846FFF7BD
:102A6000E9FF103C6D1CA4B2761C3278002A01D01C
:102A7000142DF2D3F0BD00002DE9F04791468A46AF
:102A80000026044600F086F8DFF84080012700BFEA
:102A900000F0C0F85FF0000539F8160007FA05F1FC
:102AA0000842404601D1408800E0008800F086F8E6
:102AB0006D1C102DF0D3641CE4B25146204600F08A
:102AC00069F8761C182EE3D3BDE8F08700000020DB
:102AD00010B5FFF767FF002000F014F8084CA08045
:102AE000A088A0F50241303906D000F0D1FA0020CC
:102AF00000F008F8A08010BD00F041FAF7E70000F0
:102B00000000002070B51D490A6842F400720A6096
:102B10000A6842F480720A60184C103C226842F045
:102B200020022260164A1060086840F02000086009
:102B300000BF00BF00BF206840F020002060206878
:102B400040F480702060FFF7EDFE4FF09041886AFE
:102B500040F48070886200BF00BF00BF0848001FBB
:102B6000006885B2886940F480708861FFF7F0FEE4
:102B7000206840F400702060284670BD280400489A
:102B80001408004801B5BDF800000149488008BD9F
:102B90000000002010B50C460146202000F068F827
:102BA0002146BDE81040212000F062B801B5BDF813
:102BB00000000149088008BD00000020134A116888
:102BC00041F400711160114910390B6843F48073AE
:102BD0000B600B6843F020030B600D4B186010680E
:102BE00040F02000106000BF00BF00BF086840F048
:102BF00020000860086840F48070086000BF00BFD3
:102C000000BF086840F4007008607047280400485E
:102C1000140800481449086840F400700860086807
:102C200040F48070086010481038026842F02002BA
:102C300002600E4B22221A600A6842F020020A60EB
:102C400000BF00BF00BF016841F0200101600168C2
:102C500041F48071016000BF00BF00BF016841F412
:102C60000071016070470000280400481408004803
:102C7000184B10B51A6842F400721A601A6842F4D0
:102C800080721A60134A103A146844F020041460E9
:102C9000114C2060186840F02000186000BF00BF91
:102CA00000BF106840F020001060106840F4807091
:102CB00010602160186840F02000186000BF00BF5D
:102CC00000BF106840F020001060106840F4807071
:102CD000106010BD280400481408004870B5194958
:102CE000002000BF00EB800211F822203AB300243C
:102CF000401C0828F6DB144D01224FF47F41284682
:102D0000FEF7FFF9114E012204213046FEF7F9F9D2
:102D10002CB100224FF480712846FEF7F2F90C48DE
:102D2000807828B100224FF400712846FEF7E9F9B7
:102D30003046BDE8704000220421FEF7E2B90124CC
:102D4000D9E700000401002000080048000C0048FA
:102D500010000020114808B5816C41F00401816425
:102D6000816C01F004010091816C41F001018164EA
:102D7000806C002200F00100009011460B20FEF74D
:102D80002FFA0B20FEF71EFA002211460C20FEF748
:102D900027FABDE808400C20FEF714BA00100240E4
:102DA000F0B587B014216846FDF76AFA2D48C16C6A
:102DB00041F00401C164C16C01F004010591C16CD2
:102DC00041F02001C164C16C01F020010591C16C8A
:102DD00041F00101C164C16C01F001010591C16CB8
:102DE00041F00201C164C16C01F002010591C16CA6
:102DF00041F00801C164C06C1B4E00F008004FF4A4
:102E00007F440590002221463046FEF77AF9174F9D
:102E1000002204213846FEF774F90125CDE900456A
:102E200000240294694630460394FEF781F8CDE908
:102E3000005469464FF090400294FEF779F807205D
:102E4000CDE9000469460A480294FEF771F80420AF
:102E50000090CDE90154694638460394FEF768F8BE
:102E600007B0F0BD0010024000080048000C004808
:102E70000004004810B58EB000240794089409940B
:102E80000A940B940C941C2168460D94FDF7F8F9F4
:102E90001E481D4901604F21C0E901144FF4FA7129
:102EA000C0E903148461FEF721FF08B1FDF7C4FEF9
:102EB0004FF48050079007A91448FEF75DFF08B152
:102EC000FDF7BAFE1148FFF78CF808B1FDF7B4FE24
:102ED0000B940BA90D480D94FEF7BAFE08B1FDF74F
:102EE000ABFE602000906420CDE901040422694615
:102EF00006480494FEF7E6FF08B1FDF79DFE03487F
:102F0000FEF7B8FF0EB010BD000400402002002004
:102F1000184810B5164901604FF416514160002160
:102F200081600C22C160C0E904128161C16101624B
:102F300041628162FFF730FA08B1FDF77DFE0021A2
:102F40000C48FFF731F908B1FDF776FE002109487A
:102F5000FFF704F908B1FDF76FFE0648FFF7DEF84A
:102F6000002803D0BDE81040FDF766BE10BD00008C
:102F7000003801406C020020FEE77047704730B512
:102F800001210020FFF774FE4FF47A70FDF752FD27
:102F900000210120FFF76CFE41F290711020FFF735
:102FA00067FE4FF41C516020FFF762FE0121612093
:102FB000FFF75EFE02214620FFF75AFE48F210019D
:102FC0001320FFF755FE48F2FE011220FFF750FED6
:102FD0004FF4A0610220FFF74BFE41F230010320C5
:102FE000FFF746FE40F2033421463020FFF740FE53
:102FF00021463120FFF73CFE21463220FFF738FE04
:10300000E51E29463320FFF733FE03213420FFF766
:103010002FFE21463520FFF72BFE14213620FFF727
:1030200027FE21463720FFF723FE21463820FFF7F1
:103030001FFE21463920FFF71BFE29463A20FFF7E5
:1030400017FE03213B20FFF713FE21463C20FFF72C
:103050000FFE4FF4A0513D20FFF70AFE4FF4007120
:103060009220FFF705FE21469320FFF701FE40F670
:103070000D019020FFF7FCFD41F218010320FFF73E
:10308000F7FDBDE8304040F273110720FFF7F0BDB7
:1030900010B543F20801E320FFF7EAFD1221E72013
:1030A000FFF7E6FD41F23121EF20FFF7E1FD0021BE
:1030B0000120FFF7DDFD4FF4E0610220FFF7D8FDAE
:1030C00041F230010320FFF7D3FD00210420FFF778
:1030D000CFFD40F207210820FFF7CAFD002109209B
:1030E000FFF7C6FD00210A20FFF7C2FD00210C20DA
:1030F000FFF7BEFD00210D20FFF7BAFD00210F20D4
:10310000FFF7B6FD00211020FFF7B2FD07211120C7
:10311000FFF7AEFD00211220FFF7AAFD00211320CA
:10312000FFF7A6FDC820FDF7F1FE41F290611020E7
:10313000FFF79EFD40F227211120FFF799FD322075
:10314000FDF7E4FE1D211220FFF792FD3220FDF76E
:10315000DDFE4FF400611320FFF78AFD14212920C2
:10316000FFF786FD0B212B20FFF782FD3220FDF7B4
:10317000CDFE00212020FFF77BFD00212120FFF75D
:1031800077FD07213020FFF773FD40F207713120F2
:10319000FFF76EFD06213220FFF76AFD40F2047151
:1031A0003520FFF765FD41F604713620FFF760FD1D
:1031B00004213720FFF75CFD00213820FFF758FD80
:1031C00040F206713920FFF753FD40F201713C20B7
:1031D000FFF74EFD0F213D20FFF74AFD0021502053
:1031E000FFF746FDEF215120FFF742FD002152205D
:1031F000FFF73EFD40F23F115320FFF739FD4FF43A
:103200001C516020FFF734FD01216120FFF730FDE4
:1032100000216A20FFF72CFD00218020FFF728FD08
:1032200000218120FFF724FD00218220FFF720FDEF
:1032300000218320FFF71CFD00218420FFF718FDEB
:1032400000218520FFF714FD10219020FFF710FDCD
:1032500000219220FFF70CFD03219320FFF708FDCA
:103260004FF488719520FFF703FD00219720FFF7A9
:10327000FFFC00219820FFF7FBFC41F2180103201E
:10328000FFF7F6FCBDE8104040F273110720FFF78E
:10329000EFBC704730B50546184801EB810100EBE3
:1032A00081042DED028B85B061781548562921D017
:1032B00090ED028B2846FDF70EF953EC182BFDF725
:1032C00098F8CDE902010D48A31D621C00950DA1DF
:1032D000CC3001F069F80948CC30FCF7DCFF05B0D0
:1032E000064982B2BDEC028BCC31BDE830400A48C1
:1032F000FFF79EB990ED048BDCE70000040100208D
:103300001000002025733A25733A25643A252E32A1
:103310006620200D0A0000006C02002070B5284CC9
:1033200001EB810304EB830102784A7042788A70D2
:103330008278CA70C2780A7142798A718279CA71B8
:10334000C2790A72027A4A72827AC57A303A02EBFC
:1033500082066FF02F0202EB460635448D81057B15
:10336000467B303D05EB850502EB450535448D7305
:10337000857BC67B303D05EB850502EB4505354475
:10338000CD73057C467C303D05EB850502EB45059C
:1033900035440D74857CC67C303D05EB850502EB1C
:1033A000450535444D74457D007D303800EB800087
:1033B00002EB400028448874012004F8230070BD0B
:1033C0000401002010B5FDF7A7FE07480178491C4D
:1033D000C9B201700A2905D100210170BDE8104071
:1033E000FFF736BA10BD00002800002030B5A5B0A8
:1033F00038216846FCF744FF14211FA8FCF740FF62
:1034000044210EA8FCF73CFF4FF40070FDF71AFFB3
:1034100001252804CDE9005002200324CDE907044A
:103420001421CDE90A100C900D9009946846FEF71E
:10343000F5F90F20CDE91F040024219422940321E3
:103440001FA82394FEF7A0F8CDE90E540EA8FDF7AF
:1034500057FF25B030BD00000548016841F47001F8
:10346000016003494FF00060803908607047000038
:1034700088ED00E02DE9F0430268234B234D244EF4
:10348000244C4FF08049984207D0484505D0A842C7
:1034900003D0B04201D0A04203D122F070074A68A5
:1034A0003A431D4FDFF874C0DFF8748098420DD0A6
:1034B00048450BD0A84209D0B04207D0A04205D061
:1034C000B84203D0604501D0404503D122F4407595
:1034D000CA682A434D6922F080022A4302608A6842
:1034E000C2620A688262984207D0A04205D0B84200
:1034F00003D0604501D0404501D109690163012134
:103500004161BDE8F0830000002C01400004004050
:1035100000080040003401400040014000440140E8
:103520000048014010B501F01F030121046A9940D1
:103530008C430462016A9A401143016210BD10B5C8
:10354000846842EA032224F47F440A4322438260CF
:1035500010BD00008268034B1A400A4342F0070185
:10356000816070478FFFCFFF2DE9F043026A22F0A0
:1035700001020262056A436882691C4C25F002055B
:1035800022400C6822F0030214438A68194E2A4331
:10359000174D194FDFF864C0DFF86490A84207D0D8
:1035A000B04205D0B84203D0604501D0484506D1AD
:1035B00022F00808CA6842EA080222F00402A8427F
:1035C00007D0B04205D0B84203D0604501D048458D
:1035D00005D14D6923F440731D438B692B43436030
:1035E0008461496841630262BDE8F0838FFFFEFF9A
:1035F000002C0140003401400040014000440140E3
:1036000000480140F0B5026A22F010020262056A29
:1036100042688369194C1B4E23400C6823F44073A5
:1036200043EA042425F020038D6843EA0513144D72
:10363000A84201D0B04206D1CF6823F0800343EA0C
:10364000071323F04003A8420AD0B04208D00E4D21
:10365000A84205D00D4DA84202D00D4DA84207D179
:103660004D6922F4406242EA85028D6942EA850290
:1036700042608461496881630362F0BDFF8FFFFE91
:10368000002C014000340140004001400044014052
:1036900000480140F0B5026A22F480720262056AB5
:1036A0004368C269194C1B4E22400C6822F0030289
:1036B000144325F400728D6842EA0522144DA84295
:1036C00001D0B04206D1CF6822F4006242EA07225C
:1036D00022F48062A8420AD0B04208D00E4DA8421F
:1036E00005D00E4DA84202D00D4DA84207D14D691C
:1036F00023F4405343EA05138D6943EA05134360FD
:10370000C4614968C1630262F0BD00008FFFFEFF23
:10371000002C0140003401400040014000440140C1
:1037200000480140F0B5026A22F480520262056A44
:103730004268C369194C1B4E23400C6823F4407344
:1037400043EA042425F400538D6843EA0533144DFD
:10375000A84201D0B04206D1CF6823F4004343EA27
:10376000073323F48043A8420AD0B04208D00E4D5C
:10377000A84205D00D4DA84202D00D4DA84207D158
:103780004D6922F4404242EA85128D6942EA85126F
:103790004260C461496801640362F0BDFF8FFFFEAF
:1037A000002C014000340140004001400044014031
:1037B0000048014030B5026A22F480320262046A95
:1037C0004268036D114D2B400D681D4324F40033F6
:1037D0000C8943EA04430E4CA0420BD00D4CA0428E
:1037E00008D00D4CA04205D00C4CA04202D00C4C8D
:1037F000A04204D14C6922F4803242EA04224260A1
:10380000056549688164036230BD00008FFFFEFFDB
:10381000002C0140003401400040014000440140C0
:103820000048014030B5026A22F480120262046A44
:103830004268036D114D24F400142B400D6843EAD7
:1038400005230D8944EA05540D4DA8420BD00D4DBA
:10385000A84208D00C4DA84205D00C4DA84202D079
:103860000B4DA84204D14D6922F4802242EA852200
:10387000426003654968C164046230BDFF8FFFFE8A
:10388000002C014000340140004001400044014050
:103890000048014010B5036A046A24F00104046280
:1038A000846924F0F00444EA021423F00A020A4373
:1038B0008461026210BD10B5036A23F01003036235
:1038C0008369046A23F4704343EA023224F0A003BC
:1038D00043EA01118261016210BD00003FB514A1ED
:1038E000D1E90021CDE9002113A2D2E90012CDE9EE
:1038F0000212416EB9B1026891689268C1F34261E7
:10390000520F1DF80240E50002ACA25CB5FBF2F2DA
:10391000A0F86A201DF80120615CD200B2FBF1F131
:10392000A0F868103FBD0121A0F86A10F8E7000078
:10393000010101030701000008040204080101015C
:1039400090F82810C90706D001684A68C36A22F4B3
:1039500000321A434A6090F82810890706D501689A
:103960004A68036B22F480321A434A6090F82810A8
:10397000490706D501684A68436B22F480221A433E
:103980004A6090F82810090706D501684A68836BD9
:1039900022F400421A434A6090F82810C90606D55E
:1039A00001688A68C36B22F480521A438A6090F8D7
:1039B0002810890606D501688A68036C22F4005233
:1039C0001A438A6090F82810490611D501684A68A0
:1039D000436C22F480121A434A60416CB1F5801F97
:1039E00006D101684A68836C22F4C0021A434A6017
:1039F00090F82810090606D501684A68C06C22F4C0
:103A0000002202434A607047F8B500260446C0F819
:103A10008860FDF77BFB0546206800686FF07E47F5
:103A2000000708D52B4600224FF4001120460097CE
:103A300000F07FFC60B92068006840070AD52B467B
:103A400000224FF480012046009700F072FC08B17C
:103A50000320F8BD2020C4F88000C4F8840084F856
:103A60007C600020F8BD10B5806A0021A0F85E10CF
:103A7000A0F85610FEF7C0FB10BD70B5846AD4F8EC
:103A80008000D4F88450216889684FF00006090648
:103A900006D5212804D1A4F85660204600F068F825
:103AA00020688068400606D5222D04D1A4F85E6007
:103AB000204600F04BF8D4F8880040F01000C4F81D
:103AC00088002046FEF798FB70BD10B50146806A5D
:103AD00009680968890614D40021A0F85E100168FD
:103AE0000A6822F480720A6001688A6822F0010282
:103AF0008A6001688A6822F040028A602021C0F84A
:103B00008410FEF73BFD10BD10B5806AFEF78EFDF8
:103B100010BD10B50146806A0968096889060DD490
:103B20000021A0F8561001688A6822F080028A609D
:103B30000068016841F04001016010BDFEF7C4FD5E
:103B400010BD10B5806AFEF7C0FD10BD01680A689F
:103B500022F490720A6001688A68044B1A408A60F5
:103B60002021C0F884100021C1667047FEFFFFEFDE
:103B700001680A6822F0C0020A6001688A6822F4BB
:103B800000028A602021C0F8801070472DE9F05FA4
:103B90000446016880682369E56918436369002762
:103BA0002B431843636EFA4A03430868F94D2840D3
:103BB0001843086020684168E36821F440511943C4
:103BC00041602168A069914201D0236A18438B6843
:103BD000F14D2B4003438B602068C16A636A21F07A
:103BE0000F011943C162ED4B2068ED4998420DD198
:103BF000D1F8881011F0030106D001295AD002290A
:103C000056D003293FD157E001253DE0E54B9842CE
:103C10000BD1D1F8881011F00C0147D0042949D0FC
:103C2000082945D00C292ED146E0DF4B98420BD114
:103C3000D1F8881011F0300138D010293AD020295D
:103C400036D030291FD137E0D84B98420BD1D1F86C
:103C5000881011F0C00129D040292BD0802927D00D
:103C6000C02910D128E090420DD1D1F8881011F46C
:103C700040611BD0B1F5806F1CD0B1F5006F17D03B
:103C8000B1F5406F18D01025DFF824A34FF48076EB
:103C90004FF000094FF4004B90426ED175B1022DE8
:103CA00029D0042D59D0082D68D176E00025EBE706
:103CB0000225E9E70425E7E70825E5E7FDF752FDDA
:103CC0004DE0012851D0022851D0032851D00428BA
:103CD00051D0052853D0062853D0072853D00828A0
:103CE00053D0092853D00A2853D00B2853D03AE098
:103CF000B1FBF0F06CE0606AA8B1012817D002288F
:103D000017D0032817D0042817D0052817D0062865
:103D100017D0072817D0082817D0092817D00A2845
:103D200017D00B2817D00120BAFBF0F050E002208A
:103D3000FAE70420F8E70620F6E70820F4E70A206F
:103D4000F2E70C20F0E71020EEE72020ECE740201F
:103D5000EAE78020E8E73046E6E7FDF727FD014681
:103D6000606A0028ADD10120C2E70220C0E704202C
:103D7000BEE70620BCE70820BAE761E14AE00A2076
:103D8000B6E70C20B4E71020B2E72020B0E74020CF
:103D9000AEE78020ACE73046AAE7606AA8B1012808
:103DA00022D0022822D0032822D0042822D005289D
:103DB00022D0062822D0072822D0082822D009287D
:103DC00022D00A2822D00B2822D00120BBFBF0F001
:103DD000002820D06168884601EB4101814219D852
:103DE000B0EB083F16D817E00220EFE70420EDE71C
:103DF0000620EBE70820E9E70A20E7E70C20E5E7E3
:103E00001020E3E72020E1E74020DFE78020DDE726
:103E10003046DBE7012739E27DB3022D61D0042D66
:103E20007DD0082DF6D1606AA8B1012878D002288B
:103E300077D0032876D0042875D0052874D00628BA
:103E400073D0072872D0082871D0092870D00A28AA
:103E50006FD00B2800D0012632464D46002358462D
:103E60000021FCF7D5F9090241EA106102024FEA8C
:103E7000580010186941424670E0FFE7FDF772FCF8
:103E80000146606AA8B1012817D0022817D003287C
:103E900017D0042817D0052817D0062817D00728D0
:103EA00017D0082817D0092817D00A2817D00B28B0
:103EB00000D0012632464D468CE00226FAE7042661
:103EC000F8E70626F6E70826F4E70A26F2E70C26C6
:103ED000F0E71026EEE72026ECE74026EAE780260A
:103EE000E8E7606AA8B1012824D0022824D003287A
:103EF00024D0042824D0052824D0062824D007283C
:103F000024D0082824D0092824D00A2824D00B281B
:103F100000D0012632464D4600235046A0E726E059
:103F20007AE07BE07CE07DE07EE07FE080E081E0A5
:103F300082E083E00226EDE70426EBE70626E9E7C8
:103F40000826E7E70A26E5E70C26E3E71026E1E77F
:103F50002026DFE74026DDE78026DBE70023FCF7AD
:103F600057F9144AA0F54071914271D952E7FDF713
:103F70001DFC0146606A50B3012839D0022839D0AF
:103F8000032839D0042839D0052839D0062813E071
:103F900000800040F369FFCFFFF4FF1100380140BB
:103FA000001002400044004000480040004C004027
:103FB0000024F400FFFC0F0024D0072824D0082898
:103FC00024D0092824D00A2824D00B2800D0012688
:103FD0004D463246002308461946FCF719F90902F6
:103FE000626841EA10610302500818186941B5E798
:103FF0000226EDE70426EBE70626E9E70826E7E7D1
:104000000A26E5E70C26E3E71026E1E72026DFE7AE
:104010004026DDE78026DBE702261DE704261BE7B6
:10402000062619E7082617E70A2615E70C2613E7E0
:10403000102611E720260FE740260DE780260BE724
:10404000E0694FF6EF78584570D1092D8ED200E027
:104050001AE1DFE805F006093C0580050505830047
:10406000D8E6FDF77FFB01E0FDF78EFB0146606AB5
:10407000A8B1012815D0022815D0032815D004288E
:1040800015D0052815D0062815D0072815D00828E2
:1040900015D0092815D00A2815D00B2814D00126D0
:1040A00012E0022610E004260EE006260CE00826A8
:1040B0000AE00A2608E00C2606E0102604E0202686
:1040C00002E0402600E08026B1FBF6F01AE0606ACC
:1040D000A8B101282BD002282BD003282BD00428EC
:1040E0002BD005282BD006282BD007282BD008282A
:1040F0002BD009282BD00A282BD00B2800D0012642
:10410000BAFBF6F04100606801EB5001B1FBF0F042
:1041100080B2A0F110014145A2D84FF6F0710140E4
:10412000C0F3420001432068C160AFE046E00226D0
:10413000E6E70426E4E70626E2E70826E0E70A26A3
:10414000DEE70C26DCE71026DAE72026D8E7402653
:10415000D6E78026D4E7FDF729FB87E7606AA8B198
:10416000012817D0022817D0032817D0042817D009
:10417000052817D0062817D0072817D0082817D0E9
:10418000092817D00A2817D00B2800D00126BBFB1E
:10419000F6F0B7E70226FAE70426F8E70626F6E780
:1041A0000826F4E70A26F2E70C26F0E71026EEE7E9
:1041B0002026ECE74026EAE78026E8E7092DBFF451
:1041C000D5AEDFE805F006093C0583050505860048
:1041D00020E6FDF7C7FA01E0FDF7D6FA0146606A6E
:1041E000A8B1012815D0022815D0032815D004281D
:1041F00015D0052815D0062815D0072815D0082871
:1042000015D0092815D00A2815D00B2814D001265E
:1042100012E0022610E004260EE006260CE0082636
:104220000AE00A2608E00C2606E0102604E0202614
:1042300002E0402600E08026B1FBF6F11AE0606A59
:10424000A8B101282ED002282ED003282ED0042871
:104250002ED005282ED006282ED007282ED00828AC
:104260002ED009282ED00A282ED00B2800D00126C7
:10427000BAFBF6F1606801EB5001B1FBF0F080B2DF
:10428000A0F110014145A3D82168C8600120A4F81D
:104290006A0024F8680F3846C4F80490C4F80890FF
:1042A000BDE8F09F0226E3E70426E1E70626DFE704
:1042B0000826DDE70A26DBE70C26D9E71026D7E734
:1042C0002026D5E74026D3E78026D1E7FDF76EFA12
:1042D00084E7606AA8B1012817D0022817D0032804
:1042E00017D0042817D0052817D0062817D007287C
:1042F00017D0082817D0092817D00A2817D00B285C
:1043000000D00126BBFBF6F1B4E70226FAE704264B
:10431000F8E70626F6E70826F4E70A26F2E70C2671
:10432000F0E71026EEE72026ECE74026EAE78026B5
:10433000E8E72DE9F041984617460E460446069DEB
:1043400008E0681C06D0FCF7E1FEA0EB0800A842DC
:104350000BD855B12068C06936EA000019D000209A
:10436000B842EED00020BDE8F0812068016821F459
:10437000D07101602068816821F0010181602020F6
:10438000C4F88000C4F88400002084F87C00032076
:10439000E9E70120E4E700000148FDF72FBF000036
:1043A0006C020020FEE700000FB4084B10B504A912
:1043B00002AA039800F0EEF8044602A9002000F0DB
:1043C00080FC204610BC5DF814FB0000C34C0008C4
:1043D0000907090E002804DB00F1E02080F8001432
:1043E000704700F00F0000F1E02080F8141D7047C6
:1043F00002E008C8121F08C1002AFAD170477047AE
:10440000002001E001C1121F002AFBD1704700000B
:104410002DE9FF5F82B00021DDE90430020DDDF8F7
:1044200040B0034318D044F61050A2F2FF3242438A
:104430001514119801281FD0A5EB0B00401C5FEA52
:10444000000A4FF000064E4FDFF83891B046504654
:1044500015D5CAF1000413E0119801244AA30128DC
:1044600001D16FEA0B010298119AC0E90031C0E94D
:10447000024206B0BDE8F09FCBF10000DFE7044642
:104480000021404A491842EB0450CDE9001012E0E7
:10449000E00707D032463B4640464946FBF7A9FFB6
:1044A0008046894632463B4610461946FBF7A1FF37
:1044B00006460F466410002CEAD1DDE90401DDE96F
:1044C0000023BAF1000F06DAFBF793FF42464B4692
:1044D000FBF78FFF05E0FCF72EF942464B46FCF751
:1044E0002AF904460E460022284BFCF715F803D89B
:1044F0004FF0FF30014607E00022254B20463146B1
:10450000FBF7D0FEFCF786F9102409E0002C0ADB4B
:104510000A220023FBF77CFE039B30321A55641EEF
:1045200050EA0102F2D1641C039AC4F1110314444D
:10453000119A012A03D0012208430DD10AE0084351
:1045400004D000204FF0110B119072E7A3EB0B0584
:104550006D1E0DE05B4504DD4FF0000205F1010525
:1045600004E003DA4FF00002A5F10105002AECD0C7
:1045700002981199C0E90231C0E9004579E70000CD
:10458000000014400000F03F300000000000F04345
:104590000000E03F2DE9FF4F95B09B468946064657
:1045A00000250FE2252877D100242746F84A01216B
:1045B000059400E0044316F8013F203B01FA03F0A4
:1045C0001042F7D130782A2811D06FF02F033078BD
:1045D000A0F13002092A16D8059A44F0020402EB31
:1045E000820203EB42021044761C0590EFE759F873
:1045F000042B0592002A03DA504244F4005405903B
:1046000044F00204761C30782E2816D116F8010FDB
:1046100044F004042A280DD06FF02F023078A0F166
:104620003003092B09D807EB870302EB4303C718B4
:10463000761CF3E759F8047B761C30786C280FD091
:1046400006DC4C2817D068280DD06A2814D104E065
:10465000742810D07A280FD10DE044F400140AE039
:1046600044F4801401E044F440147278824202D190
:1046700004F58014761C761C307866280BD013DC89
:10468000582877D009DC002875D04528F6D0462870
:10469000F4D047281AD19DE118E0632835D064286A
:1046A00079D0652812D195E1702873D008DC67288D
:1046B000F1D069286FD06E280DD06F2806D1B5E0F3
:1046C00073282CD0752875D0782874D05A4617993D
:1046D00090476D1C75E1C4F30250022809D00328ED
:1046E0000DD0D9F8001004280DD00D6009F104098F
:1046F00067E1D9F80010EA17C1E90052F6E7D9F8E6
:1047000000100D80F2E70D70F0E719F8041B8DF82A
:10471000001000208DF80100EA46012003E059F85E
:1047200004AB4FF0FF3061074FF0000102D40DE001
:1047300008F101018846B9420FDA8045F8DB1AF822
:1047400008100029F4D108E008F1010188468142EF
:10475000FADB1AF808100029F6D105985B46A0EBA1
:10476000080721463846179A00F094FA284400EBCF
:10477000080507E04DE029E10DE01AF8010B5A4663
:1047800017999047B8F10108F7D25B4621463846A1
:10479000179A13E142E00A220092C4F302524FF04A
:1047A000000A022A08D059F804CB032A4FEAEC7118
:1047B0000AD00DE029E02AE009F1070121F0070203
:1047C000F2E802C1914609E00FFA8CFC4FEAEC7165
:1047D000042A03D14FFA8CFC4FEAEC71002907DA66
:1047E0000A460021DCF1000C61EB02012D2202E0FF
:1047F000220504D52B228DF80420012203E0E207D4
:1048000001D02022F7E7904659E00A2102E0102269
:104810000DE010214FF0000A00910BE010224FF044
:10482000000A44F004040827009203E008224FF035
:10483000000A0092C4F30252022A05D059F804CBB0
:104840000021032A08D009E009F1070121F007023D
:10485000F2E802C1914605E01FFA8CFC042A01D15E
:104860000CF0FF0C4FF00008220728D5702806D066
:10487000009B83F0100353EA0A0305D00EE04022A8
:104880008DF80420012208E05CEA010206D0302203
:104890008DF804208DF8050002229046009B83F0DD
:1048A000080353EA0A030AD15CEA010201D1620754
:1048B00005D530228DF804204FF001087F1E5828BE
:1048C00004D034A003900EA802900DE036A0F9E7C2
:1048D00053466046009AFBF79BFC84460398825C33
:1048E0000298401E029002705CEA0100F0D102982A
:1048F00006A9081A00F1200A600702D524F48034C2
:1049000000E00127574502DDA7EB0A0000E0002088
:1049100000EB0A01009005984144401A0590E0031D
:1049200006D45B462146179A059800F0B3F9054472
:10493000002706E001A85A46C05D179990476D1CF4
:104940007F1C4745F6DBE0030CD55B462146179AF2
:10495000059800F09FF9054404E030205A46179965
:1049600090476D1C0099481E00900029F5DC08E076
:10497000029802995A460078491C0291179990476B
:104980006D1CBAF10001AAF1010AF1DC65E1000039
:104990000928010030313233343536373839616215
:1049A00063646566000000003031323334353637D9
:1049B00038394142434445460000000000F058F9B0
:1049C0000544761C307800287FF4ECAD19B02846F9
:1049D000BDE8F08F620700D4062709F1070222F034
:1049E000070CFCE80223E14603F000485FEA080CEC
:1049F00002D00FF2702C0DE05FEA045C02D50FF2DA
:104A0000682C07E05FEAC47C02D00FF2602C01E062
:104A1000AFF2700C4FF0FF3823F00043CDF850C0D8
:104A200065280CD006DC452809D046281DD047282B
:104A30003DD13DE0662818D067287ED138E00021BE
:104A4000112F01DB112000E0781CCDE9000106A93F
:104A50000EA8FFF7DDFCDDE90F010E9A039100219E
:104A6000009207F1010A04914DE04FF000400097D9
:104A7000CDE9011006A90EA8FFF7CAFCDDE90F0277
:104A800003920E9B11990022DDF80CA00093049272
:104A900011B9791C00EB010AB7EB0A0004D4C0F18C
:104AA000FF3007F1010A0490AAEB0700019044E0EF
:104AB000012F00DA01270021112F01DD112000E074
:104AC0003846CDE9000106A90EA8FFF7A1FCDDE9F3
:104AD0000F010E9A0391002104910092BA4621071A
:104AE0000CD40399514500DA8A46BAF1010F05DD6D
:104AF000009AAAF10101515C302908D0B84202DACB
:104B000010F1040F06DA0121CDE9011015E0AAF138
:104B10000101E9E7002805DC049901440491AAEBAE
:104B2000000102E0411C514500DD8A460499401A0B
:104B3000401C01904FF000400290200704D40198DF
:104B4000504501DBCDF8048000208DF84F0002981D
:104B50000DF14F07B0F1004F25D02B200E90029899
:104B60004FF0020800280CDA404202902D200E90EF
:104B700007E00A210298FBF703FD3031029007F8A5
:104B8000011DB8F10001A8F10108F2DC029800282B
:104B9000EFD1791E0E980870307800F0200040F0B8
:104BA000450007F8020D12A8C01B00F10708149871
:104BB000007800B1012000EB0A01019801EBE071DF
:104BC00005984144401A401E0590E00306D45B4618
:104BD0002146179A059800F05DF80544149800786E
:104BE00018B15A46179990476D1CE00324D55B46CF
:104BF0002146179A059800F04DF805441CE00498EA
:104C0000002807DBDDE90301884203DD0098405CF2
:104C1000179901E0179930205A469047049805F1FA
:104C20000105401C04900198401E019004D12E20E3
:104C30005A46179990476D1CBAF10001AAF1010A72
:104C4000DDDC05E017F8010B5A46179990476D1CFB
:104C5000B8F10001A8F10108F4DC5B462146179A7F
:104C60000598ABE62D0000002B000000200000009E
:104C70002DE9F041044600251E461746880404D459
:104C800005E039462020B0476D1C641EF9D5284642
:104C9000BDE8F0812DE9F041044600251E4690460E
:104CA000C80301D5302700E02027880404D505E09B
:104CB00041463846B0476D1C641EF9D52846BDE80C
:104CC000F0810A68531C0B60107070472DED028B49
:104CD00086B0FCF729FAFEF789FBFEF761F8FEF7CC
:104CE00039F8FEF7C7F8FEF713F904214148FDF73C
:104CF000ABF9404800270068876316223E493F48C9
:104D0000FDF7EAFBFDF7E4FCFBF70AFEFDF7E0FE2A
:104D10000020FDF735FE4FF6FF70FDF747FF00203E
:104D2000FDF730FF344D364E364CA03D05F18D0871
:104D300020786178884222D040B9E188A088C1F10A
:104D40000802121A92B200B2FBF782FE2078012804
:104D500013D194ED040B51EC100BFBF7F5FB94ED24
:104D6000020B08EE100A51EC100BFBF7EDFB00EE06
:104D7000100AF0EE480AFBF773FE20786070307876
:104D8000012805D13770207801282FD0FDF73AFD92
:104D9000194842461CA16830FFF706FB95F89C00B5
:104DA0000DF1040CE37895F89E2095F89D108CE8A1
:104DB0000F0095F89B0000900F4895F89A30B5F8D1
:104DC000982012A15430FFF7EFFA0B49D820543144
:104DD000FDF73CFE0849C0206831FDF737FE064963
:104DE0003020FDF733FEFDF779FFA1E7FDF77EFCEC
:104DF000CEE7000020020020A40100206C02002069
:104E000007000020100000202573000025642025E5
:104E100064202564202564202564202564202564E1
:104E20000000000000000000000000000000000082
:104E30000000000000000000000000000000000072
:104E40000000000000000000000000000000000062
:104E500000000000000080018001800180018001CD
:104E6000800180018001800180018001800180013A
:104E70000000000080018001000000000000000030
:104E80000000000000000000CC00CC00CC00CC00F2
:104E9000CC00CC000000000000000000000000007A
:104EA0000000000000000000000000000000000002
:104EB00000000000000000000000000000000000F2
:104EC000600C600C600C30063006FE1FFE1F3006C2
:104ED00038071803FE1FFE1F180318038C018C01EE
:104EE0008C01000000008000E003F80F9C0E8C1C79
:104EF0008C188C009800F801E007800E801C8C183C
:104F00008C189C18B80CF00FE003800080000000A3
:104F1000000000000000000000000E181B0C110C27
:104F200011061106110311039B018E01C038C06CDC
:104F300060446044304430441844186C0C3800001D
:104F4000000000000000E001F00338071806180612
:104F50003003F001F000F8009C310E33061E061CF1
:104F6000061C063FFC73F02100000000000000005A
:104F700000000000000000000C000C000C000C0001
:104F80000C000C0000000000000000000000000009
:104F90000000000000000000000000000000000011
:104FA000000000000000000200038001C000C000FB
:104FB0006000600030003000300030003000300011
:104FC0003000300060006000C000C00080010003BD
:104FD00000020000000020006000C000800180018D
:104FE0000003000300060006000600060006000697
:104FF000000600060003000380018001C00060007D
:105000002000000000000000000000000000000080
:10501000C000C000D806F807E001300338070000E0
:105020000000000000000000000000000000000080
:105030000000000000000000000000000000000070
:1050400080018001800180018001FC3FFC3F8001E4
:10505000800180018001800100000000000000004C
:105060000000000000000000000000000000000040
:105070000000000000000000000000000000000030
:10508000000000000000800180010001000180009C
:105090000000000000000000000000000000000010
:1050A000000000000000000000000000E007E00732
:1050B00000000000000000000000000000000000F0
:1050C00000000000000000000000000000000000E0
:1050D00000000000000000000000000000000000D0
:1050E000000000000000C000C00000000000000040
:1050F000000000000000000C000C00060006000686
:105100000003000300038003800180018001C000D0
:10511000C000C0006000600000000000000000004F
:10512000000000000000E003F007380E180C0C1817
:105130000C180C180C180C180C180C180C180C184F
:10514000180C380EF007E00300000000000000001B
:1051500000000000000000018001C001F001980182
:10516000880180018001800180018001800180012F
:10517000800180018001800100000000000000002B
:10518000000000000000E003F80F180C0C180C18C9
:1051900000180018000C000600038001C000600029
:1051A00030001800FC1FFC1F000000000000000081
:1051B000000000000000E001F807180E0C0C0C0CB9
:1051C000000C0006C003C007000C001800180C18E3
:1051D0000C18180CF807E0030000000000000000A5
:1051E000000000000000000C000E000F000F800DFA
:1051F000C00C600C600C300C180C0C0CFC3FFC3F1D
:10520000000C000C000C000C00000000000000006E
:10521000000000000000F80FF80F180018000C0044
:10522000EC03FC071C0E001C0018001800180C18DA
:105230001C0C180EF807E00300000000000000003E
:10524000000000000000C007F00F381C18181800FC
:105250000C00CC03EC0F3C0E1C1C0C180C180C188A
:10526000181C380EF007E0030000000000000000EA
:10527000000000000000FC1FFC1F000C00060006E0
:10528000000380038001C001C000E00060006000F6
:10529000700030003000300000000000000000000E
:1052A000000000000000E003F007380E180C180C96
:1052B000180C3806F007F007180C0C180C180C180E
:1052C0000C18380CF80FE00300000000000000008C
:1052D000000000000000E003F007380E1C0C0C1862
:1052E0000C180C181C1C381EF81BE0190018000CB8
:1052F000000C1C0EF807F001000000000000000088
:10530000000000000000000000000000000000009D
:10531000800180010000000000000000000000008B
:10532000000000008001800100000000000000007B
:10533000000000000000000000000000000000006D
:10534000800180010000000000000000000000005B
:1053500000000000800180010001000180000000C9
:10536000000000000000000000000000000000003D
:10537000000000000010001C800FE003F80018007F
:10538000F800E003800F001C001000000000000087
:10539000000000000000000000000000000000000D
:1053A00000000000F81F000000000000F81F0000CF
:1053B00000000000000000000000000000000000ED
:1053C00000000000000000000000000000000000DD
:1053D0000000000008003800F001C007001F00189E
:1053E000001FC007F00138000800000000000000A6
:1053F000000000000000E003F80F180C0C180C1857
:105400000018000C000600038001C000C000C000AE
:1054100000000000C000C00000000000000000000C
:105420000000000000000000E00718180420C22956
:10543000224A114409440944094409221113E20C87
:10544000024004201818E0070000000000000000DF
:1054500000000000000080038003C006C006C006F4
:10546000600C600C301830183018F83FF83F1C7092
:105470000C600C6006C006C00000000000000000C8
:10548000000000000000FC03FC0F0C0C0C180C18B2
:105490000C180C0CFC07FC0F0C180C300C300C30EA
:1054A0000C300C18FC1FFC0700000000000000007E
:1054B000000000000000C007F01F38381C300C70DE
:1054C00006600600060006000600060006000660EC
:1054D0000C701C30F01FE00700000000000000000E
:1054E000000000000000FE03FE0F060E061806185E
:1054F0000630063006300630063006300630061814
:105500000618060EFE0FFE0300000000000000005B
:10551000000000000000FC3FFC3F0C000C000C00F1
:105520000C000C00FC1FFC1F0C000C000C000C00FD
:105530000C000C00FC3FFC3F0000000000000000DD
:10554000000000000000F83FF83F180018001800A5
:1055500018001800F81FF81F18001800180018008D
:1055600018001800180018000000000000000000DB
:10557000000000000000E00FF83F3C780E6006E0FD
:1055800007C00300030003FE03FE03C007C006C0FC
:105590000EC03CF0F83FE00F0000000000000000EB
:1055A0000000000000000C300C300C300C300C30CF
:1055B0000C300C30FC3FFC3F0C300C300C300C300D
:1055C0000C300C300C300C300000000000000000EB
:1055D0000000000000008001800180018001800146
:1055E00080018001800180018001800180018001B3
:1055F00080018001800180010000000000000000A7
:10560000000000000000000600060006000600067C
:105610000006000600060006000600060006180642
:1056200018063807F003E001000000000000000049
:1056300000000000000006300618060C06060603EF
:105640008601C60066007600DE008E0106030606AF
:10565000060C06180630066000000000000000007E
:1056600000000000000018001800180018001800C2
:10567000180018001800180018001800180018006A
:1056800018001800F81FF81F0000000000000000BC
:105690000000000000000EE01EF01EF01EF036D8E4
:1056A00036D836D836D866CC66CC66CCC6C6C6C622
:1056B000C6C6C6C686C386C3000000000000000040
:1056C0000000000000000C301C303C303C306C30DE
:1056D0006C30CC30CC308C310C330C330C360C3677
:1056E0000C3C0C3C0C380C300000000000000000AA
:1056F000000000000000E007F81F1C380E70066074
:1057000003C003C003C003C003C003C003C00660DE
:105710000E701C38F81FE0070000000000000000B9
:10572000000000000000FC0FFC1F0C380C300C3097
:105730000C300C300C18FC1FFC070C000C000C008B
:105740000C000C000C000C00000000000000000029
:10575000000000000000E007F81F1C380E70066013
:1057600003E003C003C003C003C003C007E0066337
:105770000E3F1C3CF83FE0F700C0000000000000B6
:10578000000000000000FE0FFE1F06380630063045
:1057900006300638FE1FFE0706030606060C06182E
:1057A0000618063006300660000000000000000009
:1057B000000000000000E003F80F1C0C0C180C188F
:1057C0000C001C00F803E00F001E00380630063005
:1057D0000E301C1CF80FE007000000000000000065
:1057E000000000000000FE7FFE7F8001800180013C
:1057F00080018001800180018001800180018001A1
:105800008001800180018001000000000000000094
:105810000000000000000C300C300C300C300C305C
:105820000C300C300C300C300C300C300C300C3098
:105830000C301818F81FE0070000000000000000FE
:1058400000000000000003600630063006300C182F
:105850000C180C18180C180C380E3006300670078F
:1058600060036003C001C0010000000000000000F0
:105870000000000000000360C361C361C3616633C0
:10588000663366336633663366336C1B6C1B6C1B86
:105890002C1A3C1E380E380E0000000000000000DC
:1058A0000000000000000FE00C7018303018700C81
:1058B000600EC00780038003C003E006700C301C3C
:1058C00018180C300E6007E0000000000000000017
:1058D00000000000000003C006600C301C383818BF
:1058E000300C6006E007C003800180018001800168
:1058F00080018001800180010000000000000000A4
:10590000000000000000FC7FFC7F006000300018F9
:10591000000C000600038001C00060003000180089
:105920000C000600FE7FFE7F00000000000000006B
:10593000000000000000E003E00360006000600081
:105940006000600060006000600060006000600057
:105950006000600060006000600060006000E003C4
:10596000E0030000000030003000600060006000D4
:10597000C000C000C000C0018001800180010003A0
:105980000003000300060006000000000000000005
:10599000000000000000E003E00300030003000338
:1059A00000030003000300030003000300030003DF
:1059B0000003000300030003000300030003E003EF
:1059C000E003000000000000C001C00160036003AC
:1059D000600330063006180C180C000000000000B0
:1059E00000000000000000000000000000000000B7
:1059F00000000000000000000000000000000000A7
:105A00000000000000000000000000000000000096
:105A1000000000000000FFFFFFFF0000000000008A
:105A20000000000000000C000C000C000C000C003A
:105A30000C0000000000000000000000000000005A
:105A40000000000000000000000000000000000056
:105A50000000000000000000000000000000000046
:105A6000F003F8071C0C0C0C000FF00FF80C0C0CDA
:105A70000C0C1C0FF80FF0180000000000000000D4
:105A8000000000000000180018001800180018009E
:105A9000D803F80F380C18181818181818181818F0
:105AA0001818380CF80FD8030000000000000000A0
:105AB00000000000000000000000000000000000E6
:105AC000C003F007300E180C18001800180018005A
:105AD000180C300EF007C0030000000000000000AA
