:020000040800F2
:1000000040040020ED01000891130008310D0008A4
:100010008F13000885020008F51700080000000093
:100020000000000000000000000000007D17000834
:10003000B902000800000000C51300087F1700087F
:10004000070200080702000807020008070200086C
:10005000070200080702000807020008070200085C
:10006000070200080702000807020008070200084C
:10007000070200080702000807020008070200083C
:10008000070200080000000007020008070200083D
:10009000070200080702000807020008070200081C
:1000A000070200080702000807020008070200080C
:1000B00007020008070200080702000807020008FC
:1000C00007020008070200080702000807020008EC
:1000D00007020008070200080702000807020008DC
:1000E00007020008070200080702000807020008CC
:1000F00007020008070200080702000800000000CD
:1001000000000000070200080000000007020008CD
:1001100007020008000000000702000807020008AC
:10012000070200080702000807020008070200088B
:10013000070200080000000000000000070200089D
:10014000070200080702000800000000000000008D
:10015000000000000000000000000000000000009F
:10016000000000000000000000000000070200087E
:10017000070200080000000000000000000000006E
:10018000000000000702000800000000000000005E
:10019000000000000000000000000000000000005F
:1001A000000000000000000007020008070200082D
:1001B000070200080702000807020008000000000C
:1001C000000000000702000800000000000000001E
:1001D0000702000807020008DFF80CD000F040F822
:1001E00000480047B91B000840040020064880472B
:1001F00006480047FEE7FEE7FEE7FEE7FEE7FEE70C
:10020000FEE7FEE7FEE7FEE7D9170008D901000880
:10021000D2B201E000F8012B491EFBD27047002248
:10022000F6E710B513460A4604461946FFF7F0FFF5
:10023000204610BD30B50B46014600202022012487
:1002400009E021FA02F59D4205D303FA02F5491BA4
:1002500004FA02F52844151EA2F10102F1DC30BDBA
:10026000064C074D06E0E06840F0010394E8070003
:1002700098471034AC42F6D3FFF7B2FF6C2E00085B
:100280008C2E0008FEE7000010B501224FF47F41DC
:10029000074800F01CF9074C01220421204600F019
:1002A00016F920460022BDE81040042100F00FB9E5
:1002B00000080048000C00487047002240F6B833A0
:1002C00006E00021491C89B29942FBD3521C92B22C
:1002D0008242F6D37047000070B5044600F0FCF887
:1002E0000546601C02D004484068044400F0F4F85D
:1002F000401BA042FAD370BD080000202DE9FC4F3E
:10030000DFF8A0A1002301250AF1040B03244FF01C
:100310000F0C0BF1040EBDE005FA03F632406FD06E
:100320004F68012F05D0022F03D0112F01D0122FBB
:1003300017D1D0F808905F0004FA07F829EA0809F5
:100340000097D1F80C8008FA07F848EA0908C0F8C5
:1003500008804768B7430E79C6F300169E403E43B7
:100360004660C6684FEA430804FA08F7BE4301979F
:100370008F6807FA08F73743C7604E68022E01D02E
:10038000122E13D1DE0800EB86060096366A5F0750
:10039000FF0E0CFA07F926EA0906D1F8109009FABF
:1003A00007F949EA0609009EC6F820900668019FF1
:1003B000BE430F7907F0030707FA08F737430760D2
:1003C0004E68F60065D5384E376E47F00107376640
:1003D000366E23F0030706F001060096334E3E44C6
:1003E000B146B6689F074FEA17780CFA08F7BE4384
:1003F000B0F1904F05D02E4FB84204D1012717E03D
:1004000047E0002714E02B4FB84201D102270FE04C
:10041000294FB84201D103270AE0284FB84201D141
:10042000042705E0264FB84201D1052700E0062742
:1004300007FA08F73743C9F80870DAF8006057463A
:10044000D1F8048096435FEAC83800D516433E6071
:10045000DBF800605F46D1F8048096435FEA883895
:1004600000D516433E60DEF800607746D1F8048080
:1004700096435FEAC82800D516433E60094F0C3703
:100480003E68D1F8048096435FEA882800D5164379
:100490003E605B1C0A6832FA03F67FF43DAFBDE8AC
:1004A000FC8F0000000401400010024000000140E9
:1004B0000004004800080048000C004800100048F4
:1004C000001400480069084000D0012070470AB1BC
:1004D0008161704781627047014880687047000001
:1004E000080000200248816842681144816070471A
:1004F0000800002010B50024032000F069F8002057
:1005000000F008F808B1012401E000F025F82046C9
:1005100010BD000070B50E4E05460024706898B1FD
:100520004FF47A71B1FBF0F00A490968B1FBF0F0C1
:1005300000F0EAFB40B9102D06D200222946501ED9
:1005400000F026F8356000E00124204670BD000070
:1005500008000020140000200B4808B5016E41F08F
:1005600001010166016E01F001010091816D41F010
:1005700080518165806D00F0805000900348816853
:1005800041F48041816008BD0010024000700040CD
:10059000F0B40E4B1B680C46C3F30223C3F10705EE
:1005A000042D00D90425191D072901D2002300E0DC
:1005B000DB1E012606FA05F1491E214099409E40A6
:1005C000761E16403143F0BC01F02AB90CED00E074
:1005D000064900F0070208684FF6FF03184040EA9A
:1005E0000220034A10430860704700000CED00E051
:1005F0000000FA052B492C4B0A6832214A432B494B
:1006000040B1B0F5007F086829D020F4C06040F404
:1006100080602CE00868C0F34120022804D051F823
:10062000800F20F4807022E0D1F8800020F48070E8
:10063000C1F88000086820F4C06040F400700860D1
:10064000B2FBF3F0401C00E0401E4A69520501D5A0
:100650000028F9D1486940050AD503207047C0F346
:100660004120022806D051F8800F40F480700860C5
:1006700000207047D1F8800040F48070C1F88000FD
:10068000086820F4C06040F400700860B2FBF3F02A
:10069000401C00E0401E4A695205DBD50028F9D114
:1006A000D8E700001400002040420F000070004016
:1006B0002DE9F0470E4605004FF0000725D0DFF882
:1006C000AC81D8F8000000F00F00B0420CD2D8F88E
:1006D000001021F00F013143C8F80010D8F80000D5
:1006E00000F00F00B04210D12968614CC80741F2F8
:1006F000883A5AD06868DFF87C91032808D002282D
:1007000020682DD0400500282CDB0120BDE8F087B3
:1007100020688001F9D5E06800F00302E068C0F3CA
:100720000310401C032A19D0534A00BFB2FBF0F05B
:10073000E268C2F306225043E268C2F34162521CEF
:100740005200B0FBF2F0484517D9A06810F0F00F46
:100750000CD0880711D5A86840B10EE0474AE5E7FC
:100760008003D0E700F092F8484506D9A06820F051
:10077000F00040F08000A0608027A068696820F049
:1007800003000843A060FFF7A7FE814606E000BF14
:10079000FFF7A2FEA0EB090151453AD8A0686968AD
:1007A00000F00C00B0EB810FF2D12868810714D55E
:1007B000400703D5A06840F4E060A06028780007F7
:1007C00005D5A06820F4605040F4E060A060A06807
:1007D000A96820F0F000084304E0802F03D1A0684E
:1007E00020F0F000A060D8F80010404601F00F01A2
:1007F000B14216D9016821F00F0131430160FFF7C2
:100800006BFE074607E000BFFFF766FEC11B5145C0
:1008100001D903207AE7D8F8000000F00F00B042B9
:10082000F2D12878400705D5A068E96820F4E06097
:100830000843A0602878000706D5A068296920F43D
:10084000605040EAC100A06000F020F8A1680C4AA6
:10085000C1F30311515C01F01F01C8400949086050
:1008600009480068BDE8F047FFF754BE0020024089
:100870000010024000B4C4040024F40000366E01ED
:100880005C2E00081400002008000020184910B554
:100890008868C0F381021748012A0BD08A68164B7A
:1008A000C2F38102022A06D08A68C2F38102032AB7
:1008B00003D0002010BD184610BDCA6802F0030422
:1008C000CA68C2F30312521C032C02D0B0FBF2F030
:1008D00001E0B3FBF2F0CA68C968C2F306225043D4
:1008E000C1F34161491C4900B0FBF1F010BD0000AB
:1008F000001002400024F40000366E012DE9F84398
:1009000004007AD02078FA4DC00747D0A868E9687B
:1009100000F00C0001F003010C2802D0082817D0C9
:1009200001E0032914D06068B0F5803F17D0B0F51E
:10093000A02F286817D020F480302860286820F481
:10094000802028606068E0B1FFF7C6FD064614E02D
:100950002868800322D560680028D2D01EE028686D
:1009600040F48030EDE740F480202860F7E700BFD6
:10097000FFF7B2FD801B642870D828688003F7D584
:100980000CE0FFF7A9FD064605E000BFFFF7A4FD58
:10099000801B6428F0D828688003F7D4207880076B
:1009A0004CD5A868E96800F00C0001F003010C28A0
:1009B00002D004280DD001E002290AD0E068002806
:1009C00028682BD040F480702860FFF785FD06462C
:1009D00019E02868400502D5E068002891D06868D1
:1009E000217C20F0FE4040EA01606860C148006858
:1009F000FFF790FD002800D120E076E1FFF76CFDC5
:100A0000801B0228B8D828684005F7D56868217C83
:100A100020F0FE4040EA016068600FE020F4807042
:100A20002860FFF759FD064605E000BFFFF754FDBB
:100A3000801B0228A0D828684005F7D4207800073A
:100A400029D560690028D5F8940013D040F0010042
:100A5000C5F89400FFF740FD064606E090E000BFB1
:100A6000FFF73AFD801B022886D8D5F8940080074E
:100A7000F6D510E020F00100C5F89400FFF72CFD3A
:100A8000064604E0FFF728FD801B022878D8D5F839
:100A900094008007F6D42078400761D5A86D002621
:100AA000C00008D4A86D40F08050A865A86D01264C
:100AB00000F08050009090480168C90511D4016889
:100AC000804641F480710160FFF706FD074604E0AF
:100AD000FFF702FDC01B022852D8D8F80000C0055D
:100AE000F6D5A068012815D00528D5F8900016D0B5
:100AF00020F00100C5F89000D5F8900020F0040027
:100B0000C5F89000A06841F28838B8B1FFF7E4FC5E
:100B100007460EE0D5F8900040F00100F0E740F005
:100B20000400C5F89000F5E7FFF7D6FCC11B41456E
:100B300026D8D5F890008007F6D50CE0FFF7CCFC5E
:100B4000074604E0FFF7C8FCC11B414518D8D5F89B
:100B500090008007F6D41EB1A86D20F08050A865E3
:100B60002078800629D5A0690028D5F8980013D0F0
:100B700040F00100C5F89800FFF7AEFC064606E01D
:100B800077E000BFFFF7A8FC801B022877D8D5F8D4
:100B900098008007F6D510E020F00100C5F8980015
:100BA000FFF79AFC064604E0FFF796FC801B02283C
:100BB00065D8D5F898008007F6D4E069F0B3A96845
:100BC000C1F38101032961D00228286820F08070D8
:100BD00028600BD0E86820F00300E860E868474927
:100BE0000840E860FFF778FC04464BE0FFF774FC30
:100BF000064604E0FFF770FC801B02283FD82868F7
:100C00008001F7D4F4E908016FF00F0202EB011143
:100C10000843218A5204490802EB4151A26841EA83
:100C200002210843217D4FF07E42490802EB4161D9
:100C30000843217B40EAC160E96800E062E0304A95
:100C400011400843E860286840F080702860E86838
:100C500040F08070E860FFF73FFC044605E000BF0D
:100C6000FFF73AFC001B022809D828688001F7D555
:100C700048E004E0FFF730FC001B022802D9032003
:100C8000BDE8F88328688001F4D43BE00128F7D060
:100C9000E868226A00F00301914226D1616A00F0FF
:100CA000F0020901103991421FD1A26A00F4FE41FD
:100CB000B1EB022F19D194F82C2000F07841B1EB60
:100CC000C26F12D1218E00F4C00249084905A1F576
:100CD0000011914209D194F8341000F0C060490825
:100CE0004906A1F1007181420CD00120C8E7000043
:100CF000001002400800002000700040FFFFEEFEE0
:100D00000C809F010020BBE710B5401EB0F1807F32
:100D100001D3012010BD4FF0E02460610F21601766
:100D200000F07EFD0020A06107202061002010BDA2
:100D3000FEE7000000B585B014216846FFF76FFAA2
:100D4000C02000900120019002900220039069468B
:100D50000248FFF7D3FA05B000BD000000040048C8
:100D600070B50824002500F0D1FC13E06806050EDC
:100D7000002000F0B3FC142000F018FF142000F055
:100D800015FF012000F0AAFC142000F00FFF00F076
:100D9000B1FC0543641EE4B2E8D2002000F09EFCE2
:100DA000142000F003FF00F0D3FC284670BD70B59E
:100DB0000446082516E000F091FC142000F0F6FE31
:100DC00004F0800000F0B8FC142000F0EFFE600694
:100DD000040E142000F0EAFE012000F07FFC142035
:100DE00000F0E4FE6D1EEDB24FF00000E3D200F023
:100DF00075FCBDE87040142000F0D8BE10B501208D
:100E000000F09AFC142000F0D1FE012000F066FCF6
:100E1000142000F0CBFE002000F08EFC142000F027
:100E2000C5FE002000F05AFCBDE81040142000F080
:100E3000BDBE10B5002000F051FC142000F0B6FE3D
:100E4000002000F079FC142000F0B0FE012000F03A
:100E500045FC142000F0AAFE012000F06DFCBDE866
:100E60001040142000F0A2BE10B5052400F04EFC86
:100E7000142000F09BFE012000F030FC142000F054
:100E800095FE05E0641EA4B2142000F08FFE6CB144
:100E900000F030FC0028F5D100F05AFC002000F0F2
:100EA0001DFC142000F082FE002010BD00F050FC5C
:100EB000FFF7BFFF012010BD00B585B014216846C3
:100EC000FFF7ADF94FF6FF70009000200321CDE948
:100ED0000201019069460248FFF710FA05B000BD13
:100EE0000008004800B585B014216846FFF797F95F
:100EF0004FF6FF7000900120019003200390002026
:100F0000029069460248FFF7F9F905B000BD0000FC
:100F10000008004870B5002406462146204600F02F
:100F200003F900F041F94FF49635304600F010F91E
:100F3000641CAC42F9D370BD30B587B0142168464B
:100F4000FFF76DF91E48C16C41F00401C164C16C2A
:100F500001F004010591C16C41F00101C164C16C53
:100F600001F001010591C16C41F00201C164C06C46
:100F7000012500F0020005904FF44870CDE900050E
:100F800000240394694602940E48FFF7B7F928023B
:100F900003940090CDE901544FF0904469462046F7
:100FA000FFF7ACF9FFF79EFFA06940F48070A061E5
:100FB00004481830016841F40871016007B030BD81
:100FC0000010024000040048203AD2B2034B02EB6A
:100FD000420203EB021200F019B800008C1C00085A
:100FE000F0B50E460746002540F23F1407E02146C3
:100FF0003846FFF7E9FF103C6D1CA4B2761C32782E
:10100000002A01D0142DF2D3F0BD00002DE9F047E5
:1010100091468A460026044600F086F8DFF84080B4
:10102000012700BF00F0C0F85FF0000539F8160096
:1010300007FA05F10842404601D1408800E00088E7
:1010400000F086F86D1C102DF0D3641CE4B25146FC
:10105000204600F069F8761C182EE3D3BDE8F0872F
:101060000200002010B5FFF767FF002000F014F821
:10107000084CA080A088A0F50241303906D000F0CD
:101080002BFA002000F008F8A08010BD00F09BF9BA
:10109000F7E700000200002070B51D490A6842F41D
:1010A00000720A600A6842F480720A60184C103CB0
:1010B000226842F020022260164A1060086840F060
:1010C0002000086000BF00BF00BF206840F0200083
:1010D0002060206840F480702060FFF7EDFE4FF044
:1010E0009041886A40F48070886200BF00BF00BFF2
:1010F0000848001F006885B2886940F480708861E4
:10110000FFF7F0FE206840F400702060284670BDB4
:10111000280400481408004801B5BDF80000014942
:10112000488008BD0200002010B50C460146202072
:1011300000F068F82146BDE81040212000F062B8B8
:1011400001B5BDF800000149088008BD020000207B
:10115000134A116841F400711160114910390B688C
:1011600043F480730B600B6843F020030B600D4B5E
:101170001860106840F02000106000BF00BF00BF82
:10118000086840F020000860086840F4807008603B
:1011900000BF00BF00BF086840F4007008607047DF
:1011A00028040048140800481449086840F40070F6
:1011B0000860086840F480700860104810380268C1
:1011C00042F0200202600E4B22221A600A6842F0AE
:1011D00020020A6000BF00BF00BF016841F020018B
:1011E0000160016841F48071016000BF00BF00BF71
:1011F000016841F400710160704700002804004854
:1012000014080048184B10B51A6842F400721A60AE
:101210001A6842F480721A60134A103A146844F053
:1012200020041460114C2060186840F02000186001
:1012300000BF00BF00BF106840F0200010601068C1
:1012400040F4807010602160186840F02000186041
:1012500000BF00BF00BF106840F0200010601068A1
:1012600040F48070106010BD280400481408004845
:101270002DE9F04186B014216846FEF7D0FF2E48D4
:10128000C16C41F00401C164C16C01F0040105911D
:10129000C16C41F02001C164C16C01F020010591D5
:1012A000C16C41F00101C164C16C01F00101059103
:1012B000C16C41F00801C164C16C01F008010591E5
:1012C000C16C41F00201C164C06C1C4E00F0020010
:1012D0004FF47F440590002221463046FFF7F7F88F
:1012E000174F002204213846FFF7F1F8DFF8548049
:1012F0000022C0214046FFF7EAF80125CDE900456C
:1013000000240294694630460394FEF7F7FF042058
:101310000090CDE90154694638460394FEF7EEFF8C
:10132000C0200090CDE90154694640460394FEF781
:10133000E5FF06B0BDE8F08100100240000800485B
:10134000000C00480004004810B5FFF757FD5F206F
:10135000FFF72DFDFFF788FDFFF702FD0446FFF7BD
:1013600083FDFFF766FD204610BD10B50446FFF76C
:1013700045FD5E20FFF71BFDFFF776FD2046FFF7DA
:1013800016FDFFF771FDBDE81040FFF752BDFEE707
:101390007047000010B500224FF47F410748FFF767
:1013A00096F8074C012204212046FFF790F82046CA
:1013B0000022BDE810400421FFF789B8000800486A
:1013C000000C0048704730B501210020FFF71AFFDC
:1013D0004FF47A70FEF771FF00210120FFF712FF32
:1013E00041F290711020FFF70DFF4FF41C51602067
:1013F000FFF708FF01216120FFF704FF02214620CB
:10140000FFF700FF48F210011320FFF7FBFE48F240
:10141000FE011220FFF7F6FE4FF4A0610220FFF755
:10142000F1FE41F230010320FFF7ECFE40F20334FD
:1014300021463020FFF7E6FE21463120FFF7E2FE8D
:1014400021463220FFF7DEFEE51E29463320FFF756
:10145000D9FE03213420FFF7D5FE21463520FFF7C2
:10146000D1FE14213620FFF7CDFE21463720FFF7AD
:10147000C9FE21463820FFF7C5FE21463920FFF777
:10148000C1FE29463A20FFF7BDFE03213B20FFF7AE
:10149000B9FE21463C20FFF7B5FE4FF4A0513D2098
:1014A000FFF7B0FE4FF400719220FFF7ABFE21462C
:1014B0009320FFF7A7FE40F60D019020FFF7A2FE54
:1014C00041F218010320FFF79DFEBDE8304040F2D5
:1014D00073110720FFF796BE10B543F20801E32011
:1014E000FFF790FE1221E720FFF78CFE41F2312139
:1014F000EF20FFF787FE00210120FFF783FE4FF466
:10150000E0610220FFF77EFE41F230010320FFF789
:1015100079FE00210420FFF775FE40F20721082024
:10152000FFF770FE00210920FFF76CFE00210A2062
:10153000FFF768FE00210C20FFF764FE00210D205C
:10154000FFF760FE00210F20FFF75CFE0021102056
:10155000FFF758FE07211120FFF754FE002112204B
:10156000FFF750FE00211320FFF74CFEC820FEF7C6
:10157000B3FE41F290611020FFF744FE40F22721B4
:101580001120FFF73FFE3220FEF7A6FE1D2112209C
:10159000FFF738FE3220FEF79FFE4FF40061132064
:1015A000FFF730FE14212920FFF72CFE0B212B2002
:1015B000FFF728FE3220FEF78FFE00212020FFF7E4
:1015C00021FE00212120FFF71DFE07213020FFF71B
:1015D00019FE40F207713120FFF714FE0621322078
:1015E000FFF710FE40F204713520FFF70BFE41F6C5
:1015F00004713620FFF706FE04213720FFF702FEB4
:1016000000213820FFF7FEFD40F206713920FFF778
:10161000F9FD40F201713C20FFF7F4FD0F213D2060
:10162000FFF7F0FD00215020FFF7ECFDEF215120E6
:10163000FFF7E8FD00215220FFF7E4FD40F23F11E3
:101640005320FFF7DFFD4FF41C516020FFF7DAFD58
:1016500001216120FFF7D6FD00216A20FFF7D2FDAE
:1016600000218020FFF7CEFD00218120FFF7CAFD79
:1016700000218220FFF7C6FD00218320FFF7C2FD75
:1016800000218420FFF7BEFD00218520FFF7BAFD71
:1016900010219020FFF7B6FD00219220FFF7B2FD48
:1016A00003219320FFF7AEFD4FF488719520FFF7DB
:1016B000A9FD00219720FFF7A5FD00219820FFF745
:1016C000A1FD41F218010320FFF79CFDBDE8104089
:1016D00040F273110720FFF795BD000008B10448E0
:1016E00001E003481030016841F04001016070479B
:1016F0001804004810B580210348FEF7E3FE0128D6
:1017000000D0002010BD00000004004800B585B0E6
:1017100014216846FEF783FD802000900020019090
:10172000012002900220039069460248FEF7E6FD80
:1017300005B000BD0004004808B1044801E00348BA
:101740001030016841F080010160704718040048C2
:1017500000B585B014216846FEF761FD8020009039
:101760001120019000200290022003906946024857
:10177000FEF7C4FD05B000BD000400487047FEF749
:10178000B1BE10B594B038216846FEF748FD14216B
:101790000EA8FEF744FD0020FEF72CFF012000906C
:1017A0000004019002200324CDE907042821CDE99B
:1017B0000A100C900D9009946846FFF79FF80F20CF
:1017C000CDE90E04002010901190129007210EA870
:1017D000FEF76EFF14B010BD0548016841F47001BA
:1017E000016003494FF000608039086070470000D5
:1017F00088ED00E0FEE700000FB4084B10B504A927
:1018000002AA039800F02CF8044602A9002000F078
:10181000C8F9204610BC5DF814FB0000A31B0008AB
:101820000907090E002804DB00F1E02080F800140D
:10183000704700F00F0000F1E02080F8141D7047A1
:1018400002E008C8121F08C1002AFAD17047704789
:10185000002001E001C1121F002AFBD170470000E7
:101860002DE9FF4F8BB088460546002606E0252867
:101870000BD0DDE90D1290476D1C761C28780028EE
:10188000F5D10FB03046BDE8F08F0024A146A24646
:101890000122AE4900E0044315F8013F203B02FA63
:1018A00003F00842F7D128782A2810D06FF02F02D1
:1018B0002878A0F13001092915D809EB890102EB3C
:1018C000410144F0020400EB01096D1CF0E758F8F7
:1018D000041B5FEA010903D544F40054C9F100096F
:1018E00044F002046D1C28782E2817D115F8010F3A
:1018F00044F004042A280ED06FF02F022878A0F1BB
:10190000300109290AD80AEB8A0102EB410100EBF8
:10191000010A6D1CF2E758F804AB6D1C28786C289E
:101920000FD006DC4C2817D068280DD06A2814D1B7
:1019300004E0742810D07A280FD10DE044F400148C
:101940000AE044F4801401E044F4401469788142D0
:1019500002D104F580146D1C6D1C2878692865D0AF
:1019600006DC00288DD0632827D0642806D15DE0EE
:101970006E2808D073282AD0752877D0DDE90D129B
:101980009047761CE0E0C4F30250022809D00328F7
:101990000DD0D8F8001004280DD00E6008F104080E
:1019A000D2E0D8F80010F217C1E90062F6E7D8F8E3
:1019B00000100E80F2E70E70F0E718F8041B8DF8A7
:1019C000001000208DF80100EB46012003E058F8DC
:1019D00004BB4FF0FF3061074FF0000701D40AE06D
:1019E0007F1C57450DDA8742FADB1BF807100029E8
:1019F000F6D106E07F1C8742FCDB1BF807100029AC
:101A0000F8D1DDE90D23A9EB07008146214600F05E
:101A1000B1F83044C61904E0DDE90D121BF8010BE2
:101A200090477F1EF8D22146484688E058F8040BBC
:101A3000C4F302514FF00A0B032900D100B204296C
:101A400000D140B2002802DA40422D2102E02105F7
:101A500005D52B218DF82410012104E006E0E107D3
:101A600010D02021F6E708AF089113E058F8040BD6
:101A7000C4F302514FF00A0B032900D180B20429AC
:101A800000D1C0B20021EEE75946FEF7D3FB30315A
:101A900007F8011D0028F7D1ADEB070000F1200B7E
:101AA000600702D524F4803401E04FF0010ADA45E2
:101AB00002DDAAEB0B0000E00020824600EB0B01E8
:101AC00008980144A9EB01000A90E00306D4DDE97F
:101AD0000D2321460A9800F04DF806444FF0000906
:101AE00008E009A911F80900DDE90D12904709F194
:101AF0000109761C08998945F3DBE0030CD5DDE983
:101B00000D2321460A9800F035F8064404E0DDE98B
:101B10000D1230209047761CBAF10001AAF1010A9B
:101B2000F5DC05E0DDE90D1217F8010B9047761C96
:101B3000BBF10001ABF1010BF4DC0A982146DDE9B1
:101B40000D2300F005F806446D1C97E609280100F6
:101B50002DE9F041044600251E461746880404D4AA
:101B600005E039462020B0476D1C641EF9D5284693
:101B7000BDE8F0812DE9F041044600251E4690465F
:101B8000C80301D5302700E02027880404D505E0EC
:101B900041463846B0476D1C641EF9D52846BDE85D
:101BA000F0810A68531C0B6010707047002100E040
:101BB000491C8142FCD37047FEF79CFCFFF7E1FD16
:101BC000FFF756FBFFF7B6F8FFF74CFA0020FFF7D8
:101BD000A1F90020FFF7B4FA4FF6FF752846FFF78A
:101BE0009BFA18A10020FFF7FBF91C4C2078FFF7A7
:101BF000BCFB22781AA11F48FFF7FEFD2846FFF71D
:101C00009FFA0020FFF788FA1A491820FFF7E8F931
:101C1000FFF79AFB60700246164817A11430FFF7D1
:101C2000EBFD2846FFF78CFA0020FFF775FA114903
:101C300030201431FFF7D4F9FFF7ACFBFEF724FB9B
:101C4000FEE700004D435034303137205465737443
:101C50002050726F67726F6D00000000000000205E
:101C60004D43503430313720577269746520253325
:101C700064000000180000204D43503430313720FC
:101C800052656164202025336400000000000000DC
:101C90000000000000000000000000000000000044
:101CA0000000000000000000000000000000000034
:101CB00000000000000000000000000000008001A3
:101CC000800180018001800180018001800180010C
:101CD00080018001800180010000000080018001FE
:101CE00000000000000000000000000000000000F4
:101CF000CC00CC00CC00CC00CC00CC00000000001C
:101D000000000000000000000000000000000000D3
:101D100000000000000000000000000000000000C3
:101D20000000000000000000600C600C600C300639
:101D30003006FE1FFE1F300638071803FE1FFE1F69
:101D4000180318038C018C018C0100000000800036
:101D5000E003F80F9C0E8C1C8C188C009800F80186
:101D6000E007800E801C8C188C189C18B80CF00FA3
:101D7000E003800080000000000000000000000080
:101D800000000E181B0C110C110611061103110393
:101D90009B018E01C038C06C6044604430443044C4
:101DA0001844186C0C380000000000000000E0012E
:101DB000F0033807180618063003F001F000F800A9
:101DC0009C310E33061E061C061C063FFC73F021D8
:101DD0000000000000000000000000000000000003
:101DE0000C000C000C000C000C000C0000000000AB
:101DF00000000000000000000000000000000000E3
:101E000000000000000000000000000000000002D0
:101E100000038001C000C00060006000300030009E
:101E200030003000300030003000300060006000D2
:101E3000C000C0008001000300020000000020007C
:101E40006000C0008001800100030003000600065E
:101E50000006000600060006000600060003000358
:101E600080018001C0006000200000000000000030
:101E70000000000000000000C000C000D806F80705
:101E8000E0013003380700000000000000000000FF
:101E90000000000000000000000000000000000042
:101EA000000000000000000080018001800180012E
:101EB0008001FC3FFC3F80018001800180018001A6
:101EC0000000000000000000000000000000000012
:101ED0000000000000000000000000000000000002
:101EE0000000000000000000000000000000800171
:101EF00080010001000180000000000000000000DF
:101F000000000000000000000000000000000000D1
:101F100000000000E007E0070000000000000000F3
:101F200000000000000000000000000000000000B1
:101F300000000000000000000000000000000000A1
:101F40000000000000000000000000000000C000D1
:101F5000C000000000000000000000000000000CB5
:101F6000000C0006000600060003000300038003C7
:101F7000800180018001C000C000C00060006000DE
:101F80000000000000000000000000000000E0036E
:101F9000F007380E180C0C180C180C180C180C182C
:101FA0000C180C180C180C18180C380EF007E0035D
:101FB0000000000000000000000000000000000120
:101FC0008001C001F0019801880180018001800139
:101FD00080018001800180018001800180018001F9
:101FE0000000000000000000000000000000E0030E
:101FF000F80F180C0C180C1800180018000C00062C
:1020000000038001C000600030001800FC1FFC1FAE
:102010000000000000000000000000000000E001DF
:10202000F807180E0C0C0C0C000C0006C003C007BF
:10203000000C001800180C180C18180CF807E00316
:102040000000000000000000000000000000000C84
:10205000000E000F000F800DC00C600C600C300CE7
:10206000180C0C0CFC3FFC3F000C000C000C000C8E
:102070000000000000000000000000000000F80F59
:10208000F80F180018000C00EC03FC071C0E001CD5
:102090000018001800180C181C0C180EF807E003A4
:1020A0000000000000000000000000000000C00769
:1020B000F00F381C181818000C00CC03EC0F3C0E65
:1020C0001C1C0C180C180C18181C380EF007E00318
:1020D0000000000000000000000000000000FC1FE5
:1020E000FC1F000C00060006000380038001C001F5
:1020F000C000E00060006000700030003000300080
:102100000000000000000000000000000000E003EC
:10211000F007380E180C180C180C3806F007F007EA
:10212000180C0C180C180C180C18380CF80FE003CD
:102130000000000000000000000000000000E003BC
:10214000F007380E1C0C0C180C180C181C1C381E30
:10215000F81BE0190018000C000C1C0EF807F00129
:10216000000000000000000000000000000000006F
:10217000000000000000000080018001000000005D
:10218000000000000000000000000000800180014D
:10219000000000000000000000000000000000003F
:1021A000000000000000000080018001000000002D
:1021B000000000000000000000000000800180011D
:1021C000000100018000000000000000000000008D
:1021D0000000000000000000000000000010001CD3
:1021E000800FE003F8001800F800E003800F001CE7
:1021F00000100000000000000000000000000000CF
:10220000000000000000000000000000F81F0000B7
:1022100000000000F81F00000000000000000000A7
:1022200000000000000000000000000000000000AE
:10223000000000000000000000000000080038005E
:10224000F001C007001F0018001FC007F001380090
:102250000800000000000000000000000000E00393
:10226000F80F180C0C180C180018000C00060003CE
:102270008001C000C000C00000000000C000C0001D
:10228000000000000000000000000000000000004E
:10229000E00718180420C229224A114409440944BD
:1022A000094409221113E20C024004201818E00727
:1022B000000000000000000000000000000080039B
:1022C0008003C006C006C006600C600C30183018D1
:1022D0003018F83FF83F1C700C600C6006C006C058
:1022E0000000000000000000000000000000FC03EF
:1022F000FC0F0C0C0C180C180C180C0CFC07FC0F29
:102300000C180C300C300C300C300C18FC1FFC0777
:102310000000000000000000000000000000C007F6
:10232000F01F38381C300C700660060006000600EE
:1023300006000600060006600C701C30F01FE00767
:102340000000000000000000000000000000FE038C
:10235000FE0F060E06180618063006300630063048
:1023600006300630063006180618060EFE0FFE036D
:102370000000000000000000000000000000FC3F22
:10238000FC3F0C000C000C000C000C00FC1FFC1FA0
:102390000C000C000C000C000C000C00FC3FFC3F7F
:1023A0000000000000000000000000000000F83FF6
:1023B000F83F18001800180018001800F81FF81F40
:1023C000180018001800180018001800180018004D
:1023D0000000000000000000000000000000E00F0E
:1023E000F83F3C780E6006E007C00300030003FEE0
:1023F00003FE03C007C006C00EC03CF0F83FE00F6C
:1024000000000000000000000000000000000C3090
:102410000C300C300C300C300C300C30FC3FFC3FDE
:102420000C300C300C300C300C300C300C300C30CC
:10243000000000000000000000000000000080011B
:102440008001800180018001800180018001800184
:102450008001800180018001800180018001800174
:102460000000000000000000000000000000000666
:10247000000600060006000600060006000600062C
:10248000000600060006180618063807F003E001EB
:102490000000000000000000000000000000063006
:1024A0000618060C060606038601C60066007600BE
:1024B000DE008E0106030606060C061806300660CE
:1024C00000000000000000000000000000001800F4
:1024D000180018001800180018001800180018003C
:1024E000180018001800180018001800F81FF81F2E
:1024F00000000000000000000000000000000EE0EE
:102500001EF01EF01EF036D836D836D836D866CC37
:1025100066CC66CCC6C6C6C6C6C6C6C686C386C395
:1025200000000000000000000000000000000C306F
:102530001C303C303C306C306C30CC30CC308C318A
:102540000C330C330C360C360C3C0C3C0C380C3079
:102550000000000000000000000000000000E00794
:10256000F81F1C380E70066003C003C003C003C010
:1025700003C003C003C006600E701C38F81FE007DC
:102580000000000000000000000000000000FC0F40
:10259000FC1F0C380C300C300C300C300C18FC1FAD
:1025A000FC070C000C000C000C000C000C000C00D4
:1025B0000000000000000000000000000000E00734
:1025C000F81F1C380E70066003E003C003C003C090
:1025D00003C003C007E006630E3F1C3CF83FE0F772
:1025E00000C0000000000000000000000000FE0F1E
:1025F000FE1F06380630063006300638FE1FFE077E
:1026000006030606060C0618061806300630066095
:102610000000000000000000000000000000E003D7
:10262000F80F1C0C0C180C180C001C00F803E00F21
:10263000001E0038063006300E301C1CF80FE00774
:102640000000000000000000000000000000FE7F0D
:10265000FE7F800180018001800180018001800176
:102660008001800180018001800180018001800162
:1026700000000000000000000000000000000C301E
:102680000C300C300C300C300C300C300C300C306A
:102690000C300C300C300C300C301818F81FE007E0
:1026A00000000000000000000000000000000360C7
:1026B0000630063006300C180C180C18180C180CC4
:1026C000380E30063006700760036003C001C00199
:1026D0000000000000000000000000000000036097
:1026E000C361C361C3616633663366336633663381
:1026F00066336C1B6C1B6C1B2C1A3C1E380E380E80
:1027000000000000000000000000000000000FE0DA
:102710000C7018303018700C600EC00780038003F6
:10272000C003E006700C301C18180C300E6007E077
:10273000000000000000000000000000000003C0D6
:1027400006600C301C383818300C6006E007C003F7
:102750008001800180018001800180018001800171
:102760000000000000000000000000000000FC7FEE
:10277000FC7F006000300018000C000600038001A0
:10278000C0006000300018000C000600FE7FFE7FD5
:102790000000000000000000000000000000E00356
:1027A000E0036000600060006000600060006000A6
:1027B0006000600060006000600060006000600019
:1027C000600060006000E003E003000000003000F3
:1027D0003000600060006000C000C000C000C001A8
:1027E0008001800180010003000300030006000651
:1027F0000000000000000000000000000000E003F6
:10280000E0030003000300030003000300030003D0
:1028100000030003000300030003000300030003A0
:10282000000300030003E003E003000000000000D9
:10283000C001C00160036003600330063006180C5D
:10284000180C000000000000000000000000000064
:102850000000000000000000000000000000000078
:102860000000000000000000000000000000000068
:102870000000000000000000000000000000FFFF5A
:10288000FFFF0000000000000000000000000C003E
:102890000C000C000C000C000C00000000000000FC
:1028A0000000000000000000000000000000000028
:1028B0000000000000000000000000000000000018
:1028C0000000000000000000F003F8071C0C0C0CD6
:1028D000000FF00FF80C0C0C0C0C1C0FF80FF0187C
:1028E00000000000000000000000000000001800D0
:1028F0001800180018001800D803F80F380C181822
:1029000018181818181818181818380CF80FD803B1
:1029100000000000000000000000000000000000B7
:102920000000000000000000C003F007300E180C8B
:102930001800180018001800180C300EF007C0031B
:10294000000000000000000000000000000000186F
:102950000018001800180018C01BF01F301C1818B1
:1029600018181818181818181818301CF01FC01B41
:102970000000000000000000000000000000000057
:102980000000000000000000C003F00F300C181819
:10299000F81FF81F180018003818301CF00FC00777
:1029A0000000000000000000000000000000800F98
:1029B000C00FC000C000C000F007F007C000C0009A
:1029C000C000C000C000C000C000C000C000C00007
:1029D00000000000000000000000000000000000F7
:1029E0000000000000000000E00DF80F180E0C0CB5
:1029F0000C0C0C0C0C0C0C0C0C0C180EF80FE00D45
:102A0000000C0C0C1C06F807F00100000000180078
:102A10001800180018001800D807F80F381C1818EC
:102A20001818181818181818181818181818181826
:102A30000000000000000000000000000000C000D6
:102A4000C000000000000000C000C000C000C000C6
:102A5000C000C000C000C000C000C000C000C00076
:102A60000000000000000000000000000000C000A6
:102A7000C000000000000000C000C000C000C00096
:102A8000C000C000C000C000C000C000C000C00046
:102A9000C000C000C000F8007800000000000C007A
:102AA0000C000C000C000C000C0C0C060C038C0130
:102AB000CC006C00FC009C018C030C030C060C0C7D
:102AC0000000000000000000000000000000C00046
:102AD000C000C000C000C000C000C000C000C000F6
:102AE000C000C000C000C000C000C000C000C000E6
:102AF00000000000000000000000000000000000D6
:102B000000000000000000007C3CFF7EC7E383C1A2
:102B100083C183C183C183C183C183C183C183C195
:102B200000000000000000000000000000000000A5
:102B300000000000000000009807F80F381C18186B
:102B40001818181818181818181818181818181805
:102B50000000000000000000000000000000000075
:102B60000000000000000000C003F00F300C181837
:102B700018181818181818181818300CF00FC00367
:102B80000000000000000000000000000000000045
:102B90000000000000000000D803F80F380C1818DF
:102BA00018181818181818181818380CF80FD8030F
:102BB000180018001800180018000000000000009D
:102BC0000000000000000000C01BF01F301C18189F
:102BD00018181818181818181818301CF01FC01BCF
:102BE000001800180018001800180000000000006D
:102BF0000000000000000000B007F003700030008B
:102C00003000300030003000300030003000300044
:102C100000000000000000000000000000000000B4
:102C20000000000000000000E003F003380E180C64
:102C30003800F003C007000C180C380EF007E00352
:102C40000000000000000000000000000000000084
:102C50008000C000C000C000F007F007C000C00046
:102C6000C000C000C000C000C000C000C007800796
:102C70000000000000000000000000000000000054
:102C80000000000000000000181818181818181884
:102C900018181818181818181818381CF01FE019E8
:102CA0000000000000000000000000000000000024
:102CB00000000000000000000C18180C180C180C84
:102CC000300630063006600360036003C001C001B7
:102CD00000000000000000000000000000000000F4
:102CE0000000000000000000C141C141C3616363F6
:102CF000636363633636363636361C1C1C1C1C1C5C
:102D000000000000000000000000000000000000C3
:102D100000000000000000001C38381C300C600669
:102D200060036003600360036006300C381C1C38CD
:102D30000000000000000000000000000000000093
:102D40000000000000000000183030183018701823
:102D5000600C600CE00CC006C0068003800380039A
:102D600080018001C001F000700000000000000040
:102D70000000000000000000FC1FFC1F000C00060B
:102D800000038001C000600030001800FC1FFC1F21
:102D90000000000000000000000000000000000330
:102DA0008001C000C000C000C000C000C0006000C2
:102DB0006000300060004000C000C000C000C000E3
:102DC000C000C0008001000300000000000080017E
:102DD00080018001800180018001800180018001EB
:102DE00080018001800180018001800180018001DB
:102DF00080018001800180018001000000006000EE
:102E0000C000C001800180018001800180010003B9
:102E100000030006000300018001800180018001A1
:102E200080018001C0006000000000000000000080
:102E3000000000000000000000000000F010F81F7B
:102E4000080F00000000000000000000000000006B
:102E50000000000000000000000000000000000072
:102E60000000000001020304060708098C2E000878
:102E7000000000201800000040180008A42E0008E0
:102E80001800002028040000501800087D000000F1
:102E9000FFFF000010000000010000000000000023
:042EA0000024F40016
:04000005080001D915
:00000001FF
