:020000040800F2
:1000000088050020ED010008831B00089D1A0008E8
:10001000811B0008F9020008FD280008000000000C
:10002000000000000000000000000000871B000826
:10003000B703000800000000851B0008891B0008AA
:10004000070200080702000807020008070200086C
:10005000070200080702000807020008070200085C
:10006000070200080702000807020008FD02000856
:100070000903000807020008070200080702000839
:10008000070200080000000007020008070200083D
:10009000070200080702000807020008070200081C
:1000A000070200080702000807020008070200080C
:1000B00007020008070200080702000807020008FC
:1000C00007020008070200080702000807020008EC
:1000D00007020008D12800080702000807020008EC
:1000E00007020008070200080702000807020008CC
:1000F00007020008070200080702000800000000CD
:1001000000000000070200080000000007020008CD
:1001100007020008000000000702000807020008AC
:10012000070200080702000807020008070200088B
:10013000070200080000000000000000070200089D
:10014000070200080702000800000000000000008D
:10015000000000000000000000000000000000009F
:10016000000000000000000000000000070200087E
:10017000070200080000000000000000000000006E
:10018000000000000702000800000000000000005E
:10019000000000000000000000000000000000005F
:1001A000000000000000000007020008070200082D
:1001B000070200080702000807020008000000000C
:1001C000000000000702000800000000000000001E
:1001D0000702000807020008DFF80CD000F07AF8E8
:1001E00000480047912900088805002006488047FC
:1001F00006480047FEE7FEE7FEE7FEE7FEE7FEE70C
:10020000FEE7FEE7FEE7FEE7F91B0008D90100085C
:100210002DE9F05F0546002092469B46884606463B
:10022000814640241BE0284641464746224600F0CE
:1002300041F853465A46C01A914110D31146184608
:10024000224600F028F82D1A67EB01084F46224697
:100250000120002100F01FF817EB00094E41201E7D
:10026000A4F10104DFDC484631462A464346BDE896
:10027000F09FD2B201E000F8012B491EFBD270477B
:100280000022F6E710B513460A4604461946FFF762
:10029000F0FF204610BD202A04DB203A00FA02F1CC
:1002A000002070479140C2F1200320FA03F3194364
:1002B00090407047202A04DB203A21FA02F0002106
:1002C000704721FA02F3D040C2F120029140084366
:1002D00019467047064C074D06E0E06840F0010300
:1002E00094E8070098471034AC42F6D3FFF778FF44
:1002F000142A0008342A0008FEE70000014800F034
:10030000CFB80000C8000020014800F0C9B80000C4
:10031000280100200D4902688A4201D20C4901E0FF
:100320000B492031D2B21423083AB2FBF3F2436CEA
:1003300002F01F0223F00303194481640449803151
:10034000C16401219140016570470000080402402A
:10035000000802400179074A02EB81024265054A22
:100360004432491E826501F01F0201219140C1659E
:1003700070470000FC08024030B5D0E913456560C5
:10038000446D14B1D0E91645656090F8444004F01E
:100390001F050124AC40056C6C60046863608368D1
:1003A000102B036803D099600068C26030BD9A606A
:1003B0000068C16030BD7047704710B590F82530B7
:1003C00000210122022B03D00421C163012122E07C
:1003D00003681C6824F00E041C60836C1C6824F401
:1003E00080741C6003681C6824F001041C6090F891
:1003F0004430046C03F01F0302FA03F36360D0E996
:1004000013345C60436D33B11C6824F480741C6049
:10041000D0E916345C6080F82520002280F8242082
:10042000084610BD70B590F8252000240121234610
:10043000022A07D00422C26380F8251080F82430F5
:10044000012429E00268156825F00E051560026890
:10045000156825F001051560826C156825F4807516
:10046000156090F84420056C02F01F0201FA02F2B8
:100470006A60D0E913255560426D32B1156825F4E4
:1004800080751560D0E91625556080F8251080F834
:100490002430816B01B18847204670BDC06B704726
:1004A000F0B4016C0C6801680D6890F8442002F00B
:1004B0001F06042202FA06F3234211D06B070FD560
:1004C0000B689B0603D40B6823F004030B6090F8C1
:1004D000441001F01F018A40016C4A60016B1DE06D
:1004E000022303FA06F727424FF0000C4FF00102F7
:1004F00018D0AF0716D50C68A40605D40C6824F0F4
:100500000A040C6080F8252090F8441001F01F01C7
:100510008B40016C4B6080F824C0C16A00291AD05E
:10052000F0BC08470823B340234214D02B0712D550
:100530000B6823F00E030B6090F84410036C01F07D
:100540001F0102FA01F15960C26380F8252080F88A
:1005500024C0416BE2E7F0BC7047000070B50400B6
:100560000CD02B4A21681420914209D2294A0A440E
:10057000B2FBF0F08000606427480AE0012070BD03
:10058000234A52420A44B2FBF0F0800060642048E3
:1005900008382064022084F825000A6847F6F070C5
:1005A0008243D4E902031843D4E904352B431843AA
:1005B000A3691843E3691843236A1843104308608A
:1005C0002046FFF7A7FEA0680025B0F5804F00D1B8
:1005D0006560A16C20790860D4E91301416060680E
:1005E000401E032808D82046FFF7B4FE606D056062
:1005F000D4E91601416002E06565A565E565E5633E
:10060000012084F8250084F82450002070BD0000EB
:1006100008040240F8FFFDBF0000024070B5044628
:1006200090F82400002501280CD0012084F8240033
:1006300094F825600020012E06D084F824000225BD
:10064000284670BD022070BD022684F82560E06354
:100650002068066826F0010606602046FFF78CFE3B
:10066000206B00282068016802D041F00E0106E0EE
:1006700021F0040101602068016841F00A01016075
:10068000A06C0168C90303D5016841F48071016061
:10069000606D18B1016841F48071016020680168E3
:1006A00041F001010160CBE770B5044600F0F2F8BB
:1006B0000546601C02D004484068044400F0EAF893
:1006C000401BA042FAD370BD040000202DE9FC4F6E
:1006D000DFF8A0A1002301250AF1040B03244FF049
:1006E0000F0C0BF1040EBDE005FA03F632406FD09B
:1006F0004F68012F05D0022F03D0112F01D0122FE8
:1007000017D1D0F808905F0004FA07F829EA080921
:100710000097D1F80C8008FA07F848EA0908C0F8F1
:1007200008804768B7430E79C6F300169E403E43E3
:100730004660C6684FEA430804FA08F7BE430197CB
:100740008F6807FA08F73743C7604E68022E01D05A
:10075000122E13D1DE0800EB86060096366A5F077C
:10076000FF0E0CFA07F926EA0906D1F8109009FAEB
:1007700007F949EA0609009EC6F820900668019F1D
:10078000BE430F7907F0030707FA08F737430760FE
:100790004E68F60065D5384E376E47F0010737666C
:1007A000366E23F0030706F001060096334E3E44F2
:1007B000B146B6689F074FEA17780CFA08F7BE43B0
:1007C000B0F1904F05D02E4FB84204D1012717E069
:1007D00047E0002714E02B4FB84201D102270FE079
:1007E000294FB84201D103270AE0284FB84201D16E
:1007F000042705E0264FB84201D1052700E006276F
:1008000007FA08F73743C9F80870DAF80060574666
:10081000D1F8048096435FEAC83800D516433E609D
:10082000DBF800605F46D1F8048096435FEA8838C1
:1008300000D516433E60DEF800607746D1F80480AC
:1008400096435FEAC82800D516433E60094F0C372F
:100850003E68D1F8048096435FEA882800D51643A5
:100860003E605B1C0A6832FA03F67FF43DAFBDE8D8
:10087000FC8F000000040140001002400000014015
:100880000004004800080048000C00480010004820
:1008900000140048014880687047000004000020F0
:1008A000024881684268114481607047040000205A
:1008B00010B50024032000F077F8002000F008F8BD
:1008C00008B1012401E000F025F8204610BD000029
:1008D00070B50E4E05460024706898B14FF47A71D9
:1008E000B1FBF0F00A490968B1FBF0F000F060FDDF
:1008F00040B9102D06D200222946501E00F034F8CF
:10090000356000E00124204670BD00000400002096
:10091000100000200B4808B5016E41F0010101668E
:10092000016E01F001010091816D41F080518165FE
:10093000806D00F0805000900348816841F4804150
:10094000816008BD0010024000700040002809DBF3
:1009500000F01F02012191404009800000F1E020D9
:10096000C0F8001170470000F0B40E4B1B680C4635
:10097000C3F30223C3F10705042D00D90425191D73
:10098000072901D2002300E0DB1E012606FA05F14B
:10099000491E214099409E40761E16403143F0BCCE
:1009A00001F0C0BF0CED00E0064900F00702086846
:1009B0004FF6FF03184040EA0220034A1043086044
:1009C000704700000CED00E00000FA052B492C4BAD
:1009D0000A6832214A432B4940B1B0F5007F0868CC
:1009E00029D020F4C06040F480602CE00868C0F397
:1009F0004120022804D051F8800F20F4807022E0BA
:100A0000D1F8800020F48070C1F88000086820F4DC
:100A1000C06040F400700860B2FBF3F0401C00E0DE
:100A2000401E4A69520501D50028F9D148694005A0
:100A30000AD503207047C0F34120022806D051F8A0
:100A4000800F40F48070086000207047D1F880006B
:100A500040F48070C1F88000086820F4C06040F461
:100A600000700860B2FBF3F0401C00E0401E4A69D1
:100A70005205DBD50028F9D1D8E70000100000208E
:100A800040420F00007000402DE9F8430446006822
:100A900000269D4D00035ED5A86D0027C00008D438
:100AA000A86D40F08050A865A86D012700F0805027
:100AB0000090DFF85892D9F8001041F48071C9F81D
:100AC0000010FFF7E7FE804606E000BFFFF7E2FEFA
:100AD000A0EB080002282BD8D9F80000C005F5D5F6
:100AE000D5F8900010F4407014D0216C814211D0E0
:100AF000D5F89000D5F8901020F4407041F4803182
:100B0000C5F89010D5F8901021F48031C5F89010F8
:100B1000C5F89000C00711D0FFF7BCFE804641F237
:100B2000883907E0FFF7B6FEA0EB0801494501D977
:100B300003260BE0D5F890008007F3D5D5F8900098
:100B4000216C20F440700843C5F890001FB1A86DD7
:100B500020F08050A8652078C00707D0D5F888001D
:100B6000616820F003000843C5F8880020788007FA
:100B700007D5D5F88800A16820F00C000843C5F817
:100B800088002078400707D5D5F88800E16820F074
:100B900030000843C5F888002078000707D5D5F84D
:100BA0008800216920F0C0000843C5F8880020783B
:100BB000800607D5D5F88800616920F440600843B5
:100BC000C5F888002078400607D5D5F88800A169C7
:100BD00020F440500843C5F888002078000607D567
:100BE000D5F88800E16920F440400843C5F8880042
:100BF0002088C00507D5D5F88800216A20F4403048
:100C00000843C5F888002088800507D5D5F88800F6
:100C1000616A20F440200843C5F888002088400518
:100C20000FD5D5F88800A16A20F440100843C5F814
:100C30008800A06AB0F5801F03D1E86840F48010F6
:100C4000E860208800050FD5D5F88800E16A20F417
:100C500040000843C5F88800E06AB0F5800F03D172
:100C6000E86840F48010E8602088C0040FD5D5F80B
:100C70008800216B20F040700843C5F88800206B85
:100C8000B0F1807F03D1E86840F48010E8602088EC
:100C90004FF0006180040ED5D5F88800626B20F01B
:100CA00040601043C5F88800606B884203D1E86853
:100CB00040F48010E860208840040ED5D5F8880004
:100CC000A26B20F040601043C5F88800A06B8842FA
:100CD00003D1E86840F48010E860208800040FD554
:100CE000D5F88800E16B20F040500843C5F8880033
:100CF000E06BB0F1805F03D1E86840F48030E860D9
:100D00003046BDE8F883000000100240007000404B
:100D10002DE9F0470E4605004FF0000725D0DFF81B
:100D2000AC81D8F8000000F00F00B0420CD2D8F827
:100D3000001021F00F013143C8F80010D8F800006E
:100D400000F00F00B04210D12968614CC80741F291
:100D5000883A5AD06868DFF87C91032808D00228C6
:100D600020682DD0400500282CDB0120BDE8F0874D
:100D700020688001F9D5E06800F00302E068C0F364
:100D80000310401C032A19D0534A00BFB2FBF0F0F5
:100D9000E268C2F306225043E268C2F34162521C89
:100DA0005200B0FBF2F0484517D9A06810F0F00FE0
:100DB0000CD0880711D5A86840B10EE0474AE5E796
:100DC0008003D0E700F0B6F8484506D9A06820F0C7
:100DD000F00040F08000A0608027A068696820F0E3
:100DE00003000843A060FFF755FD814606E000BF01
:100DF000FFF750FDA0EB090151453AD8A06869689A
:100E000000F00C00B0EB810FF2D12868810714D5F7
:100E1000400703D5A06840F4E060A0602878000790
:100E200005D5A06820F4605040F4E060A060A068A0
:100E3000A96820F0F000084304E0802F03D1A068E7
:100E400020F0F000A060D8F80010404601F00F013B
:100E5000B14216D9016821F00F0131430160FFF75B
:100E600019FD074607E000BFFFF714FDC11B514500
:100E700001D903207AE7D8F8000000F00F00B04253
:100E8000F2D12878400705D5A068E96820F4E06031
:100E90000843A0602878000706D5A068296920F4D7
:100EA000605040EAC100A06000F044F8A1680C4A1C
:100EB000C1F30311515C01F01F01C84009490860EA
:100EC00009480068BDE8F047FFF702BD0020024076
:100ED0000010024000B4C4040024F40000366E0187
:100EE000FC290008100000200400002005480649E5
:100EF00000688968054AC1F30221515C01F01F01B5
:100F0000C840704710000020001002400C2A000862
:100F10000548064900688968054AC1F3C221515C49
:100F200001F01F01C840704710000020001002406F
:100F30000C2A0008184910B58868C0F381021748C8
:100F4000012A0BD08A68164BC2F38102022A06D00E
:100F50008A68C2F38102032A03D0002010BD18461C
:100F600010BDCA6802F00304CA68C2F30312521C1F
:100F7000032C02D0B0FBF2F001E0B3FBF2F0CA6840
:100F8000C968C2F306225043C1F34161491C4900BC
:100F9000B0FBF1F010BD0000001002400024F4008E
:100FA00000366E012DE9F84304007AD02078FA4D1E
:100FB000C00747D0A868E96800F00C0001F0030101
:100FC0000C2802D0082817D001E0032914D060684B
:100FD000B0F5803F17D0B0F5A02F286817D020F4C7
:100FE00080302860286820F4802028606068E0B1A4
:100FF000FFF750FC064614E02868800322D560689D
:101000000028D2D01EE0286840F48030EDE740F49C
:1010100080202860F7E700BFFFF73CFC801B6428B6
:1010200070D828688003F7D50CE0FFF733FC06463C
:1010300005E000BFFFF72EFC801B6428F0D828686D
:101040008003F7D4207880074CD5A868E96800F0C1
:101050000C0001F003010C2802D004280DD001E09F
:1010600002290AD0E068002828682BD040F480705C
:101070002860FFF70FFC064619E02868400502D5F6
:10108000E068002891D06868217C20F0FE4040EAAA
:1010900001606860C1480068FFF71AFC002800D1B1
:1010A00020E076E1FFF7F6FB801B0228B8D828681D
:1010B0004005F7D56868217C20F0FE4040EA0160D9
:1010C00068600FE020F480702860FFF7E3FB0646BD
:1010D00005E000BFFFF7DEFB801B0228A0D82868D0
:1010E0004005F7D42078000729D560690028D5F895
:1010F000940013D040F00100C5F89400FFF7CAFB3C
:10110000064606E090E000BFFFF7C4FB801B022804
:1011100086D8D5F894008007F6D510E020F00100BD
:10112000C5F89400FFF7B6FB064604E0FFF7B2FBF4
:10113000801B022878D8D5F894008007F6D4207850
:10114000400761D5A86D0026C00008D4A86D40F006
:101150008050A865A86D012600F08050009090484E
:101160000168C90511D40168804641F480710160AD
:10117000FFF790FB074604E0FFF78CFBC01B02283B
:1011800052D8D8F80000C005F6D5A068012815D0BF
:101190000528D5F8900016D020F00100C5F8900081
:1011A000D5F8900020F00400C5F89000A06841F246
:1011B0008838B8B1FFF76EFB07460EE0D5F890000F
:1011C00040F00100F0E740F00400C5F89000F5E7BA
:1011D000FFF760FBC11B414526D8D5F8900080077A
:1011E000F6D50CE0FFF756FB074604E0FFF752FB8D
:1011F000C11B414518D8D5F890008007F6D41EB120
:10120000A86D20F08050A8652078800629D5A069B7
:101210000028D5F8980013D040F00100C5F89800D8
:10122000FFF738FB064606E077E000BFFFF732FB2A
:10123000801B022877D8D5F898008007F6D510E0F3
:1012400020F00100C5F89800FFF724FB064604E0F3
:10125000FFF720FB801B022865D8D5F8980080078F
:10126000F6D4E069F0B3A968C1F38101032961D024
:101270000228286820F0807028600BD0E86820F0F1
:101280000300E860E86847490840E860FFF702FBB0
:1012900004464BE0FFF7FEFA064604E0FFF7FAFAD1
:1012A000801B02283FD828688001F7D4F4E90801A0
:1012B0006FF00F0202EB01110843218A5204490822
:1012C00002EB4151A26841EA02210843217D4FF01F
:1012D0007E42490802EB41610843217B40EAC1603C
:1012E000E96800E062E0304A11400843E86028689D
:1012F00040F080702860E86840F08070E860FFF798
:10130000C9FA044605E000BFFFF7C4FA001B022833
:1013100009D828688001F7D548E004E0FFF7BAFA59
:10132000001B022802D90320BDE8F8832868800149
:10133000F4D43BE00128F7D0E868226A00F003010A
:10134000914226D1616A00F0F00209011039914200
:101350001FD1A26A00F4FE41B1EB022F19D194F81B
:101360002C2000F07841B1EBC26F12D1218E00F435
:10137000C00249084905A1F50011914209D194F82C
:10138000341000F0C06049084906A1F100718142A3
:101390000CD00120C8E7000000100240040000202B
:1013A00000700040FFFFEEFE0C809F010020BBE7B5
:1013B00010B5401EB0F1807F01D3012010BD4FF069
:1013C000E02460610F21601701F0ACFA0020A061F9
:1013D00007202061002010BD90F87C10012918D052
:1013E000012180F87C102421C0F8801050F8601B87
:1013F0000A680B6823F001030B6022F00051002201
:10140000426050F8603C196020210162027710466A
:10141000704702207047704770B5044690F87C0012
:1014200001281DD0012084F87C002420C4F880000D
:1014300020680568026822F0010202602068826864
:1014400022F060620A438260204600F0E3FB2068DD
:1014500005602020C4F88000002084F87C0070BD66
:10146000022070BD70B5044690F87C0001281DD0A4
:10147000012084F87C002420C4F8800020680568DE
:10148000026822F0010202602068826822F0604255
:101490000A438260204600F0BDFB206805602020E2
:1014A000C4F88000002084F87C0070BD022070BD6C
:1014B0007047704770B5D0F880100446D0F884505B
:1014C000006882684FF01006120612D5212910D14B
:1014D000816821F080018160606F38B1FEF76DFF97
:1014E00020B1606FFEF7DAFF20281BD0204600F005
:1014F000DBFC20688168490612D5222D10D1816855
:1015000021F040018160A06F38B1FEF756FF20B195
:10151000A06FFEF7C3FF202804D0204600F0B2FCE5
:10152000002070BDC4F88860032070BD70470000C3
:101530002DE9F04103680446D8691A68996810F0EB
:101540000F0F4FF0000569D05E4E02F490770E4009
:1015500037437DD0C70709D0D70507D501271F62BC
:10156000D4F8883043F00103C4F8883083070AD5E3
:10157000CB0708D0276802233B62D4F8883043F0B9
:101580000403C4F8883043070AD5CB0708D027687E
:1015900004233B62D4F8883043F00203C4F8883057
:1015A00003070CD502F02003334308D02668082334
:1015B0003362D4F8883043F00803C4F88830D4F894
:1015C0008830002B3CD0800609D502F0200001F0C5
:1015D0008051084303D0E16E09B120468847D4F812
:1015E000880021688968490601D400072AD5204669
:1015F00000F048FC2068816849061ED5816821F00A
:1016000040018160A06FC0B12F498163A06FFEF7D8
:1016100009FF002814D0A06F816B0AE0860617D559
:1016200002F0200601F080573E4311D0E16E24E025
:101630002046BDE8F04108470AE02046FFF776FF64
:10164000BDE8F0812046FFF771FFC4F88850F7E746
:10165000C60209D54E0207D54FF480101862204605
:10166000BDE8F041FFF725BF060609D502F0800668
:1016700001F400010E4303D0216F0029D8D1DFE728
:1016800041060DD551060BD51968204621F04001C1
:1016900019602021C4F88010256700F0FDF9CFE71C
:1016A000010206D5510004D52046BDE8F041FFF700
:1016B000FFBEC001C4D5002AC2DA2046BDE8F04111
:1016C000FFF7A9BE010000109F1D00080A4810B5D1
:1016D00000684068094CC0F10A0082B26280084983
:1016E000084800F08DF900206080BDE810400A2213
:1016F0000349044800F0A8B8C800002000000020FA
:10170000140000203C00002010B5040003D0D4F8E1
:10171000800010B107E0012010BD002084F87C009B
:10172000204600F027F82420C4F8800020680168D3
:1017300021F001010160204600F0C4FC0128EBD03B
:10174000A06A10B1204600F097FA2068416821F4A1
:10175000904141602068816821F02A018160206801
:10176000016841F0010101602046BDE8104000F031
:10177000E7BA0000F0B587B0064614216846FEF7C8
:101780007FFD2D493068884254D12C48016E41F4C8
:1017900080410166016E01F480410591C16C41F008
:1017A0000101C164C06C002400F0010005904FF4F9
:1017B000C06000900220CDE901040720CDE903407C
:1017C00069464FF09040FEF781FF1E4D1C48802770
:1017D00028601820C5E90104C5E903476C61AC61C4
:1017E000EC6128462C62FEF7B9FE08B1FEF7E4FD75
:1017F000B567AE62134D1248603514302860192069
:10180000686005F10801102081E891006C61AC610D
:10181000EC6128462C62FEF7A1FE08B1FEF7CCFD74
:101820007567002211462520AE62FFF79DF825203E
:10183000FFF78CF807B0F0BD0038014000100240FF
:1018400008000240C800002070B50446D0F88400AB
:10185000202842D161B35AB394F87C0001283CD0CF
:10186000012084F87C00A165A4F85C200025C4F860
:1018700088502220C4F88400A06FD8B11849C162F2
:10188000A16F184813460863A16F17484863A06FFB
:101890008563A66D216832462431A06FFEF7BEFE37
:1018A00040B11020C4F8880004F87C5F20206060FC
:1018B000012070BD84F87C502068016841F480717B
:1018C00001602068816841F00101816020688168C1
:1018D00041F040018160002070BD022070BD000019
:1018E000031E0008411E0008B31D000870B5D0F8A3
:1018F0008430202B6DD1B9B1B2B190F87C30012B7E
:1019000067D0012380F87C308165A0F85C20A0F8C6
:101910005E200021C16683684FF48056FF24B342E5
:1019200007D1036913B11CE0012070BD40F2FF1321
:101930001DE07F259BB1B3F1805F15D0A0F860104A
:10194000C0F888102223C0F8843003689C6844F0F3
:1019500001049C60436EB3F1005F0ED027E0036981
:1019600043B9A0F86040EBE703691BB13F23A0F83F
:101970006030E5E7A0F86050E2E7B0F868309342E5
:1019800015D88268B24201D1026972B1124AC266A8
:1019900080F87C1001680A6842F480720A6000686E
:1019A000816841F0805181600FE00C4AEFE7826866
:1019B000B24201D1026952B1094AC26680F87C1074
:1019C0000068016841F490710160002070BD054A13
:1019D000F3E7022070BD000025200008251F000845
:1019E000C51F0008C51E00080A2202490248FFF769
:1019F0002BBF0000140000203C00002070470000B6
:101A000070B50446D0F8800020283DD171B36AB388
:101A100094F87C00012837D0012084F87C002165EF
:101A2000A4F85420A4F856200025C4F8885021209A
:101A3000C4F88000606FD8B11449C162616F144866
:101A400013460863616F13484863606F85632668B7
:101A5000216D06F12802606FFEF7E0FD40B1102015
:101A6000C4F8880004F87C5F20206060012070BD0D
:101A700021684020086284F87C502068816841F029
:101A800080018160002070BD022070BD4B1E0008E7
:101A90007B1E0008B31D000870477047FEE700007A
:101AA000114808B5816C41F004018164816C01F03A
:101AB00004010091816C41F001018164806C00227D
:101AC00000F00100009011460B20FEF74DFF0B20A7
:101AD000FEF73CFF002211460C20FEF745FFBDE853
:101AE00008400C20FEF732BF00100240094808B53C
:101AF000C16C41F02001C164C16C01F02001009172
:101B0000C16C41F00101C164C06C00F001000090A3
:101B100008BD000000100240184810B516490160C9
:101B20004FF4E1314160002181600C22C160C0E9C5
:101B300004128161C161016241628162FFF7E4FDCB
:101B400008B1FEF739FC00210C48FFF78BFC08B107
:101B5000FEF732FC00210948FFF75EFC08B1FEF7F2
:101B60002BFC0648FFF738FC002803D0BDE81040E6
:101B7000FEF722BC10BD0000003801403C000020F0
:101B8000FEE7704770477047FEF78ABE30B5A5B0D4
:101B900038216846FEF774FB14211FA8FEF770FB7E
:101BA00044210EA8FEF76CFB4FF40070FEF70EFF09
:101BB00001252804CDE9005002200324CDE90704C3
:101BC0001421CDE90A100C900D9009946846FFF796
:101BD000E9F90F20CDE91F04002421942294032168
:101BE0001FA82394FFF794F8CDE90E540EA8FEF732
:101BF0004BFF25B030BD00000548016841F470017D
:101C0000016003494FF000608039086070470000B0
:101C100088ED00E03FB514A1D1E90021CDE9002114
:101C200013A2D2E90012CDE90212416EB9B10268E5
:101C300091689268C1F34261520F1DF80240E500BD
:101C400002ACA25CB5FBF2F2A0F86A201DF80120FC
:101C5000615CD200B2FBF1F1A0F868103FBD012138
:101C6000A0F86A10F8E70000010101030701000075
:101C7000080402040801010190F82810C90706D0E1
:101C800001684A68C36A22F400321A434A6090F835
:101C90002810890706D501684A68036B22F4803250
:101CA0001A434A6090F82810490706D501684A6827
:101CB000436B22F480221A434A6090F828100907E7
:101CC00006D501684A68836B22F400421A434A60D1
:101CD00090F82810C90606D501688A68C36B22F4FB
:101CE00080521A438A6090F82810890606D5016848
:101CF0008A68036C22F400521A438A6090F8281014
:101D0000490611D501684A68436C22F480121A43CF
:101D10004A60416CB1F5801F06D101684A68836C46
:101D200022F4C0021A434A6090F82810090606D52A
:101D300001684A68C06C22F4002202434A6070477E
:101D4000F8B500260446C0F88860FEF7A3FD0546F6
:101D5000206800686FF07E47000708D52B460022F8
:101D60004FF400112046009700F07FFD60B9206815
:101D7000006840070AD52B4600224FF48001204618
:101D8000009700F072FD08B10320F8BD2020C4F8D0
:101D90008000C4F8840084F87C600020F8BD10B591
:101DA000806A0021A0F85E10A0F85610FFF7BEFB75
:101DB00010BD70B5846AD4F88000D4F884502168CE
:101DC00089684FF00006090606D5212804D1A4F839
:101DD0005660204600F068F820688068400606D506
:101DE000222D04D1A4F85E60204600F04BF8D4F810
:101DF000880040F01000C4F888002046FFF796FBEA
:101E000070BD10B50146806A09680968890614D456
:101E10000021A0F85E1001680A6822F480720A604E
:101E200001688A6822F001028A6001688A6822F0EB
:101E300040028A602021C0F88410FFF7D5FD10BD54
:101E400010B5806AFFF7DAFD10BD10B50146806A53
:101E50000968096889060DD40021A0F856100168A8
:101E60008A6822F080028A600068016841F04001BF
:101E7000016010BDFFF710FE10BD10B5806AFFF7BE
:101E80000CFE10BD01680A6822F490720A600168B5
:101E90008A68044B1A408A602021C0F8841000210F
:101EA000C1667047FEFFFFEF01680A6822F0C002BA
:101EB0000A6001688A6822F400028A602021C0F862
:101EC0008010704710B5B0F86020D0F884300168F9
:101ED000222B04D0886940F00800886110BD496A4F
:101EE000836D11401980816D891C8165B0F85E1089
:101EF000491EA0F85E10B0F85E100029EED101680E
:101F00000A6822F490720A6001688A6822F001026D
:101F10008A602021C0F884100021C166FFF764FDAB
:101F200010BD000070B50446B0F86060D0F88400C1
:101F3000222805D02068816941F00801816170BDC7
:101F4000B4F8685023E02068406AA16D30400880F2
:101F5000A06D801CA065B4F85E00401EA4F85E0071
:101F6000B4F85E0088B92068016821F480710160CE
:101F700020688168114A114081602020C4F88400E3
:101F80000020E0662046FFF72FFD6D1EADB2002D4C
:101F9000D9D1B4F85E000028D1D0B4F868108142DD
:101FA000CDD92068816821F0805181600448E066C5
:101FB0002068016841F02001016070BDFEFFFFEF65
:101FC000C51E000810B5B0F86020D0F88430016854
:101FD000222B04D0886940F00800886110BD496A4E
:101FE0001140826D1170816D491C8165B0F85E10E1
:101FF000491EA0F85E10B0F85E100029EED101680D
:102000000A6822F490720A6001688A6822F001026C
:102010008A602021C0F884100021C166FFF7E4FC2B
:1020200010BD000070B50446B0F86060D0F88400C0
:10203000222805D02068816941F00801816170BDC6
:10204000B4F8685023E02068406AA16D3040087001
:10205000A06D401CA065B4F85E00401EA4F85E00B0
:10206000B4F85E0088B92068016821F480710160CD
:1020700020688168114A114081602020C4F88400E2
:102080000020E0662046FFF7AFFC6D1EADB2002DCC
:10209000D9D1B4F85E000028D1D0B4F868108142DC
:1020A000CDD92068816821F0805181600448E066C4
:1020B0002068016841F02001016070BDFEFFFFEF64
:1020C000C51F00082DE9F05F044601688068236998
:1020D000E5691843636900272B431843636EFA4A86
:1020E00003430868F94D2840184308602068416898
:1020F000E36821F44051194341602168A06991428D
:1021000001D0236A18438B68F14D2B4003438B6049
:102110002068C16A636A21F00F011943C162ED4B67
:102120002068ED4998420DD1D1F8881011F00301D3
:1021300006D001295AD0022956D003293FD157E0B1
:1021400001253DE0E54B98420BD1D1F8881011F004
:102150000C0147D0042949D0082945D00C292ED19B
:1021600046E0DF4B98420BD1D1F8881011F03001D6
:1021700038D010293AD0202936D030291FD137E065
:10218000D84B98420BD1D1F8881011F0C00129D05A
:1021900040292BD0802927D0C02910D128E0904297
:1021A0000DD1D1F8881011F440611BD0B1F5806FCA
:1021B0001CD0B1F5006F17D0B1F5406F18D01025C5
:1021C000DFF824A34FF480764FF000094FF4004B62
:1021D00090426ED175B1022D29D0042D59D0082D11
:1021E00068D176E00025EBE70225E9E70425E7E77B
:1021F0000825E5E7FEF77AFE4DE0012851D00228D8
:1022000051D0032851D0042851D0052853D0062896
:1022100053D0072853D0082853D0092853D00A2870
:1022200053D00B2853D03AE0B1FBF0F06CE0606A79
:10223000A8B1012817D0022817D0032817D00428E6
:1022400017D0052817D0062817D0072817D0082838
:1022500017D0092817D00A2817D00B2817D001202B
:10226000BAFBF0F050E00220FAE70420F8E706207D
:10227000F6E70820F4E70A20F2E70C20F0E7102048
:10228000EEE72020ECE74020EAE78020E8E7304650
:10229000E6E7FEF74FFE0146606A0028ADD1012057
:1022A000C2E70220C0E70420BEE70620BCE7082002
:1022B000BAE761E14AE00A20B6E70C20B4E7102053
:1022C000B2E72020B0E74020AEE78020ACE7304600
:1022D000AAE7606AA8B1012822D0022822D00328E8
:1022E00022D0042822D0052822D0062822D0072870
:1022F00022D0082822D0092822D00A2822D00B2850
:1023000022D00120BBFBF0F0002820D06168884675
:1023100001EB4101814219D8B0EB083F16D817E014
:102320000220EFE70420EDE70620EBE70820E9E7CD
:102330000A20E7E70C20E5E71020E3E72020E1E7AB
:102340004020DFE78020DDE73046DBE7012739E288
:102350007DB3022D61D0042D7DD0082DF6D1606AA9
:10236000A8B1012878D0022877D0032876D0042895
:1023700075D0052874D0062873D0072872D0082895
:1023800071D0092870D00A286FD00B2800D0012600
:1023900032464D46002358460021FDF739FF090219
:1023A00041EA106102024FEA5800101869414246A2
:1023B00070E0FFE7FEF79AFD0146606AA8B10128C8
:1023C00017D0022817D0032817D0042817D00528C3
:1023D00017D0062817D0072817D0082817D00928A3
:1023E00017D00A2817D00B2800D0012632464D46B8
:1023F0008CE00226FAE70426F8E70626F6E7082628
:10240000F4E70A26F2E70C26F0E71026EEE720268E
:10241000ECE74026EAE78026E8E7606AA8B10128F1
:1024200024D0022824D0032824D0042824D005282E
:1024300024D0062824D0072824D0082824D009280E
:1024400024D00A2824D00B2800D0012632464D463D
:1024500000235046A0E726E07AE07BE07CE07DE0C8
:102460007EE07FE080E081E082E083E00226EDE72D
:102470000426EBE70626E9E70826E7E70A26E5E76C
:102480000C26E3E71026E1E72026DFE74026DDE71C
:102490008026DBE70023FDF7BBFE144AA0F5407160
:1024A000914271D952E7FEF745FD0146606A50B38B
:1024B000012839D0022839D0032839D0042839D04E
:1024C000052839D0062813E000800040F369FFCFCB
:1024D000FFF4FF11003801400010024000440040AA
:1024E00000480040004C00400024F400FFFC0F00B6
:1024F00024D0072824D0082824D0092824D00A284A
:1025000024D00B2800D001264D4632460023084631
:102510001946FDF77DFE0902626841EA1061030277
:10252000500818186941B5E70226EDE70426EBE7E5
:102530000626E9E70826E7E70A26E5E70C26E3E7AB
:102540001026E1E72026DFE74026DDE78026DBE7EF
:1025500002261DE704261BE7062619E7082617E7CB
:102560000A2615E70C2613E7102611E720260FE7A9
:1025700040260DE780260BE7E0694FF6EF785845D7
:1025800070D1092D8ED200E01AE1DFE805F00609CE
:102590003C05800505058300D8E6FEF7A7FC01E0B1
:1025A000FEF7B6FC0146606AA8B1012815D00228E2
:1025B00015D0032815D0042815D0052815D00628D5
:1025C00015D0072815D0082815D0092815D00A28B5
:1025D00015D00B2814D0012612E0022610E00426A4
:1025E0000EE006260CE008260AE00A2608E00C2683
:1025F00006E0102604E0202602E0402600E08026C7
:10260000B1FBF6F01AE0606AA8B101282BD00228CD
:102610002BD003282BD004282BD005282BD006281C
:102620002BD007282BD008282BD009282BD00A28FC
:102630002BD00B2800D00126BAFBF6F041006068D1
:1026400001EB5001B1FBF0F080B2A0F11001414567
:10265000A2D84FF6F0710140C0F342000143206858
:10266000C160AFE046E00226E6E70426E4E706267E
:10267000E2E70826E0E70A26DEE70C26DCE710267C
:10268000DAE72026D8E74026D6E78026D4E7FEF70B
:1026900051FC87E7606AA8B1012817D0022817D03B
:1026A000032817D0042817D0052817D0062817D0DC
:1026B000072817D0082817D0092817D00A2817D0BC
:1026C0000B2800D00126BBFBF6F0B7E70226FAE79D
:1026D0000426F8E70626F6E70826F4E70A26F2E7D6
:1026E0000C26F0E71026EEE72026ECE74026EAE786
:1026F0008026E8E7092DBFF4D5AEDFE805F006092E
:102700003C0583050505860020E6FEF7EFFB01E0AA
:10271000FEF7FEFB0146606AA8B1012815D0022829
:1027200015D0032815D0042815D0052815D0062863
:1027300015D0072815D0082815D0092815D00A2843
:1027400015D00B2814D0012612E0022610E0042632
:102750000EE006260CE008260AE00A2608E00C2611
:1027600006E0102604E0202602E0402600E0802655
:10277000B1FBF6F11AE0606AA8B101282ED0022858
:102780002ED003282ED004282ED005282ED006289F
:102790002ED007282ED008282ED009282ED00A287F
:1027A0002ED00B2800D00126BAFBF6F1606801EBB1
:1027B0005001B1FBF0F080B2A0F110014145A3D867
:1027C0002168C8600120A4F86A0024F8680F384620
:1027D000C4F80490C4F80890BDE8F09F0226E3E72F
:1027E0000426E1E70626DFE70826DDE70A26DBE721
:1027F0000C26D9E71026D7E72026D5E74026D3E7D1
:102800008026D1E7FEF796FB84E7606AA8B101282D
:1028100017D0022817D0032817D0042817D005286E
:1028200017D0062817D0072817D0082817D009284E
:1028300017D00A2817D00B2800D00126BBFBF6F1D1
:10284000B4E70226FAE70426F8E70626F6E70826A4
:10285000F4E70A26F2E70C26F0E71026EEE720263A
:10286000ECE74026EAE78026E8E72DE9F0419846C4
:1028700017460E460446069D08E0681C06D0FEF783
:1028800009F8A0EB0800A8420BD855B12068C06930
:1028900036EA000019D00020B842EED00020BDE892
:1028A000F0812068016821F4D0710160206881689E
:1028B00021F0010181602020C4F88000C4F8840068
:1028C000002084F87C000320E9E70120E4E7000011
:1028D000094810B50068C169C943C90607D4102169
:1028E00001620548FEF7E6FD0348FEF7EFFEBDE88E
:1028F00010400148FEF71CBE3C000020FEE700002F
:102900000FB4084610B5064A02A900F02AF804469A
:1029100002A9002000F036F8204610BC5DF814FB38
:10292000852900080907090E002804DB00F1E020D2
:1029300080F80014704700F00F0000F1E02080F8EC
:10294000141D704702E008C8121F08C1002AFAD1FE
:1029500070477047002001E001C1121F002AFBD11F
:1029600070472DE9F04116460F460446002503E066
:102970003946B047641C6D1C20780028F8D12846E1
:10298000BDE8F0810A68531C0B60107070470000AE
:10299000FDF78EFFFFF7FAF8FFF7A8F8FFF780F8CA
:1029A000FFF7BAF80A220F490F48FEF79FFF0E48BB
:1029B0000068016841F0100101600CA10948FFF7AF
:1029C0009FFF0D4C4FF4FA7742F20F750026384600
:1029D000FDF76AFE2088401C80B22080A842F6D114
:1029E0002680F4E7140000203C0000202020202056
:1029F00020200D0A00000000000000200000000060
:102A0000000000000102030406070809000000009E
:102A100001020304342A0008000000201400000012
:102A200044290008482A000814000020740500000A
:102A30005429000800000000100000000100000000
:082A4000000000000024F40076
:04000005080001D915
:00000001FF
