:020000040800F2
:1000000058040020ED010008DF16000879120008EE
:10001000DD16000885020008591B000800000000DA
:10002000000000000000000000000000C51A0008E9
:100030008702000800000000E1160008C71A000847
:10004000070200080702000807020008070200086C
:10005000070200080702000807020008070200085C
:10006000070200080702000807020008070200084C
:10007000070200080702000807020008070200083C
:10008000070200080000000007020008070200083D
:10009000070200080702000807020008070200081C
:1000A000070200080702000807020008070200080C
:1000B00007020008070200080702000807020008FC
:1000C00007020008070200080702000807020008EC
:1000D00007020008070200080702000807020008DC
:1000E00007020008070200080702000807020008CC
:1000F00007020008070200080702000800000000CD
:1001000000000000070200080000000007020008CD
:1001100007020008000000000702000807020008AC
:10012000070200080702000807020008070200088B
:10013000070200080000000000000000070200089D
:10014000070200080702000800000000000000008D
:10015000000000000000000000000000000000009F
:10016000000000000000000000000000070200087E
:10017000070200080000000000000000000000006E
:10018000000000000702000800000000000000005E
:10019000000000000000000000000000000000005F
:1001A000000000000000000007020008070200082D
:1001B000070200080702000807020008000000000C
:1001C000000000000702000800000000000000001E
:1001D0000702000807020008DFF80CD000F040F822
:1001E00000480047111F00085804002006488047B7
:1001F00006480047FEE7FEE7FEE7FEE7FEE7FEE70C
:10020000FEE7FEE7FEE7FEE73D1B0008D901000818
:10021000D2B201E000F8012B491EFBD27047002248
:10022000F6E710B513460A4604461946FFF7F0FFF5
:10023000204610BD30B50B46014600202022012487
:1002400009E021FA02F59D4205D303FA02F5491BA4
:1002500004FA02F52844151EA2F10102F1DC30BDBA
:10026000064C074D06E0E06840F0010394E8070003
:1002700098471034AC42F6D3FFF7B2FF9031000834
:10028000B0310008FEE77047002240F6B83306E0C0
:100290000021491C89B29942FBD3521C92B282427E
:1002A000F6D370477047000070B5044600F0F2F8CE
:1002B0000546601C02D004484068044400F0EAF897
:1002C000401BA042FAD370BD1C0000202DE9FC4F5A
:1002D000DFF8A0A1002301250AF1040B03244FF04D
:1002E0000F0C0BF1040EBDE005FA03F632406FD09F
:1002F0004F68012F05D0022F03D0112F01D0122FEC
:1003000017D1D0F808905F0004FA07F829EA080925
:100310000097D1F80C8008FA07F848EA0908C0F8F5
:1003200008804768B7430E79C6F300169E403E43E7
:100330004660C6684FEA430804FA08F7BE430197CF
:100340008F6807FA08F73743C7604E68022E01D05E
:10035000122E13D1DE0800EB86060096366A5F0780
:10036000FF0E0CFA07F926EA0906D1F8109009FAEF
:1003700007F949EA0609009EC6F820900668019F21
:10038000BE430F7907F0030707FA08F73743076002
:100390004E68F60065D5384E376E47F00107376670
:1003A000366E23F0030706F001060096334E3E44F6
:1003B000B146B6689F074FEA17780CFA08F7BE43B4
:1003C000B0F1904F05D02E4FB84204D1012717E06D
:1003D00047E0002714E02B4FB84201D102270FE07D
:1003E000294FB84201D103270AE0284FB84201D172
:1003F000042705E0264FB84201D1052700E0062773
:1004000007FA08F73743C9F80870DAF8006057466A
:10041000D1F8048096435FEAC83800D516433E60A1
:10042000DBF800605F46D1F8048096435FEA8838C5
:1004300000D516433E60DEF800607746D1F80480B0
:1004400096435FEAC82800D516433E60094F0C3733
:100450003E68D1F8048096435FEA882800D51643A9
:100460003E605B1C0A6832FA03F67FF43DAFBDE8DC
:10047000FC8F000000040140001002400000014019
:100480000004004800080048000C00480010004824
:100490000014004801488068704700001C000020DC
:1004A0000248816842681144816070471C00002046
:1004B00010B50024032000F069F8002000F008F8CF
:1004C00008B1012401E000F025F8204610BD00002D
:1004D00070B50E4E05460024706898B14FF47A71DD
:1004E000B1FBF0F00A490968B1FBF0F000F0B0FE92
:1004F00040B9102D06D200222946501E00F026F8E1
:10050000356000E00124204670BD00001C00002082
:10051000280000200B4808B5016E41F0010101667A
:10052000016E01F001010091816D41F08051816502
:10053000806D00F0805000900348816841F4804154
:10054000816008BD0010024000700040F0B40E4B06
:100550001B680C46C3F30223C3F10705042D00D921
:100560000425191D072901D2002300E0DB1E012606
:1005700006FA05F1491E214099409E40761E16401C
:100580003143F0BC01F0FEBA0CED00E0064900F08A
:10059000070208684FF6FF03184040EA0220034AAA
:1005A00010430860704700000CED00E00000FA0501
:1005B0002B492C4B0A6832214A432B4940B1B0F5F4
:1005C000007F086829D020F4C06040F480602CE0EF
:1005D0000868C0F34120022804D051F8800F20F4AD
:1005E000807022E0D1F8800020F48070C1F8800093
:1005F000086820F4C06040F400700860B2FBF3F0BB
:10060000401C00E0401E4A69520501D50028F9D17E
:10061000486940050AD503207047C0F341200228ED
:1006200006D051F8800F40F48070086000207047B9
:10063000D1F8800040F48070C1F88000086820F490
:10064000C06040F400700860B2FBF3F0401C00E0B2
:10065000401E4A695205DBD50028F9D1D8E70000D1
:100660002800002040420F00007000402DE9F843B0
:100670000446006800269D4D00035ED5A86D002746
:10068000C00008D4A86D40F08050A865A86D01276F
:1006900000F080500090DFF85892D9F8001041F433
:1006A0008071C9F80010FFF7F5FE804606E000BF34
:1006B000FFF7F0FEA0EB080002282BD8D9F80000C5
:1006C000C005F5D5D5F8900010F4407014D0216C19
:1006D000814211D0D5F89000D5F8901020F44070E8
:1006E00041F48031C5F89010D5F8901021F4803194
:1006F000C5F89010C5F89000C00711D0FFF7CAFEEA
:10070000804641F2883907E0FFF7C4FEA0EB0801FC
:10071000494501D903260BE0D5F890008007F3D5B1
:10072000D5F89000216C20F440700843C5F8900083
:100730001FB1A86D20F08050A8652078C00707D0B1
:10074000D5F88800616820F003000843C5F88800E8
:100750002078800707D5D5F88800A16820F00C0024
:100760000843C5F888002078400707D5D5F88800E9
:10077000E16820F030000843C5F8880020780007C1
:1007800007D5D5F88800216920F0C0000843C5F8D6
:1007900088002078800607D5D5F88800616920F4A4
:1007A00040600843C5F888002078400607D5D5F892
:1007B0008800A16920F440500843C5F888002078DB
:1007C000000607D5D5F88800E16920F440400843C9
:1007D000C5F888002088C00507D5D5F88800216AAB
:1007E00020F440300843C5F888002088800507D5EC
:1007F000D5F88800616A20F440200843C5F88800D5
:10080000208840050FD5D5F88800A16A20F4401053
:100810000843C5F88800A06AB0F5801F03D1E868D6
:1008200040F48010E860208800050FD5D5F88800D6
:10083000E16A20F440000843C5F88800E06AB0F59A
:10084000800F03D1E86840F48010E8602088C0047D
:100850000FD5D5F88800216B20F040700843C5F80B
:100860008800206BB0F1807F03D1E86840F48010ED
:10087000E86020884FF0006180040ED5D5F888002C
:10088000626B20F040601043C5F88800606B8842BE
:1008900003D1E86840F48010E860208840040ED559
:1008A000D5F88800A26B20F040601043C5F888009E
:1008B000A06B884203D1E86840F48010E86020888B
:1008C00000040FD5D5F88800E16B20F040500843B4
:1008D000C5F88800E06BB0F1805F03D1E86840F4B0
:1008E0008030E8603046BDE8F88300000010024028
:1008F000007000402DE9F0470E4605004FF000075C
:1009000025D0DFF8AC81D8F8000000F00F00B0422D
:100910000CD2D8F8001021F00F013143C8F80010B4
:10092000D8F8000000F00F00B04210D12968614CE7
:10093000C80741F2883A5AD06868DFF87C910328EA
:1009400008D0022820682DD0400500282CDB01208B
:10095000BDE8F08720688001F9D5E06800F0030267
:10096000E068C0F30310401C032A19D0534A00BFAB
:10097000B2FBF0F0E268C2F306225043E268C2F331
:100980004162521C5200B0FBF2F0484517D9A068F2
:1009900010F0F00F0CD0880711D5A86840B10EE018
:1009A000474AE5E78003D0E700F092F8484506D9CA
:1009B000A06820F0F00040F08000A0608027A068D0
:1009C000696820F003000843A060FFF763FD8146DB
:1009D00006E000BFFFF75EFDA0EB090151453AD8E4
:1009E000A068696800F00C00B0EB810FF2D12868B4
:1009F000810714D5400703D5A06840F4E060A060EB
:100A00002878000705D5A06820F4605040F4E06025
:100A1000A060A068A96820F0F000084304E0802FDF
:100A200003D1A06820F0F000A060D8F80010404684
:100A300001F00F01B14216D9016821F00F013143D5
:100A40000160FFF727FD074607E000BFFFF722FD23
:100A5000C11B514501D903207AE7D8F8000000F006
:100A60000F00B042F2D12878400705D5A068E968A8
:100A700020F4E0600843A0602878000706D5A0684D
:100A8000296920F4605040EAC100A06000F020F81D
:100A9000A1680C4AC1F30311515C01F01F01C84069
:100AA0000949086009480068BDE8F047FFF710BD34
:100AB000002002400010024000B4C4040024F400EE
:100AC00000366E0180310008280000201C00002044
:100AD000184910B58868C0F381021748012A0BD065
:100AE0008A68164BC2F38102022A06D08A68C2F3D2
:100AF0008102032A03D0002010BD184610BDCA6829
:100B000002F00304CA68C2F30312521C032C02D081
:100B1000B0FBF2F001E0B3FBF2F0CA68C968C2F3BF
:100B200006225043C1F34161491C4900B0FBF1F07A
:100B300010BD0000001002400024F40000366E01D9
:100B40002DE9F84304007AD02078FA4DC00747D049
:100B5000A868E96800F00C0001F003010C2802D03D
:100B6000082817D001E0032914D06068B0F5803F51
:100B700017D0B0F5A02F286817D020F48030286057
:100B8000286820F4802028606068E0B1FFF782FCCC
:100B9000064614E02868800322D560680028D2D079
:100BA0001EE0286840F48030EDE740F480202860A3
:100BB000F7E700BFFFF76EFC801B642870D8286839
:100BC0008003F7D50CE0FFF765FC064605E000BFA3
:100BD000FFF760FC801B6428F0D828688003F7D4F6
:100BE000207880074CD5A868E96800F00C0001F077
:100BF00003010C2802D004280DD001E002290AD0FC
:100C0000E068002828682BD040F480702860FFF747
:100C100041FC064619E02868400502D5E068002836
:100C200091D06868217C20F0FE4040EA0160686055
:100C3000C1480068FFF74CFC002800D120E076E1B5
:100C4000FFF728FC801B0228B8D828684005F7D594
:100C50006868217C20F0FE4040EA016068600FE097
:100C600020F480702860FFF715FC064605E000BF01
:100C7000FFF710FC801B0228A0D828684005F7D495
:100C80002078000729D560690028D5F8940013D092
:100C900040F00100C5F89400FFF7FCFB064606E0B3
:100CA00090E000BFFFF7F6FB801B022886D8D5F83E
:100CB00094008007F6D510E020F00100C5F89400FC
:100CC000FFF7E8FB064604E0FFF7E4FB801B022881
:100CD00078D8D5F894008007F6D42078400761D5FD
:100CE000A86D0026C00008D4A86D40F08050A8650B
:100CF000A86D012600F08050009090480168C90559
:100D000011D40168804641F480710160FFF7C2FB95
:100D1000074604E0FFF7BEFBC01B022852D8D8F8F4
:100D20000000C005F6D5A068012815D00528D5F823
:100D3000900016D020F00100C5F89000D5F8900082
:100D400020F00400C5F89000A06841F28838B8B1DE
:100D5000FFF7A0FB07460EE0D5F8900040F0010039
:100D6000F0E740F00400C5F89000F5E7FFF792FBCC
:100D7000C11B414526D8D5F890008007F6D50CE078
:100D8000FFF788FB074604E0FFF784FBC11B4145E2
:100D900018D8D5F890008007F6D41EB1A86D20F0C1
:100DA0008050A8652078800629D5A0690028D5F84C
:100DB000980013D040F00100C5F89800FFF76AFBD7
:100DC000064606E077E000BFFFF764FB801B0228C1
:100DD00077D8D5F898008007F6D510E020F001000C
:100DE000C5F89800FFF756FB064604E0FFF752FBF4
:100DF000801B022865D8D5F898008007F6D4E069F2
:100E0000F0B3A968C1F38101032961D002282868E1
:100E100020F0807028600BD0E86820F00300E860C4
:100E2000E86847490840E860FFF734FB04464BE0B8
:100E3000FFF730FB064604E0FFF72CFB801B02287F
:100E40003FD828688001F7D4F4E908016FF00F0259
:100E500002EB01110843218A5204490802EB415177
:100E6000A26841EA02210843217D4FF07E424908F1
:100E700002EB41610843217B40EAC160E96800E080
:100E800062E0304A11400843E860286840F0807012
:100E90002860E86840F08070E860FFF7FBFA0446DD
:100EA00005E000BFFFF7F6FA001B022809D8286802
:100EB0008001F7D548E004E0FFF7ECFA001B0228B8
:100EC00002D90320BDE8F88328688001F4D43BE010
:100ED0000128F7D0E868226A00F00301914226D188
:100EE000616A00F0F0020901103991421FD1A26A33
:100EF00000F4FE41B1EB022F19D194F82C2000F040
:100F00007841B1EBC26F12D1218E00F4C0024908C2
:100F10004905A1F50011914209D194F8341000F06F
:100F2000C06049084906A1F1007181420CD001203E
:100F3000C8E70000001002401C00002000700040C4
:100F4000FFFFEEFE0C809F010020BBE70F4810B5AD
:100F50000B4601680E480140080CD870C1F3042408
:100F60005C7001F03F049C70C1F34231197052B9BA
:100F700000F041FDD870587800F03DFD5870987829
:100F800000F039FD9870002010BD000004280040DA
:100F90003FFFFF00144810B500680B464860124838
:100FA00008300068C0F30E0088600F4808380168F8
:100FB0000E480140C1F305401870C1F306245C706F
:100FC00001F07F049C70890DD97052B900F013FDB7
:100FD0001870587800F00FFD5870987800F00BFDED
:100FE0009870002010BD0000082800407F7F7F001F
:100FF00070B504004FF001003ED094F8250028B9E8
:10100000002084F82400204600F03CF8022084F8F8
:1010100025001A4ECA20306053203060204600F070
:10102000FFFC10BB154D0C3D286815490840286091
:1010300028686168A2690843216911430843286050
:101040002189E06840EA01400C49143908602046D3
:1010500000F00CFD48B9D4E90721114362692B68FF
:1010600023F060431A4311432960FF2131600028B7
:1010700002D1012184F8251070BD00002428004011
:10108000BFFF8FFB00680549884205D1044850F82E
:10109000901F41F4004101607047000000280040AB
:1010A000001002402DE9F041044690F824000B4660
:1010B00001281AD0012684F82460022084F8250033
:1010C000B2B19878D97840EA014558781978000289
:1010D00040EA413005431B4FCA2038605320386036
:1010E000204600F09DFCD8B122E00220BDE8F0814E
:1010F0005878C10603D500F0EF000A305870D87850
:1011000000F082FC0504587800F07EFC45EA0025DA
:10111000987800F079FC0543187845EA4035DAE71D
:1011200009480540074820380560204600F09EFC2D
:10113000FF21396008B984F82560002184F8241063
:10114000D4E70000242800403FFFFF002DE9F047CE
:10115000054690F8240017460C46012814D04FF09D
:10116000010985F82490022085F82500DFF8A48085
:10117000CA21C8F800105321C8F80010284600F012
:101180004FFC002618B127E00220BDE8F087214B74
:101190000C3B18684FEA40601FB3002800DBE67084
:1011A000A0782178E27840EA01406178090241EABA
:1011B00082510843184908401649243908601868C4
:1011C00020F480201860D4E903010843196808431B
:1011D0001860284600F04AFCFF22C8F80020A0B1A1
:1011E00015E0002800DBE670207800F00DFC070415
:1011F000607800F009FC47EA0027A07800F004FCC2
:101200000743E07847EA8050D4E785F8259085F8D1
:101210002460BAE7242800407F7F7F0070B50B4D23
:10122000286860F0A0002860FFF734F904464FF406
:101230007A7606E0FFF72EF9001BB04201D90320B1
:1012400070BD28688006F5D5002070BD0C280040D0
:1012500010B5401EB0F1807F01D3012010BD4FF0CA
:10126000E02460610F21601700F08CFC0020A06179
:1012700007202061002010BDFEE7000000B585B00A
:1012800014216846FEF7CBFF4FF6FF700090002058
:101290000321CDE90201019069460248FFF716F8E3
:1012A00005B000BD0008004800B585B014216846AF
:1012B000FEF7B5FF4FF6FF7000900120019003206C
:1012C00003900020029069460248FEF7FFFF05B038
:1012D00000BD00000008004870B500240646214605
:1012E000204600F003F900F041F94FF496353046FE
:1012F00000F010F9641CAC42F9D370BD30B587B072
:1013000014216846FEF78BFF1E48C16C41F00401B2
:10131000C164C16C01F004010591C16C41F001018F
:10132000C164C16C01F001010591C16C41F0020181
:10133000C164C06C012500F0020005904FF44870B4
:10134000CDE9000500240394694602940E48FEF797
:10135000BDFF280203940090CDE901544FF0904462
:1013600069462046FEF7B2FFFFF79EFFA06940F4F2
:101370008070A06104481830016841F40871016070
:1013800007B030BD0010024000040048203AD2B23D
:10139000034B02EB420203EB021200F019B800000B
:1013A000B01F0008F0B50E460746002540F23F1476
:1013B00007E021463846FFF7E9FF103C6D1CA4B258
:1013C000761C3278002A01D0142DF2D3F0BD000033
:1013D0002DE9F04791468A460026044600F086F83B
:1013E000DFF84080012700BF00F0C0F85FF0000583
:1013F00039F8160007FA05F10842404601D1408845
:1014000000E0008800F086F86D1C102DF0D3641CFD
:10141000E4B25146204600F069F8761C182EE3D35A
:10142000BDE8F0870000002010B5FFF767FF00203F
:1014300000F014F8084CA080A088A0F502413039D3
:1014400006D000F0D7F9002000F008F8A08010BD09
:1014500000F047F9F7E700000000002070B51D49D3
:101460000A6842F400720A600A6842F480720A60F4
:10147000184C103C226842F020022260164A10608C
:10148000086840F02000086000BF00BF00BF20686F
:1014900040F020002060206840F480702060FFF75A
:1014A000EDFE4FF09041886A40F48070886200BF82
:1014B00000BF00BF0848001F006885B2886940F47B
:1014C00080708861FFF7F0FE206840F400702060B3
:1014D000284670BD280400481408004801B5BDF82E
:1014E00000000149488008BD0000002010B50C46EE
:1014F0000146202000F068F82146BDE81040212078
:1015000000F062B801B5BDF800000149088008BDCF
:1015100000000020134A116841F400711160114964
:1015200010390B6843F480730B600B6843F02003A1
:101530000B600D4B1860106840F02000106000BF79
:1015400000BF00BF086840F020000860086840F451
:101550008070086000BF00BF00BF086840F40070E2
:1015600008607047280400481408004814490868B7
:1015700040F400700860086840F48070086010480B
:101580001038026842F0200202600E4B22221A60DC
:101590000A6842F020020A6000BF00BF00BF016875
:1015A00041F020010160016841F48071016000BFD9
:1015B00000BF00BF016841F4007101607047000086
:1015C0002804004814080048184B10B51A6842F463
:1015D00000721A601A6842F480721A60134A103A54
:1015E000146844F020041460114C2060186840F026
:1015F0002000186000BF00BF00BF106840F020004E
:101600001060106840F4807010602160186840F02D
:101610002000186000BF00BF00BF106840F020002D
:101620001060106840F48070106010BD28040048FD
:1016300014080048054808B5C16C41F02001C16498
:10164000C06C00F02000009008BD000000100240B7
:1016500010B586B014216846FEF7E1FD1E4800244F
:101660001C490594C0E900147F218160FF21C0E975
:10167000031444610462FFF7BBFC08B1FEF712FEDD
:1016800023208DF8000059208DF8010030208DF8BE
:10169000020001940394012269460F480494FFF765
:1016A00055FD08B1FEF7FEFD01208DF814008DF800
:1016B000150007208DF8160022208DF81700012252
:1016C00005A90548FFF7EEFC002801D0FEF7EAFD6A
:1016D00006B010BD002800402C000020FEE7704737
:1016E000704730B501210020FFF76EFF4FF47A708C
:1016F000FEF7CAFD00210120FFF766FF41F290715D
:101700001020FFF761FF4FF41C516020FFF75CFFD2
:1017100001216120FFF758FF02214620FFF754FF07
:1017200048F210011320FFF74FFF48F2FE0112208C
:10173000FFF74AFF4FF4A0610220FFF745FF41F297
:1017400030010320FFF740FF40F2033421463020F0
:10175000FFF73AFF21463120FFF736FF21463220BE
:10176000FFF732FFE51E29463320FFF72DFF032147
:101770003420FFF729FF21463520FFF725FF1421EC
:101780003620FFF721FF21463720FFF71DFF2146B6
:101790003820FFF719FF21463920FFF715FF2946AA
:1017A0003A20FFF711FF03213B20FFF70DFF2146F1
:1017B0003C20FFF709FF4FF4A0513D20FFF704FF45
:1017C0004FF400719220FFF7FFFE21469320FFF7B0
:1017D000FBFE40F60D019020FFF7F6FE41F21801E6
:1017E0000320FFF7F1FEBDE8304040F273110720FF
:1017F000FFF7EABE10B543F20801E320FFF7E4FE6D
:101800001221E720FFF7E0FE41F23121EF20FFF740
:10181000DBFE00210120FFF7D7FE4FF4E06102203C
:10182000FFF7D2FE41F230010320FFF7CDFE002189
:101830000420FFF7C9FE40F207210820FFF7C4FE8D
:1018400000210920FFF7C0FE00210A20FFF7BCFE9F
:1018500000210C20FFF7B8FE00210D20FFF7B4FE99
:1018600000210F20FFF7B0FE00211020FFF7ACFE93
:1018700007211120FFF7A8FE00211220FFF7A4FE88
:1018800000211320FFF7A0FEC820FEF70DFD41F256
:1018900090611020FFF798FE40F227211120FFF7FA
:1018A00093FE3220FEF700FD1D211220FFF78CFE73
:1018B0003220FEF7F9FC4FF400611320FFF784FE9D
:1018C00014212920FFF780FE0B212B20FFF77CFE3F
:1018D0003220FEF7E9FC00212020FFF775FE0021F1
:1018E0002120FFF771FE07213020FFF76DFE40F247
:1018F00007713120FFF768FE06213220FFF764FEF2
:1019000040F204713520FFF75FFE41F60471362086
:10191000FFF75AFE04213720FFF756FE002138203A
:10192000FFF752FE40F206713920FFF74DFE40F2FC
:1019300001713C20FFF748FE0F213D20FFF744FED8
:1019400000215020FFF740FEEF215120FFF73CFE21
:1019500000215220FFF738FE40F23F115320FFF7DD
:1019600033FE4FF41C516020FFF72EFE0121612051
:10197000FFF72AFE00216A20FFF726FE00218020C3
:10198000FFF722FE00218120FFF71EFE00218220AA
:10199000FFF71AFE00218320FFF716FE00218420A6
:1019A000FFF712FE00218520FFF70EFE1021902088
:1019B000FFF70AFE00219220FFF706FE0321932085
:1019C000FFF702FE4FF488719520FFF7FDFD00211F
:1019D0009720FFF7F9FD00219820FFF7F5FD41F270
:1019E00018010320FFF7F0FDBDE8104040F273112D
:1019F0000720FFF7E9BD010901EB810100F00F00AD
:101A000000EB4100C0B270470022014602E00A39F3
:101A1000C9B2521C0A29FAD2100741EA1060704775
:101A20002DE9F047104C814600252068400618D467
:101A3000206840F080002060FEF72CFD06464FF441
:101A40007A78032708E000BFFEF724FD801B40459D
:101A500002D9032589F825702068400601D4032D9A
:101A6000F2D12846BDE8F0870C2800402DE9F0416E
:101A7000064613480025016821F080010160104CE2
:101A80000C3420684FF00307800607D43046FFF778
:101A9000C5FB90B186F8257003250EE0206820F084
:101AA000200020603046FFF7B9FB10B186F82570A2
:101AB0000325206840F0200020602846BDE8F08122
:101AC0000C2800407047FEF7EBBC30B5A5B03821BC
:101AD0006846FEF7A4FB14211FA8FEF7A0FB4421D3
:101AE0000EA8FEF79CFB4FF400752846FEF760FD3C
:101AF00009200090E80101900120059002210324B3
:101B0000CDE907141420CDE90A0109940C91684627
:101B10000D91FFF715F80021CDE920410F201F900E
:101B20002291239103211FA8FEF7E4FEA8020E9044
:101B30001E950EA8FEF79AFD25B030BD0548016838
:101B400041F47001016003494FF000608039086082
:101B50007047000088ED00E0FEE700000FB4084B7E
:101B600010B504A902AA039800F02CF8044602A9B3
:101B7000002000F0C8F9204610BC5DF814FB0000FE
:101B8000071F00080907090E002804DB00F1E02008
:101B900080F80014704700F00F0000F1E02080F89A
:101BA000141D704702E008C8121F08C1002AFAD1AC
:101BB00070477047002001E001C1121F002AFBD1CD
:101BC000704700002DE9FF4F8BB088460546002680
:101BD00006E025280BD0DDE90D1290476D1C761C20
:101BE00028780028F5D10FB03046BDE8F08F0024EA
:101BF000A146A2460122AE4900E0044315F8013F88
:101C0000203B02FA03F00842F7D128782A2810D0A6
:101C10006FF02F022878A0F13001092915D809EBBF
:101C2000890102EB410144F0020400EB01096D1C43
:101C3000F0E758F8041B5FEA010903D544F40054A7
:101C4000C9F1000944F002046D1C28782E2817D130
:101C500015F8010F44F004042A280ED06FF02F026B
:101C60002878A0F1300109290AD80AEB8A0102EB91
:101C7000410100EB010A6D1CF2E758F804AB6D1C42
:101C800028786C280FD006DC4C2817D068280DD097
:101C90006A2814D104E0742810D07A280FD10DE0FE
:101CA00044F400140AE044F4801401E044F44014C5
:101CB0006978814202D104F580146D1C6D1C28786E
:101CC000692865D006DC00288DD0632827D06428D9
:101CD00006D15DE06E2808D073282AD0752877D009
:101CE000DDE90D129047761CE0E0C4F302500228B3
:101CF00009D003280DD0D8F8001004280DD00E60AC
:101D000008F10408D2E0D8F80010F217C1E9006227
:101D1000F6E7D8F800100E80F2E70E70F0E718F83A
:101D2000041B8DF8001000208DF80100EB46012007
:101D300003E058F804BB4FF0FF3061074FF0000795
:101D400001D40AE07F1C57450DDA8742FADB1BF805
:101D500007100029F6D106E07F1C8742FCDB1BF848
:101D600007100029F8D1DDE90D23A9EB0700814612
:101D7000214600F0B1F83044C61904E0DDE90D1247
:101D80001BF8010B90477F1EF8D22146484688E099
:101D900058F8040BC4F302514FF00A0B032900D189
:101DA00000B2042900D140B2002802DA40422D21BD
:101DB00002E0210505D52B218DF82410012104E036
:101DC00006E0E10710D02021F6E708AF089113E004
:101DD00058F8040BC4F302514FF00A0B032900D149
:101DE00080B2042900D1C0B20021EEE75946FEF7C7
:101DF00021FA303107F8011D0028F7D1ADEB0700BB
:101E000000F1200B600702D524F4803401E04FF08C
:101E1000010ADA4502DDAAEB0B0000E00020824651
:101E200000EB0B0108980144A9EB01000A90E003C4
:101E300006D4DDE90D2321460A9800F04DF806444A
:101E40004FF0000908E009A911F80900DDE90D12B9
:101E5000904709F10109761C08998945F3DBE003F5
:101E60000CD5DDE90D2321460A9800F035F806442B
:101E700004E0DDE90D1230209047761CBAF1000134
:101E8000AAF1010AF5DC05E0DDE90D1217F8010BF6
:101E90009047761CBBF10001ABF1010BF4DC0A9812
:101EA0002146DDE90D2300F005F806446D1C97E698
:101EB000092801002DE9F041044600251E46174679
:101EC000880404D405E039462020B0476D1C641E08
:101ED000F9D52846BDE8F0812DE9F04104460025FA
:101EE0001E469046C80301D5302700E0202788040D
:101EF00004D505E041463846B0476D1C641EF9D54F
:101F00002846BDE8F0810A68531C0B6010707047CA
:101F100088B0FEF7CDFAFFF7D8FDFFF78BFBFFF790
:101F200097FBFFF781FA0020FFF7D6F94FF6FF7015
:101F3000FFF7E8FA0020FFF7D1FA12A10020FFF71F
:101F400031FA4FF4FA75124C002201A91148FFF73B
:101F500021F8002206A90F48FEF7F8FF9DF80600B9
:101F600000909DF805309DF804200BA12046FFF756
:101F7000F5FD21461820FFF715FA2846FEF794F9DB
:101F8000E1E7000052544320544553540000000040
:101F9000060000202C0000202532643A2532643AE5
:101FA0002532642020202020202020202020000016
:101FB0000000000000000000000000000000000021
:101FC0000000000000000000000000000000000011
:101FD0000000000000000000000000000000000001
:101FE000000080018001800180018001800180016A
:101FF00080018001800180018001800100000000DB
:1020000080018001000000000000000000000000CE
:1020100000000000CC00CC00CC00CC00CC00CC00F8
:1020200000000000000000000000000000000000B0
:1020300000000000000000000000000000000000A0
:10204000000000000000000000000000600C600CB8
:10205000600C30063006FE1FFE1F300638071803DE
:10206000FE1FFE1F180318038C018C018C01000059
:1020700000008000E003F80F9C0E8C1C8C188C0074
:102080009800F801E007800E801C8C188C189C18B2
:10209000B80CF00FE003800080000000000000009A
:1020A0000000000000000E181B0C110C1106110698
:1020B000110311039B018E01C038C06C6044604461
:1020C000304430441844186C0C3800000000000004
:1020D0000000E001F0033807180618063003F0018D
:1020E000F000F8009C310E33061E061C061C063F4D
:1020F000FC73F02100000000000000000000000060
:10210000000000000C000C000C000C000C000C0087
:1021100000000000000000000000000000000000BF
:1021200000000000000000000000000000000000AF
:102130000000000200038001C000C00060006000D9
:10214000300030003000300030003000300030000F
:1021500060006000C000C0008001000300020000B9
:10216000000020006000C000800180010003000327
:10217000000600060006000600060006000600062F
:102180000003000380018001C00060002000000007
:10219000000000000000000000000000C000C000BF
:1021A000D806F807E00130033807000000000000FF
:1021B000000000000000000000000000000000001F
:1021C000000000000000000000000000800180010D
:1021D000800180018001FC3FFC3F80018001800183
:1021E00080018001000000000000000000000000ED
:1021F00000000000000000000000000000000000DF
:1022000000000000000000000000000000000000CE
:10221000000080018001000100018000000000003A
:1022200000000000000000000000000000000000AE
:102230000000000000000000E007E00700000000D0
:10224000000000000000000000000000000000008E
:10225000000000000000000000000000000000007E
:10226000000000000000000000000000000000006E
:102270000000C000C00000000000000000000000DE
:102280000000000C000C000600060006000300031E
:1022900000038003800180018001C000C000C000F5
:1022A000600060000000000000000000000000006E
:1022B0000000E003F007380E180C0C180C180C186E
:1022C0000C180C180C180C180C180C18180C380ECC
:1022D000F007E00300000000000000000000000024
:1022E000000000018001C001F00198018801800117
:1022F00080018001800180018001800180018001D6
:1023000080018001000000000000000000000000CB
:102310000000E003F80F180C0C180C180018001837
:10232000000C000600038001C000600030001800AF
:10233000FC1FFC1F00000000000000000000000067
:102340000000E001F807180E0C0C0C0C000C000645
:10235000C003C007000C001800180C180C18180C4B
:10236000F807E0030000000000000000000000008B
:102370000000000C000E000F000F800DC00C600C60
:10238000600C300C180C0C0CFC3FFC3F000C000CDB
:10239000000C000C00000000000000000000000025
:1023A0000000F80FF80F180018000C00EC03FC07F1
:1023B0001C0E001C0018001800180C181C0C180E1D
:1023C000F807E0030000000000000000000000002B
:1023D0000000C007F00F381C181818000C00CC03C0
:1023E000EC0F3C0E1C1C0C180C180C18181C380E8A
:1023F000F007E00300000000000000000000000003
:102400000000FC1FFC1F000C0006000600038003F8
:102410008001C001C000E00060006000700030007A
:10242000300030000000000000000000000000004C
:102430000000E003F007380E180C180C180C3806D2
:10244000F007F007180C0C180C180C180C18380CA6
:10245000F80FE00300000000000000000000000092
:102460000000E003F007380E1C0C0C180C180C18B8
:102470001C1C381EF81BE0190018000C000C1C0E68
:10248000F807F0010000000000000000000000005C
:10249000000000000000000000000000800180013A
:1024A000000000000000000000000000000000002C
:1024B000800180010000000000000000000000001A
:1024C000000000000000000000000000800180010A
:1024D00000000000000000000000000000000000FC
:1024E0008001800100010001800000000000000068
:1024F00000000000000000000000000000000000DC
:102500000010001C800FE003F8001800F800E00342
:10251000800F001C00100000000000000000000000
:1025200000000000000000000000000000000000AB
:10253000F81F000000000000F81F0000000000006D
:10254000000000000000000000000000000000008B
:10255000000000000000000000000000000000007B
:1025600008003800F001C007001F0018001FC00756
:10257000F00138000800000000000000000000002A
:102580000000E003F80F180C0C180C180018000CD1
:10259000000600038001C000C000C0000000000071
:1025A000C000C000000000000000000000000000AB
:1025B00000000000E00718180420C229224A114434
:1025C00009440944094409221113E20C0240042081
:1025D0001818E007000000000000000000000000E4
:1025E000000080038003C006C006C006600C600CBB
:1025F000301830183018F83FF83F1C700C600C6031
:1026000006C006C00000000000000000000000003E
:102610000000FC03FC0F0C0C0C180C180C180C0C14
:10262000FC07FC0F0C180C300C300C300C300C1864
:10263000FC1FFC070000000000000000000000007C
:102640000000C007F01F38381C300C700660060010
:102650000600060006000600060006600C701C302E
:10266000F01FE00700000000000000000000000074
:102670000000FE03FE0F060E061806180630063090
:102680000630063006300630063006180618060EEC
:10269000FE0FFE030000000000000000000000002C
:1026A0000000FC3FFC3F0C000C000C000C000C0078
:1026B000FC1FFC1F0C000C000C000C000C000C009C
:1026C000FC3FFC3F00000000000000000000000094
:1026D0000000F83FF83F1800180018001800180014
:1026E000F81FF81F1800180018001800180018002C
:1026F00018001800000000000000000000000000AA
:102700000000E00FF83F3C780E6006E007C00300D1
:10271000030003FE03FE03C007C006C00EC03CF06A
:10272000F83FE00F00000000000000000000000083
:1027300000000C300C300C300C300C300C300C30F5
:10274000FC3FFC3F0C300C300C300C300C300C30AB
:102750000C300C3000000000000000000000000001
:1027600000008001800180018001800180018001E2
:102770008001800180018001800180018001800151
:102780008001800100000000000000000000000047
:10279000000000060006000600060006000600060F
:1027A0000006000600060006000618061806380790
:1027B000F003E00100000000000000000000000045
:1027C000000006300618060C060606038601C60041
:1027D00066007600DE008E0106030606060C06186B
:1027E000063006600000000000000000000000004D
:1027F0000000180018001800180018001800180031
:102800001800180018001800180018001800180008
:10281000F81FF81F0000000000000000000000008A
:1028200000000EE01EF01EF01EF036D836D836D866
:1028300036D866CC66CC66CCC6C6C6C6C6C6C6C6C4
:1028400086C386C3000000000000000000000000F6
:1028500000000C301C303C303C306C306C30CC30E4
:10286000CC308C310C330C330C360C360C3C0C3C1D
:102870000C380C30000000000000000000000000D8
:102880000000E007F81F1C380E70066003C003C08C
:1028900003C003C003C003C003C006600E701C3831
:1028A000F81FE0070000000000000000000000002A
:1028B0000000FC0FFC1F0C380C300C300C300C30BE
:1028C0000C18FC1FFC070C000C000C000C000C008A
:1028D0000C000C00000000000000000000000000E0
:1028E0000000E007F81F1C380E70066003E003C00C
:1028F00003C003C003C003C007E006630E3F1C3CD7
:10290000F83FE0F700C000000000000000000000F9
:102910000000FE0FFE1F063806300630063006386F
:10292000FE1FFE0706030606060C061806180630EC
:1029300006300660000000000000000000000000FB
:102940000000E003F80F1C0C0C180C180C001C0005
:10295000F803E00F001E0038063006300E301C1C55
:10296000F80FE00700000000000000000000000079
:102970000000FE7FFE7F80018001800180018001D8
:10298000800180018001800180018001800180013F
:102990008001800100000000000000000000000035
:1029A00000000C300C300C300C300C300C300C3083
:1029B0000C300C300C300C300C300C300C30181843
:1029C000F81FE00700000000000000000000000009
:1029D000000003600630063006300C180C180C1886
:1029E000180C180C380E30063006700760036003B0
:1029F000C001C00100000000000000000000000055
:102A000000000360C361C361C3616633663366332C
:102A10006633663366336C1B6C1B6C1B2C1A3C1EB6
:102A2000380E380E0000000000000000000000001A
:102A300000000FE00C7018303018700C600EC007EA
:102A400080038003C003E006700C301C18180C30A3
:102A50000E6007E000000000000000000000000021
:102A6000000003C006600C301C383818300C6006BB
:102A7000E007C003800180018001800180018001A6
:102A80008001800100000000000000000000000044
:102A90000000FC7FFC7F006000300018000C000686
:102AA00000038001C0006000300018000C00060028
:102AB000FE7FFE7F0000000000000000000000001C
:102AC0000000E003E0036000600060006000600060
:102AD00060006000600060006000600060006000F6
:102AE00060006000600060006000E003E003000040
:102AF000000030003000600060006000C000C000D6
:102B0000C000C001800180018001000300030003B8
:102B100000060006000000000000000000000000A9
:102B20000000E003E00300030003000300030003D0
:102B3000000300030003000300030003000300037D
:102B400000030003000300030003E003E0030000B0
:102B500000000000C001C001600360036003300694
:102B60003006180C180C00000000000000000000E7
:102B70000000000000000000000000000000000055
:102B80000000000000000000000000000000000045
:102B90000000000000000000000000000000000035
:102BA0000000FFFFFFFF0000000000000000000029
:102BB00000000C000C000C000C000C000C000000CD
:102BC0000000000000000000000000000000000005
:102BD00000000000000000000000000000000000F5
:102BE000000000000000000000000000F003F807F3
:102BF0001C0C0C0C000FF00FF80C0C0C0C0C1C0F28
:102C0000F80FF018000000000000000000000000B5
:102C1000000018001800180018001800D803F80F5A
:102C2000380C181818181818181818181818380CFC
:102C3000F80FD803000000000000000000000000B2
:102C4000000000000000000000000000C003F007CA
:102C5000300E180C1800180018001800180C300E50
:102C6000F007C003000000000000000000000000AA
:102C7000000000180018001800180018C01BF01FF2
:102C8000301C181818181818181818181818301C8C
:102C9000F01FC01B0000000000000000000000004A
:102CA000000000000000000000000000C003F00F62
:102CB000300C1818F81FF81F180018003818301CAE
:102CC000F00FC0070000000000000000000000003E
:102CD0000000800FC00FC000C000C000F007F00768
:102CE000C000C000C000C000C000C000C000C000E4
:102CF000C000C00000000000000000000000000054
:102D0000000000000000000000000000E00DF80FCF
:102D1000180E0C0C0C0C0C0C0C0C0C0C0C0C180ED7
:102D2000F80FE00D000C0C0C1C06F807F001000079
:102D3000000018001800180018001800D807F80F35
:102D4000381C1818181818181818181818181818DF
:102D50001818181800000000000000000000000013
:102D60000000C000C000000000000000C000C00063
:102D7000C000C000C000C000C000C000C000C00053
:102D8000C000C000000000000000000000000000C3
:102D90000000C000C000000000000000C000C00033
:102DA000C000C000C000C000C000C000C000C00023
:102DB000C000C000C000C000C000F80078000000E3
:102DC00000000C000C000C000C000C000C0C0C069D
:102DD0000C038C01CC006C00FC009C018C030C03E8
:102DE0000C060C0C000000000000000000000000B9
:102DF0000000C000C000C000C000C000C000C00093
:102E0000C000C000C000C000C000C000C000C000C2
:102E1000C000C00000000000000000000000000032
:102E20000000000000000000000000007C3CFF7E6D
:102E3000C7E383C183C183C183C183C183C183C10C
:102E400083C183C1000000000000000000000000FA
:102E50000000000000000000000000009807F80FCC
:102E6000381C1818181818181818181818181818BE
:102E700018181818000000000000000000000000F2
:102E8000000000000000000000000000C003F00F80
:102E9000300C181818181818181818181818300C9A
:102EA000F00FC00300000000000000000000000060
:102EB000000000000000000000000000D803F80F30
:102EC000380C181818181818181818181818380C5A
:102ED000F80FD80318001800180018001800000098
:102EE000000000000000000000000000C01BF01FF8
:102EF000301C181818181818181818181818301C1A
:102F0000F01FC01B0018001800180018001800005F
:102F1000000000000000000000000000B007F00307
:102F200070003000300030003000300030003000E1
:102F30003000300000000000000000000000000031
:102F4000000000000000000000000000E003F003AB
:102F5000380E180C3800F003C007000C180C380E9F
:102F6000F007E00300000000000000000000000087
:102F7000000000008000C000C000C000F007F007A3
:102F8000C000C000C000C000C000C000C000C00041
:102F9000C0078007000000000000000000000000E3
:102FA00000000000000000000000000018181818C1
:102FB0001818181818181818181818181818381C6D
:102FC000F01FE019000000000000000000000000F9
:102FD0000000000000000000000000000C18180CA9
:102FE000180C180C300630063006600360036003CE
:102FF000C001C0010000000000000000000000004F
:10300000000000000000000000000000C141C141BC
:10301000C3616363636363633636363636361C1CBE
:103020001C1C1C1C00000000000000000000000030
:103030000000000000000000000000001C38381CE8
:10304000300C600660036003600360036006300CB0
:10305000381C1C38000000000000000000000000C8
:1030600000000000000000000000000018303018D0
:1030700030187018600C600CE00CC006C0068003AD
:103080008003800380018001C001F0007000000017
:10309000000000000000000000000000FC1FFC1FFA
:1030A000000C000600038001C00060003000180022
:1030B000FC1FFC1F000000000000000000000000DA
:1030C000000000038001C000C000C000C000C000BC
:1030D000C00060006000300060004000C000C00020
:1030E000C000C000C000C00080010003000000005C
:1030F0000000800180018001800180018001800149
:1031000080018001800180018001800180018001B7
:103110008001800180018001800180018001000028
:1031200000006000C000C0018001800180018001BA
:1031300080010003000300060003000180018001FC
:103140008001800180018001C0006000000000005B
:10315000000000000000000000000000000000006F
:10316000F010F81F080F0000000000000000000031
:10317000000000000000000000000000000000004F
:103180000000000000000000010203040607080917
:10319000B0310008000000202C000000A41B000833
:1031A000DC3100082C0000202C040000B41B0008B7
:1031B0000000FFFF000074743A74743A74740000E5
:1031C00000000000000000000000000010000000EF
:0C31D00001000000000000000024F400DA
:04000005080001D915
:00000001FF
