:020000040800F2
:1000000098040020ED0100086F180008551300083F
:100010006D18000885020008731E0008000000002B
:10002000000000000000000000000000871B000826
:10003000870200080000000071180008891B0008F2
:10004000070200080702000807020008070200086C
:10005000070200080702000807020008070200085C
:10006000070200080702000807020008070200084C
:10007000070200080702000807020008070200083C
:10008000070200080000000007020008070200083D
:10009000070200080702000807020008070200081C
:1000A000070200080702000807020008070200080C
:1000B00007020008011C00080702000807020008E8
:1000C00007020008070200080702000807020008EC
:1000D00007020008070200080702000807020008DC
:1000E00007020008070200080702000807020008CC
:1000F00007020008070200080702000800000000CD
:1001000000000000070200080000000007020008CD
:1001100007020008000000000702000807020008AC
:10012000070200080702000807020008070200088B
:10013000070200080000000000000000070200089D
:10014000070200080702000800000000000000008D
:10015000000000000000000000000000000000009F
:10016000000000000000000000000000070200087E
:10017000070200080000000000000000000000006E
:10018000000000000702000800000000000000005E
:10019000000000000000000000000000000000005F
:1001A000000000000000000007020008070200082D
:1001B000070200080702000807020008000000000C
:1001C000000000000702000800000000000000001E
:1001D0000702000807020008DFF80CD000F040F822
:1001E000004800473D20000898040020064880474A
:1001F00006480047FEE7FEE7FEE7FEE7FEE7FEE70C
:10020000FEE7FEE7FEE7FEE7E51B0008D901000870
:10021000D2B201E000F8012B491EFBD27047002248
:10022000F6E710B513460A4604461946FFF7F0FFF5
:10023000204610BD30B50B46014600202022012487
:1002400009E021FA02F59D4205D303FA02F5491BA4
:1002500004FA02F52844151EA2F10102F1DC30BDBA
:10026000064C074D06E0E06840F0010394E8070003
:1002700098471034AC42F6D3FFF7B2FFC4320008FF
:10028000E4320008FEE77047002240F6B83306E08B
:100290000021491C89B29942FBD3521C92B282427E
:1002A000F6D370477047000070B5044600F0F8F8C8
:1002B0000546601C02D004484068044400F0F0F891
:1002C000401BA042FAD370BD100000202DE9FC4F66
:1002D000DFF8A0A1002301250AF1040B03244FF04D
:1002E0000F0C0BF1040EBDE005FA03F632406FD09F
:1002F0004F68012F05D0022F03D0112F01D0122FEC
:1003000017D1D0F808905F0004FA07F829EA080925
:100310000097D1F80C8008FA07F848EA0908C0F8F5
:1003200008804768B7430E79C6F300169E403E43E7
:100330004660C6684FEA430804FA08F7BE430197CF
:100340008F6807FA08F73743C7604E68022E01D05E
:10035000122E13D1DE0800EB86060096366A5F0780
:10036000FF0E0CFA07F926EA0906D1F8109009FAEF
:1003700007F949EA0609009EC6F820900668019F21
:10038000BE430F7907F0030707FA08F73743076002
:100390004E68F60065D5384E376E47F00107376670
:1003A000366E23F0030706F001060096334E3E44F6
:1003B000B146B6689F074FEA17780CFA08F7BE43B4
:1003C000B0F1904F05D02E4FB84204D1012717E06D
:1003D00047E0002714E02B4FB84201D102270FE07D
:1003E000294FB84201D103270AE0284FB84201D172
:1003F000042705E0264FB84201D1052700E0062773
:1004000007FA08F73743C9F80870DAF8006057466A
:10041000D1F8048096435FEAC83800D516433E60A1
:10042000DBF800605F46D1F8048096435FEA8838C5
:1004300000D516433E60DEF800607746D1F80480B0
:1004400096435FEAC82800D516433E60094F0C3733
:100450003E68D1F8048096435FEA882800D51643A9
:100460003E605B1C0A6832FA03F67FF43DAFBDE8DC
:10047000FC8F000000040140001002400000014019
:100480000004004800080048000C00480010004824
:10049000001400480AB18161704781627047000012
:1004A0000148806870470000100000200248816801
:1004B00042681144816070471000002010B500248C
:1004C000032000F077F8002000F008F808B10124BC
:1004D00001E000F025F8204610BD000070B50E4E7A
:1004E00005460024706898B14FF47A71B1FBF0F0C2
:1004F0000A490968B1FBF0F000F0F8FB40B9102D93
:1005000006D200222946501E00F034F8356000E083
:100510000124204670BD0000100000201C000020B7
:100520000B4808B5016E41F001010166016E01F052
:1005300001010091816D41F080518165806D00F075
:10054000805000900348816841F48041816008BD7B
:100550000010024000700040002809DB00F01F027C
:10056000012191404009800000F1E020C0F8001115
:1005700070470000F0B40E4B1B680C46C3F3022317
:10058000C3F10705042D00D90425191D072901D23F
:10059000002300E0DB1E012606FA05F1491E21407A
:1005A00099409E40761E16403143F0BC01F076BC67
:1005B0000CED00E0064900F0070208684FF6FF0363
:1005C000184040EA0220034A1043086070470000C8
:1005D0000CED00E00000FA052B492C4B0A68322193
:1005E0004A432B4940B1B0F5007F086829D020F478
:1005F000C06040F480602CE00868C0F3412002280D
:1006000004D051F8800F20F4807022E0D1F88000EF
:1006100020F48070C1F88000086820F4C06040F4C5
:1006200000700860B2FBF3F0401C00E0401E4A6915
:10063000520501D50028F9D1486940050AD50320A3
:100640007047C0F34120022806D051F8800F40F4D3
:100650008070086000207047D1F8800040F48070FE
:10066000C1F88000086820F4C06040F400700860A1
:10067000B2FBF3F0401C00E0401E4A695205DBD596
:100680000028F9D1D8E700001C00002040420F00EC
:10069000007000402DE9F0470E4605004FF00007BE
:1006A00025D0DFF8AC81D8F8000000F00F00B04290
:1006B0000CD2D8F8001021F00F013143C8F8001017
:1006C000D8F8000000F00F00B04210D12968614C4A
:1006D000C80741F2883A5AD06868DFF87C9103284D
:1006E00008D0022820682DD0400500282CDB0120EE
:1006F000BDE8F08720688001F9D5E06800F00302CA
:10070000E068C0F30310401C032A19D0534A00BF0D
:10071000B2FBF0F0E268C2F306225043E268C2F393
:100720004162521C5200B0FBF2F0484517D9A06854
:1007300010F0F00F0CD0880711D5A86840B10EE07A
:10074000474AE5E78003D0E700F092F8484506D92C
:10075000A06820F0F00040F08000A0608027A06832
:10076000696820F003000843A060FFF799FE814606
:1007700006E000BFFFF794FEA0EB090151453AD80F
:10078000A068696800F00C00B0EB810FF2D1286816
:10079000810714D5400703D5A06840F4E060A0604D
:1007A0002878000705D5A06820F4605040F4E06088
:1007B000A060A068A96820F0F000084304E0802F42
:1007C00003D1A06820F0F000A060D8F800104046E7
:1007D00001F00F01B14216D9016821F00F01314338
:1007E0000160FFF75DFE074607E000BFFFF758FE18
:1007F000C11B514501D903207AE7D8F8000000F069
:100800000F00B042F2D12878400705D5A068E9680A
:1008100020F4E0600843A0602878000706D5A068AF
:10082000296920F4605040EAC100A06000F020F87F
:10083000A1680C4AC1F30311515C01F01F01C840CB
:100840000949086009480068BDE8F047FFF746BE5F
:10085000002002400010024000B4C4040024F40050
:1008600000366E01B43200081C0000201000002089
:10087000184910B58868C0F381021748012A0BD0C7
:100880008A68164BC2F38102022A06D08A68C2F334
:100890008102032A03D0002010BD184610BDCA688B
:1008A00002F00304CA68C2F30312521C032C02D0E4
:1008B000B0FBF2F001E0B3FBF2F0CA68C968C2F322
:1008C00006225043C1F34161491C4900B0FBF1F0DD
:1008D00010BD0000001002400024F40000366E013C
:1008E0002DE9F84304007AD02078FA4DC00747D0AC
:1008F000A868E96800F00C0001F003010C2802D0A0
:10090000082817D001E0032914D06068B0F5803FB3
:1009100017D0B0F5A02F286817D020F480302860B9
:10092000286820F4802028606068E0B1FFF7B8FDF7
:10093000064614E02868800322D560680028D2D0DB
:100940001EE0286840F48030EDE740F48020286005
:10095000F7E700BFFFF7A4FD801B642870D8286864
:100960008003F7D50CE0FFF79BFD064605E000BFCE
:10097000FFF796FD801B6428F0D828688003F7D421
:10098000207880074CD5A868E96800F00C0001F0D9
:1009900003010C2802D004280DD001E002290AD05E
:1009A000E068002828682BD040F480702860FFF7AA
:1009B00077FD064619E02868400502D5E068002862
:1009C00091D06868217C20F0FE4040EA01606860B8
:1009D000C1480068FFF782FD002800D120E076E1E1
:1009E000FFF75EFD801B0228B8D828684005F7D5C0
:1009F0006868217C20F0FE4040EA016068600FE0FA
:100A000020F480702860FFF74BFD064605E000BF2C
:100A1000FFF746FD801B0228A0D828684005F7D4C0
:100A20002078000729D560690028D5F8940013D0F4
:100A300040F00100C5F89400FFF732FD064606E0DD
:100A400090E000BFFFF72CFD801B022886D8D5F868
:100A500094008007F6D510E020F00100C5F894005E
:100A6000FFF71EFD064604E0FFF71AFD801B022873
:100A700078D8D5F894008007F6D42078400761D55F
:100A8000A86D0026C00008D4A86D40F08050A8656D
:100A9000A86D012600F08050009090480168C905BB
:100AA00011D40168804641F480710160FFF7F8FCC1
:100AB000074604E0FFF7F4FCC01B022852D8D8F820
:100AC0000000C005F6D5A068012815D00528D5F886
:100AD000900016D020F00100C5F89000D5F89000E5
:100AE00020F00400C5F89000A06841F28838B8B141
:100AF000FFF7D6FC07460EE0D5F8900040F0010065
:100B0000F0E740F00400C5F89000F5E7FFF7C8FCF7
:100B1000C11B414526D8D5F890008007F6D50CE0DA
:100B2000FFF7BEFC074604E0FFF7BAFCC11B4145D6
:100B300018D8D5F890008007F6D41EB1A86D20F023
:100B40008050A8652078800629D5A0690028D5F8AE
:100B5000980013D040F00100C5F89800FFF7A0FC02
:100B6000064606E077E000BFFFF79AFC801B0228EC
:100B700077D8D5F898008007F6D510E020F001006E
:100B8000C5F89800FFF78CFC064604E0FFF788FCE8
:100B9000801B022865D8D5F898008007F6D4E06954
:100BA000F0B3A968C1F38101032961D00228286844
:100BB00020F0807028600BD0E86820F00300E86027
:100BC000E86847490840E860FFF76AFC04464BE0E4
:100BD000FFF766FC064604E0FFF762FC801B022874
:100BE0003FD828688001F7D4F4E908016FF00F02BC
:100BF00002EB01110843218A5204490802EB4151DA
:100C0000A26841EA02210843217D4FF07E42490853
:100C100002EB41610843217B40EAC160E96800E0E2
:100C200062E0304A11400843E860286840F0807074
:100C30002860E86840F08070E860FFF731FC044607
:100C400005E000BFFFF72CFC001B022809D828682C
:100C50008001F7D548E004E0FFF722FC001B0228E2
:100C600002D90320BDE8F88328688001F4D43BE072
:100C70000128F7D0E868226A00F00301914226D1EA
:100C8000616A00F0F0020901103991421FD1A26A95
:100C900000F4FE41B1EB022F19D194F82C2000F0A2
:100CA0007841B1EBC26F12D1218E00F4C002490825
:100CB0004905A1F50011914209D194F8341000F0D2
:100CC000C06049084906A1F1007181420CD00120A1
:100CD000C8E7000000100240100000200070004033
:100CE000FFFFEEFE0C809F010020BBE710B5401E09
:100CF000B0F1807F01D3012010BD4FF0E02460618E
:100D00000F21601701F0CAF80020A06107202061C0
:100D1000002010BD7047704770477047704770479C
:100D2000F0B590F83C20012A3AD0012580F83C50DB
:100D3000022280F83D2003685A689C68194E1A4FB9
:100D4000B34201D0BB4204D122F4700C4A6842EA9B
:100D50000C02DFF858C002EA0C02D1F800C04CEADD
:100D6000020CC3F804C00268B2420DD0B2F1804F49
:100D70000AD00F4B9A4207D00E4B9A4204D0BA4287
:100D800002D00D4B9A4204D1896824F080031943A4
:100D9000916080F83D50002180F83C100846F0BD7D
:100DA0000220F0BD002C0140003401408FFFFFFD08
:100DB000000400400008004000400140704700006F
:100DC00010B500210B4800F084FA0B4C80B20B499F
:100DD0002080B1FBF0F060800421064800F079FA31
:100DE00080B2A080642148432188B0FBF1F0E0800C
:100DF00010BD0000480000200000002040420F000D
:100E00002DE9F041054690F83C000C46012836D00B
:100E1000012085F83C008AB3042A42D02868082AB9
:100E200051D0D4E90023E168066A26F480560662B0
:100E3000C669076A26F4407646EA03234FF6FF7632
:100E400006EA013123F4704319434FF4204627F496
:100E5000204306EA02321A43C16102622868C1696E
:100E600021F44061C1612868C169A26841EA022198
:100E7000C161002085F83C00BDE8F08101E002205E
:100E8000FAE7D4E90012E368286800F08FFF2868C9
:100E9000816921F00C01816128688169A268114390
:100EA0000FE0D4E90012E368286800F0C7FF286863
:100EB000816921F44061816128688169A26841EA01
:100EC00002218161D5E7D4E90027267B016A21F45C
:100ED00080710162C169036A21F00301394321F085
:100EE000F00731074FF4206647EA116123F42063CD
:100EF00006EA02221A43C16102622868C16921F030
:100F00000C01C1612868C169A2681143B0E710B53E
:100F1000040003D094F83D0010B107E0012010BD9B
:100F2000002084F83C00204600F022F8022084F8DB
:100F30003D00211D206800F069FE012084F8480072
:100F400084F83E0084F83F0084F8400084F84100B3
:100F500084F8420084F8430084F8440084F8450093
:100F600084F8460084F8470084F83D00002010BD56
:100F700010B586B0044614216846FFF750F91549AC
:100F80002068884224D11448816D41F002018165B6
:100F9000816D01F002010591C16C41F00201C16453
:100FA000C06C002100F0020005901020009002208B
:100FB000CDE90101CDE9031069460848FFF786F93C
:100FC000002211461D20FFF7D5FA1D20FFF7C4FAB5
:100FD00006B010BD000400400010024000040048AC
:100FE00010B5044679B1042912D0082915D00C296E
:100FF00018D0102919D094F8430000BF94F8472066
:10100000012817D114E094F83E0094F84420F7E743
:1010100094F83F0094F84520F2E794F8400094F8E3
:101020004620EDE794F84100E8E794F84200E5E750
:10103000012A01D0012010BD022071B1042915D070
:1010400008291CD00C2936D0102937D084F8430049
:1010500084F847000C291BD133E084F83E0084F863
:1010600044002068C26842F0020210E084F83F00A9
:1010700084F845002068C26842F0040207E084F862
:10108000400084F846002068C26842F00802C2604E
:101090000122206800F012FE206881680B4A11408E
:1010A000062906D0B1F5803F03D0016841F0010167
:1010B0000160002010BD84F84100C9E784F84200B7
:1010C000C6E72068C26842F01002E0E707000100AE
:1010D00070B50446006801694FF00005C9438907EF
:1010E00015D4C168C943890711D4E91E01610120E3
:1010F0002077206880698007204602D0FFF760FED5
:1011000004E000F0E3F8204600F0E1F825772068DD
:101110000169C943490717D4C168C943490713D4B2
:101120006FF004010161022020772068806910F4CB
:10113000407F204602D0FFF743FE04E000F0C6F8EF
:10114000204600F0C4F8257720680169C9430907E3
:1011500016D4C168C943090712D46FF008010161B0
:10116000042020772068C0698007204602D0FFF75E
:1011700027FE04E000F0AAF8204600F0A8F8257742
:1011800020680169C943C90617D4C168C943C906A3
:1011900013D46FF010010161082020772068C06926
:1011A00010F4407F204602D0FFF70AFE04E000F072
:1011B0008DF8204600F08BF8257720680169C94337
:1011C000C90708D1C168C943C90704D1891E016193
:1011D000204600F07DF820680169C943090609D45A
:1011E000C168C943090605D46FF08001016120463A
:1011F000FFF791FD20680169C943C90509D4C16899
:10120000C943090605D46FF4807101612046FFF7D8
:1012100081FD20680169C943490609D4C168C943F1
:10122000490605D46FF040010161204600F091F8B5
:1012300020680169C943890609D4C168C943890680
:1012400005D46FF0200101612046FFF765FD20689D
:101250000169C943C90209D4C168C943C90205D497
:101260006FF4801101612046FFF758FD2068016985
:10127000C943890209D4C168C943890205D46FF4FE
:10128000001101612046FFF748FD20680169C9434C
:10129000490209D4C168C943490205D46FF48001E9
:1012A00001612046FFF73BFD20680169C94309023F
:1012B0000BD4C168C943090207D46FF4000101616E
:1012C0002046BDE87040FFF779BD70BD704770479C
:1012D00070470246002041B1042909D008290AD0EC
:1012E0000C2901D11068006C70471068406B704782
:1012F0001068806B70471068C06B704770B504460B
:1013000090F83C00012812D0012584F83C500220BE
:1013100084F83D00204600F0E9FC01004FF0000099
:1013200007D084F83D5084F83C00012070BD0220B5
:1013300070BD2168CA6822F04002CA602168CA688C
:1013400022F48042CA6084F83D5084F83C000020BA
:1013500070BD7047FEE7000000B585B014216846F7
:10136000FEF75DFF4FF6FF70009000200321CDE9EE
:101370000201019069460248FEF7A8FF05B000BDD2
:101380000008004800B585B014216846FEF747FF05
:101390004FF6FF7000900120019003200390002081
:1013A000029069460248FEF791FF05B000BD0000BB
:1013B0000008004870B5002406462146204600F08B
:1013C00003F900F041F94FF49635304600F010F97A
:1013D000641CAC42F9D370BD30B587B014216846A7
:1013E000FEF71DFF1E48C16C41F00401C164C16CD1
:1013F00001F004010591C16C41F00101C164C16CAF
:1014000001F001010591C16C41F00201C164C06CA1
:10141000012500F0020005904FF44870CDE9000569
:1014200000240394694602940E48FEF74FFF2802F9
:1014300003940090CDE901544FF090446946204652
:10144000FEF744FFFFF79EFFA06940F48070A061A3
:1014500004481830016841F40871016007B030BDDC
:101460000010024000040048203AD2B2034B02EBC5
:10147000420203EB021200F019B80000E420000859
:10148000F0B50E460746002540F23F1407E021461E
:101490003846FFF7E9FF103C6D1CA4B2761C327889
:1014A000002A01D0142DF2D3F0BD00002DE9F04741
:1014B00091468A460026044600F086F8DFF8408010
:1014C000012700BF00F0C0F85FF0000539F81600F2
:1014D00007FA05F10842404601D1408800E0008843
:1014E00000F086F86D1C102DF0D3641CE4B2514658
:1014F000204600F069F8761C182EE3D3BDE8F0878B
:101500000800002010B5FFF767FF002000F014F876
:10151000084CA080A088A0F50241303906D000F028
:1015200031FA002000F008F8A08010BD00F0A1F909
:10153000F7E700000800002070B51D490A6842F472
:1015400000720A600A6842F480720A60184C103C0B
:10155000226842F020022260164A1060086840F0BB
:101560002000086000BF00BF00BF206840F02000DE
:101570002060206840F480702060FFF7EDFE4FF09F
:101580009041886A40F48070886200BF00BF00BF4D
:101590000848001F006885B2886940F4807088613F
:1015A000FFF7F0FE206840F400702060284670BD10
:1015B000280400481408004801B5BDF8000001499E
:1015C000488008BD0800002010B50C4601462020C8
:1015D00000F068F82146BDE81040212000F062B814
:1015E00001B5BDF800000149088008BD08000020D1
:1015F000134A116841F400711160114910390B68E8
:1016000043F480730B600B6843F020030B600D4BB9
:101610001860106840F02000106000BF00BF00BFDD
:10162000086840F020000860086840F48070086096
:1016300000BF00BF00BF086840F40070086070473A
:1016400028040048140800481449086840F4007051
:101650000860086840F4807008601048103802681C
:1016600042F0200202600E4B22221A600A6842F009
:1016700020020A6000BF00BF00BF016841F02001E6
:101680000160016841F48071016000BF00BF00BFCC
:10169000016841F4007101607047000028040048AF
:1016A00014080048184B10B51A6842F400721A600A
:1016B0001A6842F480721A60134A103A146844F0AF
:1016C00020041460114C2060186840F0200018605D
:1016D00000BF00BF00BF106840F02000106010681D
:1016E00040F4807010602160186840F0200018609D
:1016F00000BF00BF00BF106840F0200010601068FD
:1017000040F48070106010BD2804004814080048A0
:10171000F0B587B014216846FEF781FD2548C16CFD
:1017200041F00401C164C16C01F004010591C16C78
:1017300041F02001C164C16C01F020010591C16C30
:1017400041F00101C164C16C01F001010591C16C5E
:1017500041F00801C164C16C01F008010591C16C40
:1017600041F00201C164C06C134E00F002004FF45E
:101770007F440590002221463046FEF78BFE0F4F36
:10178000002204213846FEF785FE0125CDE90045FB
:1017900000240294694630460394FEF797FD042026
:1017A0000090CDE90154694638460394FEF78EFD5A
:1017B00007B0F0BD0010024000080048000C0048CF
:1017C00010B58CB0142104A8FEF729FD002426488A
:1017D000009401940294039409940A9421490B946F
:1017E00001604F21C0E901144FF6FF71C0E90314F5
:1017F00080218161FFF78BFB08B1FEF753FD0420C8
:1018000004905020CDE90504079404A916480894D3
:10181000FFF774FD08B1FEF745FD0120CDE900405A
:1018200002940022694610480394FFF7E9FA08B1D0
:10183000FEF738FD022000900190042269460A4814
:10184000FFF7DEFA08B1FEF72DFD099409A9064855
:101850000B94FFF765FA002801D0FEF723FD0CB0CA
:1018600010BD00000004004048000020FEE7704763
:10187000704730B501210020FFF714FF4FF47A7054
:10188000FEF702FD00210120FFF70CFF41F29071ED
:101890001020FFF707FF4FF41C516020FFF702FFF5
:1018A00001216120FFF7FEFE02214620FFF7FAFE2C
:1018B00048F210011320FFF7F5FE48F2FE01122056
:1018C000FFF7F0FE4FF4A0610220FFF7EBFE41F2BC
:1018D00030010320FFF7E6FE40F2033421463020BA
:1018E000FFF7E0FE21463120FFF7DCFE21463220E3
:1018F000FFF7D8FEE51E29463320FFF7D3FE03216C
:101900003420FFF7CFFE21463520FFF7CBFE142110
:101910003620FFF7C7FE21463720FFF7C3FE2146DA
:101920003820FFF7BFFE21463920FFF7BBFE2946CE
:101930003A20FFF7B7FE03213B20FFF7B3FE214615
:101940003C20FFF7AFFE4FF4A0513D20FFF7AAFE69
:101950004FF400719220FFF7A5FE21469320FFF778
:10196000A1FE40F60D019020FFF79CFE41F2180108
:101970000320FFF797FEBDE8304040F273110720C7
:10198000FFF790BE10B543F20801E320FFF78AFE8F
:101990001221E720FFF786FE41F23121EF20FFF709
:1019A00081FE00210120FFF77DFE4FF4E06102205F
:1019B000FFF778FE41F230010320FFF773FE0021AC
:1019C0000420FFF76FFE40F207210820FFF76AFEB0
:1019D00000210920FFF766FE00210A20FFF762FEC2
:1019E00000210C20FFF75EFE00210D20FFF75AFEBC
:1019F00000210F20FFF756FE00211020FFF752FEB6
:101A000007211120FFF74EFE00211220FFF74AFEAA
:101A100000211320FFF746FEC820FEF745FC41F2E7
:101A200090611020FFF73EFE40F227211120FFF7C2
:101A300039FE3220FEF738FC1D211220FFF732FE5E
:101A40003220FEF731FC4FF400611320FFF72AFE2D
:101A500014212920FFF726FE0B212B20FFF722FE61
:101A60003220FEF721FC00212020FFF71BFE002181
:101A70002120FFF717FE07213020FFF713FE40F269
:101A800007713120FFF70EFE06213220FFF70AFE14
:101A900040F204713520FFF705FE41F6047136204F
:101AA000FFF700FE04213720FFF7FCFD002138205E
:101AB000FFF7F8FD40F206713920FFF7F3FD40F221
:101AC00001713C20FFF7EEFD0F213D20FFF7EAFDFD
:101AD00000215020FFF7E6FDEF215120FFF7E2FD46
:101AE00000215220FFF7DEFD40F23F115320FFF7A7
:101AF000D9FD4FF41C516020FFF7D4FD0121612076
:101B0000FFF7D0FD00216A20FFF7CCFD00218020E7
:101B1000FFF7C8FD00218120FFF7C4FD00218220CE
:101B2000FFF7C0FD00218320FFF7BCFD00218420CA
:101B3000FFF7B8FD00218520FFF7B4FD10219020AC
:101B4000FFF7B0FD00219220FFF7ACFD03219320A9
:101B5000FFF7A8FD4FF488719520FFF7A3FD002142
:101B60009720FFF79FFD00219820FFF79BFD41F292
:101B700018010320FFF796FDBDE8104040F27311F5
:101B80000720FFF78FBD7047FEF790BC10B594B0EB
:101B900038216846FEF743FB14210EA8FEF73FFBF1
:101BA0004FF40070FEF718FD012000900004019032
:101BB00002200324CDE907041421CDE90A100C907A
:101BC0000D9009946846FEF78BFE0F20CDE90E04B8
:101BD000002010901190129003210EA8FEF75AFDDC
:101BE00014B010BD0548016841F47001016003495B
:101BF0004FF00060803908607047000088ED00E019
:101C00000148FFF765BA0000480000202DE9F043C5
:101C10000268234B234D244E244C4FF080499842B8
:101C200007D0484505D0A84203D0B04201D0A04219
:101C300003D122F070074A683A431D4FDFF874C0A1
:101C4000DFF8748098420DD048450BD0A84209D0E7
:101C5000B04207D0A04205D0B84203D0604501D0C1
:101C6000404503D122F44075CA682A434D6922F0E9
:101C700080022A4302608A68C2620A6882629842CD
:101C800007D0A04205D0B84203D0604501D04045FE
:101C900001D10969016301214161BDE8F0830000C0
:101CA000002C0140000400400008004000340140C6
:101CB00000400140004401400048014010B501F0DF
:101CC0001F030121046A99408C430462016A9A400F
:101CD0001143016210BD10B5846842EA032224F466
:101CE0007F440A432243826010BD000010B504689F
:101CF000A268234B1A404B681343224A13400A68D8
:101D00001A43A2604A68702A0DD037DC12F00F0F18
:101D100034D14FEA2212072A30D2DFE802F02F2F07
:101D20002F2F0B242A000B69D1E902210068FFF74D
:101D3000D2FF23E00A68052A13D0B2F1011F10D0A8
:101D40000268136A146A24F0010414620268946938
:101D5000096924F0F00444EA01119161006803620A
:101D60000CE0012010BD0A698968006800F00CF8D9
:101D700004E00A698968006800F04EF8002010BD90
:101D80008FFFCFFFF8FFFEFF10B5036A046A24F04F
:101D900001040462846924F0F00444EA021423F08C
:101DA0000A020A438461026210BD000070B5046A31
:101DB00024F0010404628469056A124EB0420ED018
:101DC000B0F1804F0BD0104EB04208D00F4EB04251
:101DD00005D00F4EB04202D00E4EB04203D124F0D7
:101DE0000304144301E044F001041A0724F0F00452
:101DF00044EA126225F00A0301F00A0119438261E4
:101E0000016270BD002C0140000400400008004049
:101E1000003401400040014010B5036A23F0100374
:101E200003628369046A23F4704343EA023224F0B4
:101E3000A00343EA01118261016210BD30B5046A5A
:101E400024F0100404628469056A24F4407444EAAE
:101E5000022222F470444FF6FF7202EA0332224358
:101E6000A02425F0A00304EA011119438261016254
:101E700030BDFEE70FB4084B10B504A902AA0398C1
:101E800000F02CF8044602A9002000F0D1F820460A
:101E900010BC5DF814FB0000312000080907090E92
:101EA000002804DB00F1E02080F80014704700F007
:101EB0000F0000F1E02080F8141D704702E008C810
:101EC000121F08C1002AFAD170477047002001E0B4
:101ED00001C1121F002AFBD1704700002DE9FF4FFE
:101EE00089B09B460446002506E025280BD05A46BB
:101EF0000B999047641C6D1C20780028F5D10DB01B
:101F00002846BDE8F08F0027B8460122474900E087
:101F1000074314F8013F203B02FA03F00842F7D1CF
:101F200020782E2819D114F8010F47F004072A2829
:101F30000ED06FF02F022078A0F1300109290CD8C3
:101F400008EB880102EB410100EB0108641CF2E799
:101F50000A98641C50F8048B0A9020780028CED090
:101F6000642808D0692806D075281ED05A460B99D7
:101F700090476D1C58E00A994FF00A0901C90A916F
:101F8000002802DA40422D2102E0390504D52B2138
:101F90008DF82010012103E0F90704D02021F7E794
:101FA0008A4608AE0DE00021FAE70A994FF00A09C7
:101FB00001C90A91F7E74946FEF73CF9303106F8C6
:101FC000011D0028F7D1ADEB060000F120097807CC
:101FD00001D44FF00108C84502DDA8EB090000E07C
:101FE00000208046002706E008A85A46C05D0B99ED
:101FF00090476D1C7F1C5745F6DB04E030205A46A5
:102000000B9990476D1CB8F10001A8F10108F5DCAF
:1020100005E016F8010B5A460B9990476D1CB9F173
:102020000001A9F10109F4DC641C65E7092801003D
:102030000A68531C0B60107070470000FEF73EFAF0
:10204000FFF7A4FDFFF764FBFFF7BAFB0021184878
:10205000FEF7C6FF04211648FEF7C2FFFFF752FA4B
:102060000020FFF7A7F94FF6FF70FFF7B9FA00203D
:10207000FFF7A2FA0FA10020FFF702FA114C12A1FC
:1020800014486288FFF7F6FE1248E28812A1143065
:10209000FFF7F0FE0F491820FFF7F2F90D49302045
:1020A0001431FFF7EDF93220FEF7FEF8E7E7000004
:1020B0004800002054494D2050574E4D494E205461
:1020C0004553540000000020465245513A256448CB
:1020D0007A00000020000020445554593A25642518
:1020E00025000000000000000000000000000000CB
:1020F00000000000000000000000000000000000E0
:1021000000000000000000000000000000000000CF
:10211000000000000000800180018001800180013A
:1021200080018001800180018001800180018001A7
:10213000000000008001800100000000000000009D
:102140000000000000000000CC00CC00CC00CC005F
:10215000CC00CC00000000000000000000000000E7
:10216000000000000000000000000000000000006F
:10217000000000000000000000000000000000005F
:10218000600C600C600C30063006FE1FFE1F30062F
:1021900038071803FE1FFE1F180318038C018C015B
:1021A0008C01000000008000E003F80F9C0E8C1CE6
:1021B0008C188C009800F801E007800E801C8C18A9
:1021C0008C189C18B80CF00FE00380008000000011
:1021D000000000000000000000000E181B0C110C95
:1021E00011061106110311039B018E01C038C06C4A
:1021F00060446044304430441844186C0C3800008B
:10220000000000000000E001F0033807180618067F
:102210003003F001F000F8009C310E33061E061C5E
:10222000061C063FFC73F0210000000000000000C7
:1022300000000000000000000C000C000C000C006E
:102240000C000C0000000000000000000000000076
:10225000000000000000000000000000000000007E
:10226000000000000000000200038001C000C00068
:10227000600060003000300030003000300030007E
:102280003000300060006000C000C000800100032A
:1022900000020000000020006000C00080018001FA
:1022A0000003000300060006000600060006000604
:1022B000000600060003000380018001C0006000EA
:1022C00020000000000000000000000000000000EE
:1022D000C000C000D806F807E0013003380700004E
:1022E00000000000000000000000000000000000EE
:1022F00000000000000000000000000000000000DE
:1023000080018001800180018001FC3FFC3F800151
:1023100080018001800180010000000000000000B9
:1023200000000000000000000000000000000000AD
:10233000000000000000000000000000000000009D
:102340000000000000008001800100010001800009
:10235000000000000000000000000000000000007D
:10236000000000000000000000000000E007E0079F
:10237000000000000000000000000000000000005D
:10238000000000000000000000000000000000004D
:10239000000000000000000000000000000000003D
:1023A000000000000000C000C000000000000000AD
:1023B000000000000000000C000C000600060006F3
:1023C0000003000300038003800180018001C0003E
:1023D000C000C000600060000000000000000000BD
:1023E000000000000000E003F007380E180C0C1885
:1023F0000C180C180C180C180C180C180C180C18BD
:10240000180C380EF007E003000000000000000088
:1024100000000000000000018001C001F0019801EF
:10242000880180018001800180018001800180019C
:102430008001800180018001000000000000000098
:10244000000000000000E003F80F180C0C180C1836
:1024500000180018000C000600038001C000600096
:1024600030001800FC1FFC1F0000000000000000EE
:10247000000000000000E001F807180E0C0C0C0C26
:10248000000C0006C003C007000C001800180C1850
:102490000C18180CF807E003000000000000000012
:1024A000000000000000000C000E000F000F800D67
:1024B000C00C600C600C300C180C0C0CFC3FFC3F8A
:1024C000000C000C000C000C0000000000000000DC
:1024D000000000000000F80FF80F180018000C00B2
:1024E000EC03FC071C0E001C0018001800180C1848
:1024F0001C0C180EF807E0030000000000000000AC
:10250000000000000000C007F00F381C1818180069
:102510000C00CC03EC0F3C0E1C1C0C180C180C18F7
:10252000181C380EF007E003000000000000000057
:10253000000000000000FC1FFC1F000C000600064D
:10254000000380038001C001C000E0006000600063
:10255000700030003000300000000000000000007B
:10256000000000000000E003F007380E180C180C03
:10257000180C3806F007F007180C0C180C180C187B
:102580000C18380CF80FE0030000000000000000F9
:10259000000000000000E003F007380E1C0C0C18CF
:1025A0000C180C181C1C381EF81BE0190018000C25
:1025B000000C1C0EF807F0010000000000000000F5
:1025C000000000000000000000000000000000000B
:1025D00080018001000000000000000000000000F9
:1025E00000000000800180010000000000000000E9
:1025F00000000000000000000000000000000000DB
:1026000080018001000000000000000000000000C8
:102610000000000080018001000100018000000036
:1026200000000000000000000000000000000000AA
:10263000000000000010001C800FE003F8001800EC
:10264000F800E003800F001C0010000000000000F4
:10265000000000000000000000000000000000007A
:1026600000000000F81F000000000000F81F00003C
:10267000000000000000000000000000000000005A
:10268000000000000000000000000000000000004A
:102690000000000008003800F001C007001F00180B
:1026A000001FC007F0013800080000000000000013
:1026B000000000000000E003F80F180C0C180C18C4
:1026C0000018000C000600038001C000C000C0001C
:1026D00000000000C000C00000000000000000007A
:1026E0000000000000000000E00718180420C229C4
:1026F000224A114409440944094409221113E20CF5
:10270000024004201818E00700000000000000004C
:1027100000000000000080038003C006C006C00661
:10272000600C600C301830183018F83FF83F1C70FF
:102730000C600C6006C006C0000000000000000035
:10274000000000000000FC03FC0F0C0C0C180C181F
:102750000C180C0CFC07FC0F0C180C300C300C3057
:102760000C300C18FC1FFC070000000000000000EB
:10277000000000000000C007F01F38381C300C704B
:102780000660060006000600060006000600066059
:102790000C701C30F01FE00700000000000000007B
:1027A000000000000000FE03FE0F060E06180618CB
:1027B0000630063006300630063006300630061881
:1027C0000618060EFE0FFE030000000000000000C9
:1027D000000000000000FC3FFC3F0C000C000C005F
:1027E0000C000C00FC1FFC1F0C000C000C000C006B
:1027F0000C000C00FC3FFC3F00000000000000004B
:10280000000000000000F83FF83F18001800180012
:1028100018001800F81FF81F1800180018001800FA
:102820001800180018001800000000000000000048
:10283000000000000000E00FF83F3C780E6006E06A
:1028400007C00300030003FE03FE03C007C006C069
:102850000EC03CF0F83FE00F000000000000000058
:102860000000000000000C300C300C300C300C303C
:102870000C300C30FC3FFC3F0C300C300C300C307A
:102880000C300C300C300C30000000000000000058
:1028900000000000000080018001800180018001B3
:1028A0008001800180018001800180018001800120
:1028B0008001800180018001000000000000000014
:1028C00000000000000000060006000600060006EA
:1028D00000060006000600060006000600061806B0
:1028E00018063807F003E0010000000000000000B7
:1028F00000000000000006300618060C060606035D
:102900008601C60066007600DE008E01060306061C
:10291000060C0618063006600000000000000000EB
:10292000000000000000180018001800180018002F
:1029300018001800180018001800180018001800D7
:1029400018001800F81FF81F000000000000000029
:102950000000000000000EE01EF01EF01EF036D851
:1029600036D836D836D866CC66CC66CCC6C6C6C68F
:10297000C6C6C6C686C386C30000000000000000AD
:102980000000000000000C301C303C303C306C304B
:102990006C30CC30CC308C310C330C330C360C36E4
:1029A0000C3C0C3C0C380C30000000000000000017
:1029B000000000000000E007F81F1C380E700660E1
:1029C00003C003C003C003C003C003C003C006604C
:1029D0000E701C38F81FE007000000000000000027
:1029E000000000000000FC0FFC1F0C380C300C3005
:1029F0000C300C300C18FC1FFC070C000C000C00F9
:102A00000C000C000C000C00000000000000000096
:102A1000000000000000E007F81F1C380E70066080
:102A200003E003C003C003C003C003C007E00663A4
:102A30000E3F1C3CF83FE0F700C000000000000023
:102A4000000000000000FE0FFE1F063806300630B2
:102A500006300638FE1FFE0706030606060C06189B
:102A60000618063006300660000000000000000076
:102A7000000000000000E003F80F1C0C0C180C18FC
:102A80000C001C00F803E00F001E00380630063072
:102A90000E301C1CF80FE0070000000000000000D2
:102AA000000000000000FE7FFE7F800180018001A9
:102AB000800180018001800180018001800180010E
:102AC0008001800180018001000000000000000002
:102AD0000000000000000C300C300C300C300C30CA
:102AE0000C300C300C300C300C300C300C300C3006
:102AF0000C301818F81FE00700000000000000006C
:102B000000000000000003600630063006300C189C
:102B10000C180C18180C180C380E300630067007FC
:102B200060036003C001C00100000000000000005D
:102B30000000000000000360C361C361C36166332D
:102B4000663366336633663366336C1B6C1B6C1BF3
:102B50002C1A3C1E380E380E000000000000000049
:102B60000000000000000FE00C7018303018700CEE
:102B7000600EC00780038003C003E006700C301CA9
:102B800018180C300E6007E0000000000000000084
:102B900000000000000003C006600C301C3838182C
:102BA000300C6006E007C0038001800180018001D5
:102BB0008001800180018001000000000000000011
:102BC000000000000000FC7FFC7F00600030001867
:102BD000000C000600038001C000600030001800F7
:102BE0000C000600FE7FFE7F0000000000000000D9
:102BF000000000000000E003E003600060006000EF
:102C000060006000600060006000600060006000C4
:102C10006000600060006000600060006000E00331
:102C2000E003000000003000300060006000600041
:102C3000C000C000C000C00180018001800100030D
:102C40000003000300060006000000000000000072
:102C5000000000000000E003E003000300030003A5
:102C6000000300030003000300030003000300034C
:102C70000003000300030003000300030003E0035C
:102C8000E003000000000000C001C0016003600319
:102C9000600330063006180C180C0000000000001D
:102CA0000000000000000000000000000000000024
:102CB0000000000000000000000000000000000014
:102CC0000000000000000000000000000000000004
:102CD000000000000000FFFFFFFF000000000000F8
:102CE0000000000000000C000C000C000C000C00A8
:102CF0000C000000000000000000000000000000C8
:102D000000000000000000000000000000000000C3
:102D100000000000000000000000000000000000B3
:102D2000F003F8071C0C0C0C000FF00FF80C0C0C47
:102D30000C0C1C0FF80FF018000000000000000041
:102D4000000000000000180018001800180018000B
:102D5000D803F80F380C181818181818181818185D
:102D60001818380CF80FD80300000000000000000D
:102D70000000000000000000000000000000000053
:102D8000C003F007300E180C1800180018001800C7
:102D9000180C300EF007C003000000000000000017
:102DA00000000000000000180018001800180018AB
:102DB000C01BF01F301C18181818181818181818ED
:102DC0001818301CF01FC01B00000000000000009D
:102DD00000000000000000000000000000000000F3
:102DE000C003F00F300C1818F81FF81F1800180057
:102DF0003818301CF00FC007000000000000000071
:102E0000000000000000800FC00FC000C000C00024
:102E1000F007F007C000C000C000C000C000C00044
:102E2000C000C000C000C0000000000000000000A2
:102E30000000000000000000000000000000000092
:102E4000E00DF80F180E0C0C0C0C0C0C0C0C0C0CF0
:102E50000C0C180EF80FE00D000C0C0C1C06F807FB
:102E6000F0010000000018001800180018001800F9
:102E7000D807F80F381C1818181818181818181828
:102E80001818181818181818000000000000000082
:102E9000000000000000C000C000000000000000B2
:102EA000C000C000C000C000C000C000C000C00022
:102EB000C000C000C000C000000000000000000012
:102EC000000000000000C000C00000000000000082
:102ED000C000C000C000C000C000C000C000C000F2
:102EE000C000C000C000C000C000C000C000F800AA
:102EF0007800000000000C000C000C000C000C001E
:102F00000C0C0C060C038C01CC006C00FC009C012A
:102F10008C030C030C060C0C0000000000000000E9
:102F2000000000000000C000C000C000C000C000E1
:102F3000C000C000C000C000C000C000C000C00091
:102F4000C000C000C000C000000000000000000081
:102F50000000000000000000000000000000000071
:102F60007C3CFF7EC7E383C183C183C183C183C12E
:102F700083C183C183C183C1000000000000000041
:102F80000000000000000000000000000000000041
:102F90009807F80F381C1818181818181818181847
:102FA0001818181818181818000000000000000061
:102FB0000000000000000000000000000000000011
:102FC000C003F00F300C1818181818181818181813
:102FD0001818300CF00FC0030000000000000000C3
:102FE00000000000000000000000000000000000E1
:102FF000D803F80F380C18181818181818181818BB
:103000001818380CF80FD80318001800180018000A
:103010001800000000000000000000000000000098
:10302000C01BF01F301C181818181818181818187A
:103030001818301CF01FC01B0018001800180018CA
:103040000018000000000000000000000000000068
:10305000B007F00370003000300030003000300066
:1030600030003000300030000000000000000000A0
:103070000000000000000000000000000000000050
:10308000E003F003380E180C3800F003C007000C02
:10309000180C380EF007E0030000000000000000EC
:1030A00000000000000000008000C000C000C00060
:1030B000F007F007C000C000C000C000C000C000A2
:1030C000C000C000C0078007000000000000000032
:1030D00000000000000000000000000000000000F0
:1030E0001818181818181818181818181818181860
:1030F0001818381CF01FE019000000000000000044
:1031000000000000000000000000000000000000BF
:103110000C18180C180C180C30063006300660031A
:1031200060036003C001C001000000000000000057
:10313000000000000000000000000000000000008F
:10314000C141C141C361636363636363363636362D
:1031500036361C1C1C1C1C1C00000000000000005B
:10316000000000000000000000000000000000005F
:103170001C38381C300C6006600360036003600379
:103180006006300C381C1C380000000000000000F5
:10319000000000000000000000000000000000002F
:1031A0001830301830187018600C600CE00CC00635
:1031B000C00680038003800380018001C001F0000D
:1031C000700000000000000000000000000000008F
:1031D000FC1FFC1F000C000600038001C000600003
:1031E00030001800FC1FFC1F000000000000000061
:1031F00000000000000000038001C000C000C0000B
:10320000C000C000C00060006000300060004000EE
:10321000C000C000C000C000C000C00080010003AA
:103220000000000000008001800180018001800119
:103230008001800180018001800180018001800186
:103240008001800180018001800180018001800176
:103250008001000000006000C000C001800180010A
:1032600080018001800100030003000600030001CB
:10327000800180018001800180018001C000600028
:10328000000000000000000000000000000000003E
:1032900000000000F010F81F080F00000000000000
:1032A000000000000000000000000000000000001E
:1032B0000000000000000000000000000102030404
:1032C00006070809E4320008000000202000000082
:1032D000BC1E000804330008200000207804000011
:1032E000CC1E000800000000000000000000FFFFEE
:1032F00000000000100000000100000000000000BD
:043300000024F400B1
:04000005080001D915
:00000001FF
